{"abi":[{"anonymous":false,"inputs":[{"indexed":true,"internalType":"address","name":"_from","type":"address"},{"indexed":false,"internalType":"uint256","name":"amount","type":"uint256"},{"indexed":true,"internalType":"address","name":"_to","type":"address"},{"indexed":false,"internalType":"uint256","name":"date","type":"uint256"},{"indexed":false,"internalType":"uint256","name":"time","type":"uint256"},{"indexed":false,"internalType":"string","name":"purpose","type":"string"}],"name":"transactionData","type":"event"},{"inputs":[{"internalType":"address","name":"","type":"address"},{"internalType":"address","name":"","type":"address"}],"name":"ReceivedFrom","outputs":[{"internalType":"uint256","name":"","type":"uint256"}],"stateMutability":"view","type":"function"},{"inputs":[],"name":"addFund","outputs":[],"stateMutability":"payable","type":"function"},{"inputs":[{"internalType":"uint256","name":"index","type":"uint256"}],"name":"approveRequest","outputs":[],"stateMutability":"payable","type":"function"},{"inputs":[{"internalType":"address","name":"","type":"address"}],"name":"balance","outputs":[{"internalType":"uint256","name":"","type":"uint256"}],"stateMutability":"view","type":"function"},{"inputs":[{"internalType":"address","name":"","type":"address"},{"internalType":"address","name":"","type":"address"}],"name":"borrowed","outputs":[{"internalType":"uint256","name":"","type":"uint256"}],"stateMutability":"view","type":"function"},{"inputs":[{"internalType":"address","name":"_to","type":"address"}],"name":"clearedMyDebt","outputs":[],"stateMutability":"nonpayable","type":"function"},{"inputs":[{"internalType":"string","name":"description","type":"string"},{"internalType":"uint256","name":"value","type":"uint256"},{"internalType":"address","name":"_to","type":"address"}],"name":"createRequest","outputs":[],"stateMutability":"nonpayable","type":"function"},{"inputs":[{"internalType":"address","name":"","type":"address"},{"internalType":"address","name":"","type":"address"}],"name":"given","outputs":[{"internalType":"uint256","name":"","type":"uint256"}],"stateMutability":"view","type":"function"},{"inputs":[{"internalType":"uint256","name":"amount","type":"uint256"},{"internalType":"address payable","name":"_to","type":"address"}],"name":"lend","outputs":[],"stateMutability":"payable","type":"function"},{"inputs":[{"internalType":"address","name":"","type":"address"},{"internalType":"uint256","name":"","type":"uint256"}],"name":"loanGivenArr","outputs":[{"internalType":"address","name":"","type":"address"}],"stateMutability":"view","type":"function"},{"inputs":[{"internalType":"address","name":"","type":"address"},{"internalType":"uint256","name":"","type":"uint256"}],"name":"loanTakenArr","outputs":[{"internalType":"address","name":"","type":"address"}],"stateMutability":"view","type":"function"},{"inputs":[{"internalType":"address","name":"find","type":"address"}],"name":"numberOfPeopleIPaid","outputs":[{"internalType":"uint256","name":"","type":"uint256"}],"stateMutability":"view","type":"function"},{"inputs":[{"internalType":"address","name":"find","type":"address"}],"name":"numberOfPeopleWhoHaveGivenLoanToMe","outputs":[{"internalType":"uint256","name":"","type":"uint256"}],"stateMutability":"view","type":"function"},{"inputs":[{"internalType":"address","name":"find","type":"address"}],"name":"numberOfPeopleWhoPaidMe","outputs":[{"internalType":"uint256","name":"","type":"uint256"}],"stateMutability":"view","type":"function"},{"inputs":[{"internalType":"address","name":"find","type":"address"}],"name":"numberOfPeopleWhomIHaveGivenLoan","outputs":[{"internalType":"uint256","name":"","type":"uint256"}],"stateMutability":"view","type":"function"},{"inputs":[{"internalType":"address","name":"find","type":"address"}],"name":"numberOfRequets","outputs":[{"internalType":"uint256","name":"","type":"uint256"}],"stateMutability":"view","type":"function"},{"inputs":[{"internalType":"address","name":"","type":"address"},{"internalType":"uint256","name":"","type":"uint256"}],"name":"paidArr","outputs":[{"internalType":"address","name":"","type":"address"}],"stateMutability":"view","type":"function"},{"inputs":[{"internalType":"address","name":"","type":"address"},{"internalType":"address","name":"","type":"address"}],"name":"paidTo","outputs":[{"internalType":"uint256","name":"","type":"uint256"}],"stateMutability":"view","type":"function"},{"inputs":[{"internalType":"address payable","name":"_to","type":"address"},{"internalType":"uint256","name":"amount","type":"uint256"},{"internalType":"uint256","name":"date","type":"uint256"},{"internalType":"uint256","name":"time","type":"uint256"},{"internalType":"string","name":"purpose","type":"string"}],"name":"pay","outputs":[],"stateMutability":"payable","type":"function"},{"inputs":[{"internalType":"address","name":"","type":"address"},{"internalType":"uint256","name":"","type":"uint256"}],"name":"receivedArr","outputs":[{"internalType":"address","name":"","type":"address"}],"stateMutability":"view","type":"function"},{"inputs":[{"internalType":"uint256","name":"index","type":"uint256"}],"name":"rejectRequest","outputs":[],"stateMutability":"nonpayable","type":"function"},{"inputs":[{"internalType":"address","name":"","type":"address"},{"internalType":"uint256","name":"","type":"uint256"}],"name":"requests","outputs":[{"internalType":"string","name":"description","type":"string"},{"internalType":"uint256","name":"value","type":"uint256"},{"internalType":"bool","name":"complete","type":"bool"},{"internalType":"address","name":"from","type":"address"}],"stateMutability":"view","type":"function"},{"inputs":[{"internalType":"uint256","name":"amount","type":"uint256"},{"internalType":"address payable","name":"_to","type":"address"}],"name":"takeBack","outputs":[],"stateMutability":"payable","type":"function"},{"inputs":[{"internalType":"address","name":"","type":"address"}],"name":"totalBalanceIHaveAdded","outputs":[{"internalType":"uint256","name":"","type":"uint256"}],"stateMutability":"view","type":"function"},{"inputs":[{"internalType":"address","name":"","type":"address"},{"internalType":"address","name":"","type":"address"}],"name":"used","outputs":[{"internalType":"uint256","name":"","type":"uint256"}],"stateMutability":"view","type":"function"},{"inputs":[{"internalType":"uint256","name":"amount","type":"uint256"}],"name":"withdraw","outputs":[],"stateMutability":"payable","type":"function"}],"devdoc":{"kind":"dev","methods":{},"version":1},"evm":{"assembly":"    /* \"DePay.sol\":61:5846  contract DePay {... */\n  mstore(0x40, 0x80)\n  callvalue\n  dup1\n  iszero\n  tag_1\n  jumpi\n  0x00\n  dup1\n  revert\ntag_1:\n  pop\n  dataSize(sub_0)\n  dup1\n  dataOffset(sub_0)\n  0x00\n  codecopy\n  0x00\n  return\nstop\n\nsub_0: assembly {\n        /* \"DePay.sol\":61:5846  contract DePay {... */\n      mstore(0x40, 0x80)\n      jumpi(tag_1, lt(calldatasize, 0x04))\n      shr(0xe0, calldataload(0x00))\n      dup1\n      0x9ecebe2a\n      gt\n      tag_28\n      jumpi\n      dup1\n      0xd14d7ae8\n      gt\n      tag_29\n      jumpi\n      dup1\n      0xd7b6e15e\n      gt\n      tag_30\n      jumpi\n      dup1\n      0xd7b6e15e\n      eq\n      tag_24\n      jumpi\n      dup1\n      0xd7d1bbdb\n      eq\n      tag_25\n      jumpi\n      dup1\n      0xe3d670d7\n      eq\n      tag_26\n      jumpi\n      dup1\n      0xf0610297\n      eq\n      tag_27\n      jumpi\n      jump(tag_1)\n    tag_30:\n      dup1\n      0xd14d7ae8\n      eq\n      tag_21\n      jumpi\n      dup1\n      0xd2713bcf\n      eq\n      tag_22\n      jumpi\n      dup1\n      0xd522ac8f\n      eq\n      tag_23\n      jumpi\n      jump(tag_1)\n    tag_29:\n      dup1\n      0x9ecebe2a\n      eq\n      tag_15\n      jumpi\n      dup1\n      0xa2f09dfa\n      eq\n      tag_16\n      jumpi\n      dup1\n      0xad1ac14c\n      eq\n      tag_17\n      jumpi\n      dup1\n      0xb0a02abe\n      eq\n      tag_18\n      jumpi\n      dup1\n      0xb1884744\n      eq\n      tag_19\n      jumpi\n      dup1\n      0xb331ea63\n      eq\n      tag_20\n      jumpi\n      jump(tag_1)\n    tag_28:\n      dup1\n      0x4fd49044\n      gt\n      tag_31\n      jumpi\n      dup1\n      0x88811f8d\n      gt\n      tag_32\n      jumpi\n      dup1\n      0x88811f8d\n      eq\n      tag_11\n      jumpi\n      dup1\n      0x8a9cfd55\n      eq\n      tag_12\n      jumpi\n      dup1\n      0x8ead837b\n      eq\n      tag_13\n      jumpi\n      dup1\n      0x95f4513a\n      eq\n      tag_14\n      jumpi\n      jump(tag_1)\n    tag_32:\n      dup1\n      0x4fd49044\n      eq\n      tag_8\n      jumpi\n      dup1\n      0x5195afa5\n      eq\n      tag_9\n      jumpi\n      dup1\n      0x71929c51\n      eq\n      tag_10\n      jumpi\n      jump(tag_1)\n    tag_31:\n      dup1\n      0x092a0a8a\n      eq\n      tag_2\n      jumpi\n      dup1\n      0x2d7788db\n      eq\n      tag_3\n      jumpi\n      dup1\n      0x2e1a7d4d\n      eq\n      tag_4\n      jumpi\n      dup1\n      0x31287c31\n      eq\n      tag_5\n      jumpi\n      dup1\n      0x334e3de2\n      eq\n      tag_6\n      jumpi\n      dup1\n      0x43999ac2\n      eq\n      tag_7\n      jumpi\n    tag_1:\n      0x00\n      dup1\n      revert\n        /* \"DePay.sol\":766:815  mapping(address => address[]) public loanGivenArr */\n    tag_2:\n      callvalue\n      dup1\n      iszero\n      tag_33\n      jumpi\n      0x00\n      dup1\n      revert\n    tag_33:\n      pop\n      tag_34\n      0x04\n      dup1\n      calldatasize\n      sub\n      dup2\n      add\n      swap1\n      tag_35\n      swap2\n      swap1\n      tag_36\n      jump\t// in\n    tag_35:\n      tag_37\n      jump\t// in\n    tag_34:\n      mload(0x40)\n      tag_38\n      swap2\n      swap1\n      tag_39\n      jump\t// in\n    tag_38:\n      mload(0x40)\n      dup1\n      swap2\n      sub\n      swap1\n      return\n        /* \"DePay.sol\":4715:4986  function rejectRequest(uint256 index) public {... */\n    tag_3:\n      callvalue\n      dup1\n      iszero\n      tag_40\n      jumpi\n      0x00\n      dup1\n      revert\n    tag_40:\n      pop\n      tag_41\n      0x04\n      dup1\n      calldatasize\n      sub\n      dup2\n      add\n      swap1\n      tag_42\n      swap2\n      swap1\n      tag_43\n      jump\t// in\n    tag_42:\n      tag_44\n      jump\t// in\n    tag_41:\n      stop\n        /* \"DePay.sol\":2150:2437  function withdraw(uint256 amount) public payable {... */\n    tag_4:\n      tag_45\n      0x04\n      dup1\n      calldatasize\n      sub\n      dup2\n      add\n      swap1\n      tag_46\n      swap2\n      swap1\n      tag_43\n      jump\t// in\n    tag_46:\n      tag_47\n      jump\t// in\n    tag_45:\n      stop\n        /* \"DePay.sol\":822:871  mapping(address => address[]) public loanTakenArr */\n    tag_5:\n      callvalue\n      dup1\n      iszero\n      tag_48\n      jumpi\n      0x00\n      dup1\n      revert\n    tag_48:\n      pop\n      tag_49\n      0x04\n      dup1\n      calldatasize\n      sub\n      dup2\n      add\n      swap1\n      tag_50\n      swap2\n      swap1\n      tag_36\n      jump\t// in\n    tag_50:\n      tag_51\n      jump\t// in\n    tag_49:\n      mload(0x40)\n      tag_52\n      swap2\n      swap1\n      tag_39\n      jump\t// in\n    tag_52:\n      mload(0x40)\n      dup1\n      swap2\n      sub\n      swap1\n      return\n        /* \"DePay.sol\":5573:5748  function numberOfPeopleWhoHaveGivenLoanToMe(address find)... */\n    tag_6:\n      callvalue\n      dup1\n      iszero\n      tag_53\n      jumpi\n      0x00\n      dup1\n      revert\n    tag_53:\n      pop\n      tag_54\n      0x04\n      dup1\n      calldatasize\n      sub\n      dup2\n      add\n      swap1\n      tag_55\n      swap2\n      swap1\n      tag_56\n      jump\t// in\n    tag_55:\n      tag_57\n      jump\t// in\n    tag_54:\n      mload(0x40)\n      tag_58\n      swap2\n      swap1\n      tag_59\n      jump\t// in\n    tag_58:\n      mload(0x40)\n      dup1\n      swap2\n      sub\n      swap1\n      return\n        /* \"DePay.sol\":5756:5843  function clearedMyDebt(address _to) public {... */\n    tag_7:\n      callvalue\n      dup1\n      iszero\n      tag_60\n      jumpi\n      0x00\n      dup1\n      revert\n    tag_60:\n      pop\n      tag_61\n      0x04\n      dup1\n      calldatasize\n      sub\n      dup2\n      add\n      swap1\n      tag_62\n      swap2\n      swap1\n      tag_56\n      jump\t// in\n    tag_62:\n      tag_63\n      jump\t// in\n    tag_61:\n      stop\n        /* \"DePay.sol\":660:704  mapping(address => address[]) public paidArr */\n    tag_8:\n      callvalue\n      dup1\n      iszero\n      tag_64\n      jumpi\n      0x00\n      dup1\n      revert\n    tag_64:\n      pop\n      tag_65\n      0x04\n      dup1\n      calldatasize\n      sub\n      dup2\n      add\n      swap1\n      tag_66\n      swap2\n      swap1\n      tag_36\n      jump\t// in\n    tag_66:\n      tag_67\n      jump\t// in\n    tag_65:\n      mload(0x40)\n      tag_68\n      swap2\n      swap1\n      tag_39\n      jump\t// in\n    tag_68:\n      mload(0x40)\n      dup1\n      swap2\n      sub\n      swap1\n      return\n        /* \"DePay.sol\":382:441  mapping(address => mapping(address => uint256)) public used */\n    tag_9:\n      callvalue\n      dup1\n      iszero\n      tag_69\n      jumpi\n      0x00\n      dup1\n      revert\n    tag_69:\n      pop\n      tag_70\n      0x04\n      dup1\n      calldatasize\n      sub\n      dup2\n      add\n      swap1\n      tag_71\n      swap2\n      swap1\n      tag_72\n      jump\t// in\n    tag_71:\n      tag_73\n      jump\t// in\n    tag_70:\n      mload(0x40)\n      tag_74\n      swap2\n      swap1\n      tag_59\n      jump\t// in\n    tag_74:\n      mload(0x40)\n      dup1\n      swap2\n      sub\n      swap1\n      return\n        /* \"DePay.sol\":878:935  mapping(address => uint256) public totalBalanceIHaveAdded */\n    tag_10:\n      callvalue\n      dup1\n      iszero\n      tag_75\n      jumpi\n      0x00\n      dup1\n      revert\n    tag_75:\n      pop\n      tag_76\n      0x04\n      dup1\n      calldatasize\n      sub\n      dup2\n      add\n      swap1\n      tag_77\n      swap2\n      swap1\n      tag_56\n      jump\t// in\n    tag_77:\n      tag_78\n      jump\t// in\n    tag_76:\n      mload(0x40)\n      tag_79\n      swap2\n      swap1\n      tag_59\n      jump\t// in\n    tag_79:\n      mload(0x40)\n      dup1\n      swap2\n      sub\n      swap1\n      return\n        /* \"DePay.sol\":518:579  mapping(address => mapping(address => uint256)) public paidTo */\n    tag_11:\n      callvalue\n      dup1\n      iszero\n      tag_80\n      jumpi\n      0x00\n      dup1\n      revert\n    tag_80:\n      pop\n      tag_81\n      0x04\n      dup1\n      calldatasize\n      sub\n      dup2\n      add\n      swap1\n      tag_82\n      swap2\n      swap1\n      tag_72\n      jump\t// in\n    tag_82:\n      tag_83\n      jump\t// in\n    tag_81:\n      mload(0x40)\n      tag_84\n      swap2\n      swap1\n      tag_59\n      jump\t// in\n    tag_84:\n      mload(0x40)\n      dup1\n      swap2\n      sub\n      swap1\n      return\n        /* \"DePay.sol\":3382:4063  function createRequest(... */\n    tag_12:\n      callvalue\n      dup1\n      iszero\n      tag_85\n      jumpi\n      0x00\n      dup1\n      revert\n    tag_85:\n      pop\n      tag_86\n      0x04\n      dup1\n      calldatasize\n      sub\n      dup2\n      add\n      swap1\n      tag_87\n      swap2\n      swap1\n      tag_88\n      jump\t// in\n    tag_87:\n      tag_89\n      jump\t// in\n    tag_86:\n      stop\n        /* \"DePay.sol\":4994:5114  function numberOfRequets(address find) external view returns (uint256) {... */\n    tag_13:\n      callvalue\n      dup1\n      iszero\n      tag_90\n      jumpi\n      0x00\n      dup1\n      revert\n    tag_90:\n      pop\n      tag_91\n      0x04\n      dup1\n      calldatasize\n      sub\n      dup2\n      add\n      swap1\n      tag_92\n      swap2\n      swap1\n      tag_56\n      jump\t// in\n    tag_92:\n      tag_93\n      jump\t// in\n    tag_91:\n      mload(0x40)\n      tag_94\n      swap2\n      swap1\n      tag_59\n      jump\t// in\n    tag_94:\n      mload(0x40)\n      dup1\n      swap2\n      sub\n      swap1\n      return\n        /* \"DePay.sol\":2962:3374  function takeBack(uint256 amount, address payable _to) public payable {... */\n    tag_14:\n      tag_95\n      0x04\n      dup1\n      calldatasize\n      sub\n      dup2\n      add\n      swap1\n      tag_96\n      swap2\n      swap1\n      tag_97\n      jump\t// in\n    tag_96:\n      tag_98\n      jump\t// in\n    tag_95:\n      stop\n        /* \"DePay.sol\":214:259  mapping(address => Request[]) public requests */\n    tag_15:\n      callvalue\n      dup1\n      iszero\n      tag_99\n      jumpi\n      0x00\n      dup1\n      revert\n    tag_99:\n      pop\n      tag_100\n      0x04\n      dup1\n      calldatasize\n      sub\n      dup2\n      add\n      swap1\n      tag_101\n      swap2\n      swap1\n      tag_36\n      jump\t// in\n    tag_101:\n      tag_102\n      jump\t// in\n    tag_100:\n      mload(0x40)\n      tag_103\n      swap5\n      swap4\n      swap3\n      swap2\n      swap1\n      tag_104\n      jump\t// in\n    tag_103:\n      mload(0x40)\n      dup1\n      swap2\n      sub\n      swap1\n      return\n        /* \"DePay.sol\":1137:1354  function addFund() public payable {... */\n    tag_16:\n      tag_105\n      tag_106\n      jump\t// in\n    tag_105:\n      stop\n        /* \"DePay.sol\":5253:5384  function numberOfPeopleWhoPaidMe(address find) external view returns (uint256) {... */\n    tag_17:\n      callvalue\n      dup1\n      iszero\n      tag_107\n      jumpi\n      0x00\n      dup1\n      revert\n    tag_107:\n      pop\n      tag_108\n      0x04\n      dup1\n      calldatasize\n      sub\n      dup2\n      add\n      swap1\n      tag_109\n      swap2\n      swap1\n      tag_56\n      jump\t// in\n    tag_109:\n      tag_110\n      jump\t// in\n    tag_108:\n      mload(0x40)\n      tag_111\n      swap2\n      swap1\n      tag_59\n      jump\t// in\n    tag_111:\n      mload(0x40)\n      dup1\n      swap2\n      sub\n      swap1\n      return\n        /* \"DePay.sol\":448:511  mapping(address => mapping(address => uint256)) public borrowed */\n    tag_18:\n      callvalue\n      dup1\n      iszero\n      tag_112\n      jumpi\n      0x00\n      dup1\n      revert\n    tag_112:\n      pop\n      tag_113\n      0x04\n      dup1\n      calldatasize\n      sub\n      dup2\n      add\n      swap1\n      tag_114\n      swap2\n      swap1\n      tag_72\n      jump\t// in\n    tag_114:\n      tag_115\n      jump\t// in\n    tag_113:\n      mload(0x40)\n      tag_116\n      swap2\n      swap1\n      tag_59\n      jump\t// in\n    tag_116:\n      mload(0x40)\n      dup1\n      swap2\n      sub\n      swap1\n      return\n        /* \"DePay.sol\":2445:2954  function lend(uint256 amount, address payable _to) public payable {... */\n    tag_19:\n      tag_117\n      0x04\n      dup1\n      calldatasize\n      sub\n      dup2\n      add\n      swap1\n      tag_118\n      swap2\n      swap1\n      tag_97\n      jump\t// in\n    tag_118:\n      tag_119\n      jump\t// in\n    tag_117:\n      stop\n        /* \"DePay.sol\":315:375  mapping(address => mapping(address => uint256)) public given */\n    tag_20:\n      callvalue\n      dup1\n      iszero\n      tag_120\n      jumpi\n      0x00\n      dup1\n      revert\n    tag_120:\n      pop\n      tag_121\n      0x04\n      dup1\n      calldatasize\n      sub\n      dup2\n      add\n      swap1\n      tag_122\n      swap2\n      swap1\n      tag_72\n      jump\t// in\n    tag_122:\n      tag_123\n      jump\t// in\n    tag_121:\n      mload(0x40)\n      tag_124\n      swap2\n      swap1\n      tag_59\n      jump\t// in\n    tag_124:\n      mload(0x40)\n      dup1\n      swap2\n      sub\n      swap1\n      return\n        /* \"DePay.sol\":1362:2142  function pay(... */\n    tag_21:\n      tag_125\n      0x04\n      dup1\n      calldatasize\n      sub\n      dup2\n      add\n      swap1\n      tag_126\n      swap2\n      swap1\n      tag_127\n      jump\t// in\n    tag_126:\n      tag_128\n      jump\t// in\n    tag_125:\n      stop\n        /* \"DePay.sol\":586:653  mapping(address => mapping(address => uint256)) public ReceivedFrom */\n    tag_22:\n      callvalue\n      dup1\n      iszero\n      tag_129\n      jumpi\n      0x00\n      dup1\n      revert\n    tag_129:\n      pop\n      tag_130\n      0x04\n      dup1\n      calldatasize\n      sub\n      dup2\n      add\n      swap1\n      tag_131\n      swap2\n      swap1\n      tag_72\n      jump\t// in\n    tag_131:\n      tag_132\n      jump\t// in\n    tag_130:\n      mload(0x40)\n      tag_133\n      swap2\n      swap1\n      tag_59\n      jump\t// in\n    tag_133:\n      mload(0x40)\n      dup1\n      swap2\n      sub\n      swap1\n      return\n        /* \"DePay.sol\":5122:5245  function numberOfPeopleIPaid(address find) external view returns (uint256) {... */\n    tag_23:\n      callvalue\n      dup1\n      iszero\n      tag_134\n      jumpi\n      0x00\n      dup1\n      revert\n    tag_134:\n      pop\n      tag_135\n      0x04\n      dup1\n      calldatasize\n      sub\n      dup2\n      add\n      swap1\n      tag_136\n      swap2\n      swap1\n      tag_56\n      jump\t// in\n    tag_136:\n      tag_137\n      jump\t// in\n    tag_135:\n      mload(0x40)\n      tag_138\n      swap2\n      swap1\n      tag_59\n      jump\t// in\n    tag_138:\n      mload(0x40)\n      dup1\n      swap2\n      sub\n      swap1\n      return\n        /* \"DePay.sol\":711:759  mapping(address => address[]) public receivedArr */\n    tag_24:\n      callvalue\n      dup1\n      iszero\n      tag_139\n      jumpi\n      0x00\n      dup1\n      revert\n    tag_139:\n      pop\n      tag_140\n      0x04\n      dup1\n      calldatasize\n      sub\n      dup2\n      add\n      swap1\n      tag_141\n      swap2\n      swap1\n      tag_36\n      jump\t// in\n    tag_141:\n      tag_142\n      jump\t// in\n    tag_140:\n      mload(0x40)\n      tag_143\n      swap2\n      swap1\n      tag_39\n      jump\t// in\n    tag_143:\n      mload(0x40)\n      dup1\n      swap2\n      sub\n      swap1\n      return\n        /* \"DePay.sol\":4071:4707  function approveRequest(uint256 index) public payable {... */\n    tag_25:\n      tag_144\n      0x04\n      dup1\n      calldatasize\n      sub\n      dup2\n      add\n      swap1\n      tag_145\n      swap2\n      swap1\n      tag_43\n      jump\t// in\n    tag_145:\n      tag_146\n      jump\t// in\n    tag_144:\n      stop\n        /* \"DePay.sol\":266:308  mapping(address => uint256) public balance */\n    tag_26:\n      callvalue\n      dup1\n      iszero\n      tag_147\n      jumpi\n      0x00\n      dup1\n      revert\n    tag_147:\n      pop\n      tag_148\n      0x04\n      dup1\n      calldatasize\n      sub\n      dup2\n      add\n      swap1\n      tag_149\n      swap2\n      swap1\n      tag_56\n      jump\t// in\n    tag_149:\n      tag_150\n      jump\t// in\n    tag_148:\n      mload(0x40)\n      tag_151\n      swap2\n      swap1\n      tag_59\n      jump\t// in\n    tag_151:\n      mload(0x40)\n      dup1\n      swap2\n      sub\n      swap1\n      return\n        /* \"DePay.sol\":5392:5565  function numberOfPeopleWhomIHaveGivenLoan(address find)... */\n    tag_27:\n      callvalue\n      dup1\n      iszero\n      tag_152\n      jumpi\n      0x00\n      dup1\n      revert\n    tag_152:\n      pop\n      tag_153\n      0x04\n      dup1\n      calldatasize\n      sub\n      dup2\n      add\n      swap1\n      tag_154\n      swap2\n      swap1\n      tag_56\n      jump\t// in\n    tag_154:\n      tag_155\n      jump\t// in\n    tag_153:\n      mload(0x40)\n      tag_156\n      swap2\n      swap1\n      tag_59\n      jump\t// in\n    tag_156:\n      mload(0x40)\n      dup1\n      swap2\n      sub\n      swap1\n      return\n        /* \"DePay.sol\":766:815  mapping(address => address[]) public loanGivenArr */\n    tag_37:\n      mstore(0x20, 0x09)\n      dup2\n      0x00\n      mstore\n      keccak256(0x00, 0x40)\n      dup2\n      dup2\n      sload\n      dup2\n      lt\n      tag_157\n      jumpi\n      0x00\n      dup1\n      revert\n    tag_157:\n      swap1\n      0x00\n      mstore\n      keccak256(0x00, 0x20)\n      add\n      0x00\n      swap2\n      pop\n      swap2\n      pop\n      swap1\n      sload\n      swap1\n      0x0100\n      exp\n      swap1\n      div\n      0xffffffffffffffffffffffffffffffffffffffff\n      and\n      dup2\n      jump\t// out\n        /* \"DePay.sol\":4715:4986  function rejectRequest(uint256 index) public {... */\n    tag_44:\n        /* \"DePay.sol\":4771:4794  Request storage request */\n      0x00\n        /* \"DePay.sol\":4797:4805  requests */\n      dup1\n        /* \"DePay.sol\":4797:4817  requests[msg.sender] */\n      0x00\n        /* \"DePay.sol\":4806:4816  msg.sender */\n      caller\n        /* \"DePay.sol\":4797:4817  requests[msg.sender] */\n      0xffffffffffffffffffffffffffffffffffffffff\n      and\n      0xffffffffffffffffffffffffffffffffffffffff\n      and\n      dup2\n      mstore\n      0x20\n      add\n      swap1\n      dup2\n      mstore\n      0x20\n      add\n      0x00\n      keccak256\n        /* \"DePay.sol\":4818:4823  index */\n      dup3\n        /* \"DePay.sol\":4797:4824  requests[msg.sender][index] */\n      dup2\n      sload\n      dup2\n      lt\n      tag_160\n      jumpi\n      tag_161\n      tag_162\n      jump\t// in\n    tag_161:\n    tag_160:\n      swap1\n      0x00\n      mstore\n      keccak256(0x00, 0x20)\n      swap1\n      0x03\n      mul\n      add\n        /* \"DePay.sol\":4771:4824  Request storage request = requests[msg.sender][index] */\n      swap1\n      pop\n        /* \"DePay.sol\":4877:4882  false */\n      0x00\n        /* \"DePay.sol\":4857:4882  request.complete == false */\n      iszero\n      iszero\n        /* \"DePay.sol\":4857:4864  request */\n      dup2\n        /* \"DePay.sol\":4857:4873  request.complete */\n      0x02\n      add\n      0x00\n      swap1\n      sload\n      swap1\n      0x0100\n      exp\n      swap1\n      div\n      0xff\n      and\n        /* \"DePay.sol\":4857:4882  request.complete == false */\n      iszero\n      iszero\n      eq\n        /* \"DePay.sol\":4835:4944  require(... */\n      tag_164\n      jumpi\n      mload(0x40)\n      0x08c379a000000000000000000000000000000000000000000000000000000000\n      dup2\n      mstore\n      0x04\n      add\n      tag_165\n      swap1\n      tag_166\n      jump\t// in\n    tag_165:\n      mload(0x40)\n      dup1\n      swap2\n      sub\n      swap1\n      revert\n    tag_164:\n        /* \"DePay.sol\":4974:4978  true */\n      0x01\n        /* \"DePay.sol\":4955:4962  request */\n      dup2\n        /* \"DePay.sol\":4955:4971  request.complete */\n      0x02\n      add\n      0x00\n        /* \"DePay.sol\":4955:4978  request.complete = true */\n      0x0100\n      exp\n      dup2\n      sload\n      dup2\n      0xff\n      mul\n      not\n      and\n      swap1\n      dup4\n      iszero\n      iszero\n      mul\n      or\n      swap1\n      sstore\n      pop\n        /* \"DePay.sol\":4760:4986  {... */\n      pop\n        /* \"DePay.sol\":4715:4986  function rejectRequest(uint256 index) public {... */\n      pop\n      jump\t// out\n        /* \"DePay.sol\":2150:2437  function withdraw(uint256 amount) public payable {... */\n    tag_47:\n        /* \"DePay.sol\":2227:2234  balance */\n      0x01\n        /* \"DePay.sol\":2227:2246  balance[msg.sender] */\n      0x00\n        /* \"DePay.sol\":2235:2245  msg.sender */\n      caller\n        /* \"DePay.sol\":2227:2246  balance[msg.sender] */\n      0xffffffffffffffffffffffffffffffffffffffff\n      and\n      0xffffffffffffffffffffffffffffffffffffffff\n      and\n      dup2\n      mstore\n      0x20\n      add\n      swap1\n      dup2\n      mstore\n      0x20\n      add\n      0x00\n      keccak256\n      sload\n        /* \"DePay.sol\":2218:2224  amount */\n      dup2\n        /* \"DePay.sol\":2218:2246  amount < balance[msg.sender] */\n      lt\n        /* \"DePay.sol\":2210:2269  require(amount < balance[msg.sender], \"Insufficient funds\") */\n      tag_168\n      jumpi\n      mload(0x40)\n      0x08c379a000000000000000000000000000000000000000000000000000000000\n      dup2\n      mstore\n      0x04\n      add\n      tag_169\n      swap1\n      tag_170\n      jump\t// in\n    tag_169:\n      mload(0x40)\n      dup1\n      swap2\n      sub\n      swap1\n      revert\n    tag_168:\n        /* \"DePay.sol\":2297:2298  0 */\n      0x00\n        /* \"DePay.sol\":2288:2294  amount */\n      dup2\n        /* \"DePay.sol\":2288:2298  amount > 0 */\n      gt\n        /* \"DePay.sol\":2280:2340  require(amount > 0, \"transaction with 0 eth is not allowed\") */\n      tag_171\n      jumpi\n      mload(0x40)\n      0x08c379a000000000000000000000000000000000000000000000000000000000\n      dup2\n      mstore\n      0x04\n      add\n      tag_172\n      swap1\n      tag_173\n      jump\t// in\n    tag_172:\n      mload(0x40)\n      dup1\n      swap2\n      sub\n      swap1\n      revert\n    tag_171:\n        /* \"DePay.sol\":2360:2370  msg.sender */\n      caller\n        /* \"DePay.sol\":2351:2381  (payable(msg.sender)).transfer */\n      0xffffffffffffffffffffffffffffffffffffffff\n      and\n        /* \"DePay.sol\":2351:2389  (payable(msg.sender)).transfer(amount) */\n      0x08fc\n        /* \"DePay.sol\":2382:2388  amount */\n      dup3\n        /* \"DePay.sol\":2351:2389  (payable(msg.sender)).transfer(amount) */\n      swap1\n      dup2\n      iszero\n      mul\n      swap1\n      mload(0x40)\n      0x00\n      mload(0x40)\n      dup1\n      dup4\n      sub\n      dup2\n      dup6\n      dup9\n      dup9\n      call\n      swap4\n      pop\n      pop\n      pop\n      pop\n      iszero\n      dup1\n      iszero\n      tag_175\n      jumpi\n      returndatasize\n      0x00\n      dup1\n      returndatacopy\n      revert(0x00, returndatasize)\n    tag_175:\n      pop\n        /* \"DePay.sol\":2423:2429  amount */\n      dup1\n        /* \"DePay.sol\":2400:2407  balance */\n      0x01\n        /* \"DePay.sol\":2400:2419  balance[msg.sender] */\n      0x00\n        /* \"DePay.sol\":2408:2418  msg.sender */\n      caller\n        /* \"DePay.sol\":2400:2419  balance[msg.sender] */\n      0xffffffffffffffffffffffffffffffffffffffff\n      and\n      0xffffffffffffffffffffffffffffffffffffffff\n      and\n      dup2\n      mstore\n      0x20\n      add\n      swap1\n      dup2\n      mstore\n      0x20\n      add\n      0x00\n      keccak256\n      0x00\n        /* \"DePay.sol\":2400:2429  balance[msg.sender] -= amount */\n      dup3\n      dup3\n      sload\n      tag_176\n      swap2\n      swap1\n      tag_177\n      jump\t// in\n    tag_176:\n      swap3\n      pop\n      pop\n      dup2\n      swap1\n      sstore\n      pop\n        /* \"DePay.sol\":2150:2437  function withdraw(uint256 amount) public payable {... */\n      pop\n      jump\t// out\n        /* \"DePay.sol\":822:871  mapping(address => address[]) public loanTakenArr */\n    tag_51:\n      mstore(0x20, 0x0a)\n      dup2\n      0x00\n      mstore\n      keccak256(0x00, 0x40)\n      dup2\n      dup2\n      sload\n      dup2\n      lt\n      tag_178\n      jumpi\n      0x00\n      dup1\n      revert\n    tag_178:\n      swap1\n      0x00\n      mstore\n      keccak256(0x00, 0x20)\n      add\n      0x00\n      swap2\n      pop\n      swap2\n      pop\n      swap1\n      sload\n      swap1\n      0x0100\n      exp\n      swap1\n      div\n      0xffffffffffffffffffffffffffffffffffffffff\n      and\n      dup2\n      jump\t// out\n        /* \"DePay.sol\":5573:5748  function numberOfPeopleWhoHaveGivenLoanToMe(address find)... */\n    tag_57:\n        /* \"DePay.sol\":5681:5688  uint256 */\n      0x00\n        /* \"DePay.sol\":5714:5726  loanTakenArr */\n      0x0a\n        /* \"DePay.sol\":5714:5732  loanTakenArr[find] */\n      0x00\n        /* \"DePay.sol\":5727:5731  find */\n      dup4\n        /* \"DePay.sol\":5714:5732  loanTakenArr[find] */\n      0xffffffffffffffffffffffffffffffffffffffff\n      and\n      0xffffffffffffffffffffffffffffffffffffffff\n      and\n      dup2\n      mstore\n      0x20\n      add\n      swap1\n      dup2\n      mstore\n      0x20\n      add\n      0x00\n      keccak256\n        /* \"DePay.sol\":5714:5739  loanTakenArr[find].length */\n      dup1\n      sload\n      swap1\n      pop\n        /* \"DePay.sol\":5706:5740  return (loanTakenArr[find].length) */\n      swap1\n      pop\n        /* \"DePay.sol\":5573:5748  function numberOfPeopleWhoHaveGivenLoanToMe(address find)... */\n      swap2\n      swap1\n      pop\n      jump\t// out\n        /* \"DePay.sol\":5756:5843  function clearedMyDebt(address _to) public {... */\n    tag_63:\n        /* \"DePay.sol\":5834:5835  0 */\n      0x00\n        /* \"DePay.sol\":5810:5814  used */\n      0x03\n        /* \"DePay.sol\":5810:5826  used[msg.sender] */\n      0x00\n        /* \"DePay.sol\":5815:5825  msg.sender */\n      caller\n        /* \"DePay.sol\":5810:5826  used[msg.sender] */\n      0xffffffffffffffffffffffffffffffffffffffff\n      and\n      0xffffffffffffffffffffffffffffffffffffffff\n      and\n      dup2\n      mstore\n      0x20\n      add\n      swap1\n      dup2\n      mstore\n      0x20\n      add\n      0x00\n      keccak256\n        /* \"DePay.sol\":5810:5831  used[msg.sender][_to] */\n      0x00\n        /* \"DePay.sol\":5827:5830  _to */\n      dup4\n        /* \"DePay.sol\":5810:5831  used[msg.sender][_to] */\n      0xffffffffffffffffffffffffffffffffffffffff\n      and\n      0xffffffffffffffffffffffffffffffffffffffff\n      and\n      dup2\n      mstore\n      0x20\n      add\n      swap1\n      dup2\n      mstore\n      0x20\n      add\n      0x00\n      keccak256\n        /* \"DePay.sol\":5810:5835  used[msg.sender][_to] = 0 */\n      dup2\n      swap1\n      sstore\n      pop\n        /* \"DePay.sol\":5756:5843  function clearedMyDebt(address _to) public {... */\n      pop\n      jump\t// out\n        /* \"DePay.sol\":660:704  mapping(address => address[]) public paidArr */\n    tag_67:\n      mstore(0x20, 0x07)\n      dup2\n      0x00\n      mstore\n      keccak256(0x00, 0x40)\n      dup2\n      dup2\n      sload\n      dup2\n      lt\n      tag_182\n      jumpi\n      0x00\n      dup1\n      revert\n    tag_182:\n      swap1\n      0x00\n      mstore\n      keccak256(0x00, 0x20)\n      add\n      0x00\n      swap2\n      pop\n      swap2\n      pop\n      swap1\n      sload\n      swap1\n      0x0100\n      exp\n      swap1\n      div\n      0xffffffffffffffffffffffffffffffffffffffff\n      and\n      dup2\n      jump\t// out\n        /* \"DePay.sol\":382:441  mapping(address => mapping(address => uint256)) public used */\n    tag_73:\n      mstore(0x20, 0x03)\n      dup2\n      0x00\n      mstore\n      mstore(0x20, keccak256(0x00, 0x40))\n      dup1\n      0x00\n      mstore\n      keccak256(0x00, 0x40)\n      0x00\n      swap2\n      pop\n      swap2\n      pop\n      pop\n      sload\n      dup2\n      jump\t// out\n        /* \"DePay.sol\":878:935  mapping(address => uint256) public totalBalanceIHaveAdded */\n    tag_78:\n      mstore(0x20, 0x0b)\n      dup1\n      0x00\n      mstore\n      keccak256(0x00, 0x40)\n      0x00\n      swap2\n      pop\n      swap1\n      pop\n      sload\n      dup2\n      jump\t// out\n        /* \"DePay.sol\":518:579  mapping(address => mapping(address => uint256)) public paidTo */\n    tag_83:\n      mstore(0x20, 0x05)\n      dup2\n      0x00\n      mstore\n      mstore(0x20, keccak256(0x00, 0x40))\n      dup1\n      0x00\n      mstore\n      keccak256(0x00, 0x40)\n      0x00\n      swap2\n      pop\n      swap2\n      pop\n      pop\n      sload\n      dup2\n      jump\t// out\n        /* \"DePay.sol\":3382:4063  function createRequest(... */\n    tag_89:\n        /* \"DePay.sol\":3583:3584  0 */\n      0x00\n        /* \"DePay.sol\":3559:3563  used */\n      0x03\n        /* \"DePay.sol\":3559:3575  used[msg.sender] */\n      0x00\n        /* \"DePay.sol\":3564:3574  msg.sender */\n      caller\n        /* \"DePay.sol\":3559:3575  used[msg.sender] */\n      0xffffffffffffffffffffffffffffffffffffffff\n      and\n      0xffffffffffffffffffffffffffffffffffffffff\n      and\n      dup2\n      mstore\n      0x20\n      add\n      swap1\n      dup2\n      mstore\n      0x20\n      add\n      0x00\n      keccak256\n        /* \"DePay.sol\":3559:3580  used[msg.sender][_to] */\n      0x00\n        /* \"DePay.sol\":3576:3579  _to */\n      dup4\n        /* \"DePay.sol\":3559:3580  used[msg.sender][_to] */\n      0xffffffffffffffffffffffffffffffffffffffff\n      and\n      0xffffffffffffffffffffffffffffffffffffffff\n      and\n      dup2\n      mstore\n      0x20\n      add\n      swap1\n      dup2\n      mstore\n      0x20\n      add\n      0x00\n      keccak256\n      sload\n        /* \"DePay.sol\":3534:3539  given */\n      0x02\n        /* \"DePay.sol\":3534:3544  given[_to] */\n      0x00\n        /* \"DePay.sol\":3540:3543  _to */\n      dup5\n        /* \"DePay.sol\":3534:3544  given[_to] */\n      0xffffffffffffffffffffffffffffffffffffffff\n      and\n      0xffffffffffffffffffffffffffffffffffffffff\n      and\n      dup2\n      mstore\n      0x20\n      add\n      swap1\n      dup2\n      mstore\n      0x20\n      add\n      0x00\n      keccak256\n        /* \"DePay.sol\":3534:3556  given[_to][msg.sender] */\n      0x00\n        /* \"DePay.sol\":3545:3555  msg.sender */\n      caller\n        /* \"DePay.sol\":3534:3556  given[_to][msg.sender] */\n      0xffffffffffffffffffffffffffffffffffffffff\n      and\n      0xffffffffffffffffffffffffffffffffffffffff\n      and\n      dup2\n      mstore\n      0x20\n      add\n      swap1\n      dup2\n      mstore\n      0x20\n      add\n      0x00\n      keccak256\n      sload\n        /* \"DePay.sol\":3534:3580  given[_to][msg.sender] - used[msg.sender][_to] */\n      tag_185\n      swap2\n      swap1\n      tag_177\n      jump\t// in\n    tag_185:\n        /* \"DePay.sol\":3534:3584  given[_to][msg.sender] - used[msg.sender][_to] > 0 */\n      gt\n        /* \"DePay.sol\":3512:3660  require(... */\n      tag_186\n      jumpi\n      mload(0x40)\n      0x08c379a000000000000000000000000000000000000000000000000000000000\n      dup2\n      mstore\n      0x04\n      add\n      tag_187\n      swap1\n      tag_188\n      jump\t// in\n    tag_187:\n      mload(0x40)\n      dup1\n      swap2\n      sub\n      swap1\n      revert\n    tag_186:\n        /* \"DePay.sol\":3743:3748  value */\n      dup2\n        /* \"DePay.sol\":3718:3722  used */\n      0x03\n        /* \"DePay.sol\":3718:3734  used[msg.sender] */\n      0x00\n        /* \"DePay.sol\":3723:3733  msg.sender */\n      caller\n        /* \"DePay.sol\":3718:3734  used[msg.sender] */\n      0xffffffffffffffffffffffffffffffffffffffff\n      and\n      0xffffffffffffffffffffffffffffffffffffffff\n      and\n      dup2\n      mstore\n      0x20\n      add\n      swap1\n      dup2\n      mstore\n      0x20\n      add\n      0x00\n      keccak256\n        /* \"DePay.sol\":3718:3739  used[msg.sender][_to] */\n      0x00\n        /* \"DePay.sol\":3735:3738  _to */\n      dup4\n        /* \"DePay.sol\":3718:3739  used[msg.sender][_to] */\n      0xffffffffffffffffffffffffffffffffffffffff\n      and\n      0xffffffffffffffffffffffffffffffffffffffff\n      and\n      dup2\n      mstore\n      0x20\n      add\n      swap1\n      dup2\n      mstore\n      0x20\n      add\n      0x00\n      keccak256\n      sload\n        /* \"DePay.sol\":3693:3698  given */\n      0x02\n        /* \"DePay.sol\":3693:3703  given[_to] */\n      0x00\n        /* \"DePay.sol\":3699:3702  _to */\n      dup5\n        /* \"DePay.sol\":3693:3703  given[_to] */\n      0xffffffffffffffffffffffffffffffffffffffff\n      and\n      0xffffffffffffffffffffffffffffffffffffffff\n      and\n      dup2\n      mstore\n      0x20\n      add\n      swap1\n      dup2\n      mstore\n      0x20\n      add\n      0x00\n      keccak256\n        /* \"DePay.sol\":3693:3715  given[_to][msg.sender] */\n      0x00\n        /* \"DePay.sol\":3704:3714  msg.sender */\n      caller\n        /* \"DePay.sol\":3693:3715  given[_to][msg.sender] */\n      0xffffffffffffffffffffffffffffffffffffffff\n      and\n      0xffffffffffffffffffffffffffffffffffffffff\n      and\n      dup2\n      mstore\n      0x20\n      add\n      swap1\n      dup2\n      mstore\n      0x20\n      add\n      0x00\n      keccak256\n      sload\n        /* \"DePay.sol\":3693:3739  given[_to][msg.sender] - used[msg.sender][_to] */\n      tag_189\n      swap2\n      swap1\n      tag_177\n      jump\t// in\n    tag_189:\n        /* \"DePay.sol\":3693:3748  given[_to][msg.sender] - used[msg.sender][_to] >= value */\n      lt\n      iszero\n        /* \"DePay.sol\":3671:3836  require(... */\n      tag_190\n      jumpi\n      mload(0x40)\n      0x08c379a000000000000000000000000000000000000000000000000000000000\n      dup2\n      mstore\n      0x04\n      add\n      tag_191\n      swap1\n      tag_192\n      jump\t// in\n    tag_191:\n      mload(0x40)\n      dup1\n      swap2\n      sub\n      swap1\n      revert\n    tag_190:\n        /* \"DePay.sol\":3847:3873  Request storage newRequest */\n      0x00\n        /* \"DePay.sol\":3876:3884  requests */\n      dup1\n        /* \"DePay.sol\":3876:3889  requests[_to] */\n      0x00\n        /* \"DePay.sol\":3885:3888  _to */\n      dup4\n        /* \"DePay.sol\":3876:3889  requests[_to] */\n      0xffffffffffffffffffffffffffffffffffffffff\n      and\n      0xffffffffffffffffffffffffffffffffffffffff\n      and\n      dup2\n      mstore\n      0x20\n      add\n      swap1\n      dup2\n      mstore\n      0x20\n      add\n      0x00\n      keccak256\n        /* \"DePay.sol\":3876:3896  requests[_to].push() */\n      0x01\n      dup2\n      0x01\n      dup2\n      sload\n      add\n      dup1\n      dup3\n      sstore\n      dup1\n      swap2\n      pop\n      pop\n      sub\n      swap1\n      0x00\n      mstore\n      keccak256(0x00, 0x20)\n      swap1\n      0x03\n      mul\n      add\n        /* \"DePay.sol\":3847:3896  Request storage newRequest = requests[_to].push() */\n      swap1\n      pop\n        /* \"DePay.sol\":3932:3943  description */\n      dup4\n        /* \"DePay.sol\":3907:3917  newRequest */\n      dup2\n        /* \"DePay.sol\":3907:3929  newRequest.description */\n      0x00\n      add\n        /* \"DePay.sol\":3907:3943  newRequest.description = description */\n      swap1\n      dup2\n      tag_194\n      swap2\n      swap1\n      tag_195\n      jump\t// in\n    tag_194:\n      pop\n        /* \"DePay.sol\":3973:3978  value */\n      dup3\n        /* \"DePay.sol\":3954:3964  newRequest */\n      dup2\n        /* \"DePay.sol\":3954:3970  newRequest.value */\n      0x01\n      add\n        /* \"DePay.sol\":3954:3978  newRequest.value = value */\n      dup2\n      swap1\n      sstore\n      pop\n        /* \"DePay.sol\":4011:4016  false */\n      0x00\n        /* \"DePay.sol\":3989:3999  newRequest */\n      dup2\n        /* \"DePay.sol\":3989:4008  newRequest.complete */\n      0x02\n      add\n      0x00\n        /* \"DePay.sol\":3989:4016  newRequest.complete = false */\n      0x0100\n      exp\n      dup2\n      sload\n      dup2\n      0xff\n      mul\n      not\n      and\n      swap1\n      dup4\n      iszero\n      iszero\n      mul\n      or\n      swap1\n      sstore\n      pop\n        /* \"DePay.sol\":4045:4055  msg.sender */\n      caller\n        /* \"DePay.sol\":4027:4037  newRequest */\n      dup2\n        /* \"DePay.sol\":4027:4042  newRequest.from */\n      0x02\n      add\n      0x01\n        /* \"DePay.sol\":4027:4055  newRequest.from = msg.sender */\n      0x0100\n      exp\n      dup2\n      sload\n      dup2\n      0xffffffffffffffffffffffffffffffffffffffff\n      mul\n      not\n      and\n      swap1\n      dup4\n      0xffffffffffffffffffffffffffffffffffffffff\n      and\n      mul\n      or\n      swap1\n      sstore\n      pop\n        /* \"DePay.sol\":3501:4063  {... */\n      pop\n        /* \"DePay.sol\":3382:4063  function createRequest(... */\n      pop\n      pop\n      pop\n      jump\t// out\n        /* \"DePay.sol\":4994:5114  function numberOfRequets(address find) external view returns (uint256) {... */\n    tag_93:\n        /* \"DePay.sol\":5056:5063  uint256 */\n      0x00\n        /* \"DePay.sol\":5084:5092  requests */\n      dup1\n        /* \"DePay.sol\":5084:5098  requests[find] */\n      0x00\n        /* \"DePay.sol\":5093:5097  find */\n      dup4\n        /* \"DePay.sol\":5084:5098  requests[find] */\n      0xffffffffffffffffffffffffffffffffffffffff\n      and\n      0xffffffffffffffffffffffffffffffffffffffff\n      and\n      dup2\n      mstore\n      0x20\n      add\n      swap1\n      dup2\n      mstore\n      0x20\n      add\n      0x00\n      keccak256\n        /* \"DePay.sol\":5084:5105  requests[find].length */\n      dup1\n      sload\n      swap1\n      pop\n        /* \"DePay.sol\":5076:5106  return (requests[find].length) */\n      swap1\n      pop\n        /* \"DePay.sol\":4994:5114  function numberOfRequets(address find) external view returns (uint256) {... */\n      swap2\n      swap1\n      pop\n      jump\t// out\n        /* \"DePay.sol\":2962:3374  function takeBack(uint256 amount, address payable _to) public payable {... */\n    tag_98:\n        /* \"DePay.sol\":3115:3121  amount */\n      dup2\n        /* \"DePay.sol\":3090:3094  used */\n      0x03\n        /* \"DePay.sol\":3090:3106  used[msg.sender] */\n      0x00\n        /* \"DePay.sol\":3095:3105  msg.sender */\n      caller\n        /* \"DePay.sol\":3090:3106  used[msg.sender] */\n      0xffffffffffffffffffffffffffffffffffffffff\n      and\n      0xffffffffffffffffffffffffffffffffffffffff\n      and\n      dup2\n      mstore\n      0x20\n      add\n      swap1\n      dup2\n      mstore\n      0x20\n      add\n      0x00\n      keccak256\n        /* \"DePay.sol\":3090:3111  used[msg.sender][_to] */\n      0x00\n        /* \"DePay.sol\":3107:3110  _to */\n      dup4\n        /* \"DePay.sol\":3090:3111  used[msg.sender][_to] */\n      0xffffffffffffffffffffffffffffffffffffffff\n      and\n      0xffffffffffffffffffffffffffffffffffffffff\n      and\n      dup2\n      mstore\n      0x20\n      add\n      swap1\n      dup2\n      mstore\n      0x20\n      add\n      0x00\n      keccak256\n      sload\n        /* \"DePay.sol\":3065:3070  given */\n      0x02\n        /* \"DePay.sol\":3065:3082  given[msg.sender] */\n      0x00\n        /* \"DePay.sol\":3071:3081  msg.sender */\n      caller\n        /* \"DePay.sol\":3065:3082  given[msg.sender] */\n      0xffffffffffffffffffffffffffffffffffffffff\n      and\n      0xffffffffffffffffffffffffffffffffffffffff\n      and\n      dup2\n      mstore\n      0x20\n      add\n      swap1\n      dup2\n      mstore\n      0x20\n      add\n      0x00\n      keccak256\n        /* \"DePay.sol\":3065:3087  given[msg.sender][_to] */\n      0x00\n        /* \"DePay.sol\":3083:3086  _to */\n      dup5\n        /* \"DePay.sol\":3065:3087  given[msg.sender][_to] */\n      0xffffffffffffffffffffffffffffffffffffffff\n      and\n      0xffffffffffffffffffffffffffffffffffffffff\n      and\n      dup2\n      mstore\n      0x20\n      add\n      swap1\n      dup2\n      mstore\n      0x20\n      add\n      0x00\n      keccak256\n      sload\n        /* \"DePay.sol\":3065:3111  given[msg.sender][_to] - used[msg.sender][_to] */\n      tag_198\n      swap2\n      swap1\n      tag_177\n      jump\t// in\n    tag_198:\n        /* \"DePay.sol\":3065:3121  given[msg.sender][_to] - used[msg.sender][_to] >= amount */\n      lt\n      iszero\n        /* \"DePay.sol\":3043:3188  require(... */\n      tag_199\n      jumpi\n      mload(0x40)\n      0x08c379a000000000000000000000000000000000000000000000000000000000\n      dup2\n      mstore\n      0x04\n      add\n      tag_200\n      swap1\n      tag_201\n      jump\t// in\n    tag_200:\n      mload(0x40)\n      dup1\n      swap2\n      sub\n      swap1\n      revert\n    tag_199:\n        /* \"DePay.sol\":3222:3228  amount */\n      dup2\n        /* \"DePay.sol\":3199:3206  balance */\n      0x01\n        /* \"DePay.sol\":3199:3218  balance[msg.sender] */\n      0x00\n        /* \"DePay.sol\":3207:3217  msg.sender */\n      caller\n        /* \"DePay.sol\":3199:3218  balance[msg.sender] */\n      0xffffffffffffffffffffffffffffffffffffffff\n      and\n      0xffffffffffffffffffffffffffffffffffffffff\n      and\n      dup2\n      mstore\n      0x20\n      add\n      swap1\n      dup2\n      mstore\n      0x20\n      add\n      0x00\n      keccak256\n      0x00\n        /* \"DePay.sol\":3199:3228  balance[msg.sender] += amount */\n      dup3\n      dup3\n      sload\n      tag_202\n      swap2\n      swap1\n      tag_203\n      jump\t// in\n    tag_202:\n      swap3\n      pop\n      pop\n      dup2\n      swap1\n      sstore\n      pop\n        /* \"DePay.sol\":3265:3271  amount */\n      dup2\n        /* \"DePay.sol\":3239:3244  given */\n      0x02\n        /* \"DePay.sol\":3239:3256  given[msg.sender] */\n      0x00\n        /* \"DePay.sol\":3245:3255  msg.sender */\n      caller\n        /* \"DePay.sol\":3239:3256  given[msg.sender] */\n      0xffffffffffffffffffffffffffffffffffffffff\n      and\n      0xffffffffffffffffffffffffffffffffffffffff\n      and\n      dup2\n      mstore\n      0x20\n      add\n      swap1\n      dup2\n      mstore\n      0x20\n      add\n      0x00\n      keccak256\n        /* \"DePay.sol\":3239:3261  given[msg.sender][_to] */\n      0x00\n        /* \"DePay.sol\":3257:3260  _to */\n      dup4\n        /* \"DePay.sol\":3239:3261  given[msg.sender][_to] */\n      0xffffffffffffffffffffffffffffffffffffffff\n      and\n      0xffffffffffffffffffffffffffffffffffffffff\n      and\n      dup2\n      mstore\n      0x20\n      add\n      swap1\n      dup2\n      mstore\n      0x20\n      add\n      0x00\n      keccak256\n      0x00\n        /* \"DePay.sol\":3239:3271  given[msg.sender][_to] -= amount */\n      dup3\n      dup3\n      sload\n      tag_204\n      swap2\n      swap1\n      tag_177\n      jump\t// in\n    tag_204:\n      swap3\n      pop\n      pop\n      dup2\n      swap1\n      sstore\n      pop\n        /* \"DePay.sol\":3311:3317  amount */\n      dup2\n        /* \"DePay.sol\":3282:3290  borrowed */\n      0x04\n        /* \"DePay.sol\":3282:3295  borrowed[_to] */\n      0x00\n        /* \"DePay.sol\":3291:3294  _to */\n      dup4\n        /* \"DePay.sol\":3282:3295  borrowed[_to] */\n      0xffffffffffffffffffffffffffffffffffffffff\n      and\n      0xffffffffffffffffffffffffffffffffffffffff\n      and\n      dup2\n      mstore\n      0x20\n      add\n      swap1\n      dup2\n      mstore\n      0x20\n      add\n      0x00\n      keccak256\n        /* \"DePay.sol\":3282:3307  borrowed[_to][msg.sender] */\n      0x00\n        /* \"DePay.sol\":3296:3306  msg.sender */\n      caller\n        /* \"DePay.sol\":3282:3307  borrowed[_to][msg.sender] */\n      0xffffffffffffffffffffffffffffffffffffffff\n      and\n      0xffffffffffffffffffffffffffffffffffffffff\n      and\n      dup2\n      mstore\n      0x20\n      add\n      swap1\n      dup2\n      mstore\n      0x20\n      add\n      0x00\n      keccak256\n      0x00\n        /* \"DePay.sol\":3282:3317  borrowed[_to][msg.sender] -= amount */\n      dup3\n      dup3\n      sload\n      tag_205\n      swap2\n      swap1\n      tag_177\n      jump\t// in\n    tag_205:\n      swap3\n      pop\n      pop\n      dup2\n      swap1\n      sstore\n      pop\n        /* \"DePay.sol\":3337:3347  msg.sender */\n      caller\n        /* \"DePay.sol\":3328:3358  (payable(msg.sender)).transfer */\n      0xffffffffffffffffffffffffffffffffffffffff\n      and\n        /* \"DePay.sol\":3328:3366  (payable(msg.sender)).transfer(amount) */\n      0x08fc\n        /* \"DePay.sol\":3359:3365  amount */\n      dup4\n        /* \"DePay.sol\":3328:3366  (payable(msg.sender)).transfer(amount) */\n      swap1\n      dup2\n      iszero\n      mul\n      swap1\n      mload(0x40)\n      0x00\n      mload(0x40)\n      dup1\n      dup4\n      sub\n      dup2\n      dup6\n      dup9\n      dup9\n      call\n      swap4\n      pop\n      pop\n      pop\n      pop\n      iszero\n      dup1\n      iszero\n      tag_207\n      jumpi\n      returndatasize\n      0x00\n      dup1\n      returndatacopy\n      revert(0x00, returndatasize)\n    tag_207:\n      pop\n        /* \"DePay.sol\":2962:3374  function takeBack(uint256 amount, address payable _to) public payable {... */\n      pop\n      pop\n      jump\t// out\n        /* \"DePay.sol\":214:259  mapping(address => Request[]) public requests */\n    tag_102:\n      mstore(0x20, 0x00)\n      dup2\n      0x00\n      mstore\n      keccak256(0x00, 0x40)\n      dup2\n      dup2\n      sload\n      dup2\n      lt\n      tag_208\n      jumpi\n      0x00\n      dup1\n      revert\n    tag_208:\n      swap1\n      0x00\n      mstore\n      keccak256(0x00, 0x20)\n      swap1\n      0x03\n      mul\n      add\n      0x00\n      swap2\n      pop\n      swap2\n      pop\n      pop\n      dup1\n      0x00\n      add\n      dup1\n      sload\n      tag_210\n      swap1\n      tag_211\n      jump\t// in\n    tag_210:\n      dup1\n      0x1f\n      add\n      0x20\n      dup1\n      swap2\n      div\n      mul\n      0x20\n      add\n      mload(0x40)\n      swap1\n      dup2\n      add\n      0x40\n      mstore\n      dup1\n      swap3\n      swap2\n      swap1\n      dup2\n      dup2\n      mstore\n      0x20\n      add\n      dup3\n      dup1\n      sload\n      tag_212\n      swap1\n      tag_211\n      jump\t// in\n    tag_212:\n      dup1\n      iszero\n      tag_213\n      jumpi\n      dup1\n      0x1f\n      lt\n      tag_214\n      jumpi\n      0x0100\n      dup1\n      dup4\n      sload\n      div\n      mul\n      dup4\n      mstore\n      swap2\n      0x20\n      add\n      swap2\n      jump(tag_213)\n    tag_214:\n      dup3\n      add\n      swap2\n      swap1\n      0x00\n      mstore\n      keccak256(0x00, 0x20)\n      swap1\n    tag_215:\n      dup2\n      sload\n      dup2\n      mstore\n      swap1\n      0x01\n      add\n      swap1\n      0x20\n      add\n      dup1\n      dup4\n      gt\n      tag_215\n      jumpi\n      dup3\n      swap1\n      sub\n      0x1f\n      and\n      dup3\n      add\n      swap2\n    tag_213:\n      pop\n      pop\n      pop\n      pop\n      pop\n      swap1\n      dup1\n      0x01\n      add\n      sload\n      swap1\n      dup1\n      0x02\n      add\n      0x00\n      swap1\n      sload\n      swap1\n      0x0100\n      exp\n      swap1\n      div\n      0xff\n      and\n      swap1\n      dup1\n      0x02\n      add\n      0x01\n      swap1\n      sload\n      swap1\n      0x0100\n      exp\n      swap1\n      div\n      0xffffffffffffffffffffffffffffffffffffffff\n      and\n      swap1\n      pop\n      dup5\n      jump\t// out\n        /* \"DePay.sol\":1137:1354  function addFund() public payable {... */\n    tag_106:\n        /* \"DePay.sol\":1202:1203  0 */\n      0x00\n        /* \"DePay.sol\":1190:1199  msg.value */\n      callvalue\n        /* \"DePay.sol\":1190:1203  msg.value > 0 */\n      gt\n        /* \"DePay.sol\":1182:1245  require(msg.value > 0, \"transaction with 0 eth is not allowed\") */\n      tag_217\n      jumpi\n      mload(0x40)\n      0x08c379a000000000000000000000000000000000000000000000000000000000\n      dup2\n      mstore\n      0x04\n      add\n      tag_218\n      swap1\n      tag_173\n      jump\t// in\n    tag_218:\n      mload(0x40)\n      dup1\n      swap2\n      sub\n      swap1\n      revert\n    tag_217:\n        /* \"DePay.sol\":1279:1288  msg.value */\n      callvalue\n        /* \"DePay.sol\":1256:1263  balance */\n      0x01\n        /* \"DePay.sol\":1256:1275  balance[msg.sender] */\n      0x00\n        /* \"DePay.sol\":1264:1274  msg.sender */\n      caller\n        /* \"DePay.sol\":1256:1275  balance[msg.sender] */\n      0xffffffffffffffffffffffffffffffffffffffff\n      and\n      0xffffffffffffffffffffffffffffffffffffffff\n      and\n      dup2\n      mstore\n      0x20\n      add\n      swap1\n      dup2\n      mstore\n      0x20\n      add\n      0x00\n      keccak256\n      0x00\n        /* \"DePay.sol\":1256:1288  balance[msg.sender] += msg.value */\n      dup3\n      dup3\n      sload\n      tag_219\n      swap2\n      swap1\n      tag_203\n      jump\t// in\n    tag_219:\n      swap3\n      pop\n      pop\n      dup2\n      swap1\n      sstore\n      pop\n        /* \"DePay.sol\":1337:1346  msg.value */\n      callvalue\n        /* \"DePay.sol\":1299:1321  totalBalanceIHaveAdded */\n      0x0b\n        /* \"DePay.sol\":1299:1333  totalBalanceIHaveAdded[msg.sender] */\n      0x00\n        /* \"DePay.sol\":1322:1332  msg.sender */\n      caller\n        /* \"DePay.sol\":1299:1333  totalBalanceIHaveAdded[msg.sender] */\n      0xffffffffffffffffffffffffffffffffffffffff\n      and\n      0xffffffffffffffffffffffffffffffffffffffff\n      and\n      dup2\n      mstore\n      0x20\n      add\n      swap1\n      dup2\n      mstore\n      0x20\n      add\n      0x00\n      keccak256\n      0x00\n        /* \"DePay.sol\":1299:1346  totalBalanceIHaveAdded[msg.sender] += msg.value */\n      dup3\n      dup3\n      sload\n      tag_220\n      swap2\n      swap1\n      tag_203\n      jump\t// in\n    tag_220:\n      swap3\n      pop\n      pop\n      dup2\n      swap1\n      sstore\n      pop\n        /* \"DePay.sol\":1137:1354  function addFund() public payable {... */\n      jump\t// out\n        /* \"DePay.sol\":5253:5384  function numberOfPeopleWhoPaidMe(address find) external view returns (uint256) {... */\n    tag_110:\n        /* \"DePay.sol\":5323:5330  uint256 */\n      0x00\n        /* \"DePay.sol\":5351:5362  receivedArr */\n      0x08\n        /* \"DePay.sol\":5351:5368  receivedArr[find] */\n      0x00\n        /* \"DePay.sol\":5363:5367  find */\n      dup4\n        /* \"DePay.sol\":5351:5368  receivedArr[find] */\n      0xffffffffffffffffffffffffffffffffffffffff\n      and\n      0xffffffffffffffffffffffffffffffffffffffff\n      and\n      dup2\n      mstore\n      0x20\n      add\n      swap1\n      dup2\n      mstore\n      0x20\n      add\n      0x00\n      keccak256\n        /* \"DePay.sol\":5351:5375  receivedArr[find].length */\n      dup1\n      sload\n      swap1\n      pop\n        /* \"DePay.sol\":5343:5376  return (receivedArr[find].length) */\n      swap1\n      pop\n        /* \"DePay.sol\":5253:5384  function numberOfPeopleWhoPaidMe(address find) external view returns (uint256) {... */\n      swap2\n      swap1\n      pop\n      jump\t// out\n        /* \"DePay.sol\":448:511  mapping(address => mapping(address => uint256)) public borrowed */\n    tag_115:\n      mstore(0x20, 0x04)\n      dup2\n      0x00\n      mstore\n      mstore(0x20, keccak256(0x00, 0x40))\n      dup1\n      0x00\n      mstore\n      keccak256(0x00, 0x40)\n      0x00\n      swap2\n      pop\n      swap2\n      pop\n      pop\n      sload\n      dup2\n      jump\t// out\n        /* \"DePay.sol\":2445:2954  function lend(uint256 amount, address payable _to) public payable {... */\n    tag_119:\n        /* \"DePay.sol\":2540:2547  balance */\n      0x01\n        /* \"DePay.sol\":2540:2559  balance[msg.sender] */\n      0x00\n        /* \"DePay.sol\":2548:2558  msg.sender */\n      caller\n        /* \"DePay.sol\":2540:2559  balance[msg.sender] */\n      0xffffffffffffffffffffffffffffffffffffffff\n      and\n      0xffffffffffffffffffffffffffffffffffffffff\n      and\n      dup2\n      mstore\n      0x20\n      add\n      swap1\n      dup2\n      mstore\n      0x20\n      add\n      0x00\n      keccak256\n      sload\n        /* \"DePay.sol\":2530:2536  amount */\n      dup3\n        /* \"DePay.sol\":2530:2559  amount <= balance[msg.sender] */\n      gt\n      iszero\n        /* \"DePay.sol\":2522:2582  require(amount <= balance[msg.sender], \"Insufficient funds\") */\n      tag_223\n      jumpi\n      mload(0x40)\n      0x08c379a000000000000000000000000000000000000000000000000000000000\n      dup2\n      mstore\n      0x04\n      add\n      tag_224\n      swap1\n      tag_170\n      jump\t// in\n    tag_224:\n      mload(0x40)\n      dup1\n      swap2\n      sub\n      swap1\n      revert\n    tag_223:\n        /* \"DePay.sol\":2610:2611  0 */\n      0x00\n        /* \"DePay.sol\":2601:2607  amount */\n      dup3\n        /* \"DePay.sol\":2601:2611  amount > 0 */\n      gt\n        /* \"DePay.sol\":2593:2653  require(amount > 0, \"transaction with 0 eth is not allowed\") */\n      tag_225\n      jumpi\n      mload(0x40)\n      0x08c379a000000000000000000000000000000000000000000000000000000000\n      dup2\n      mstore\n      0x04\n      add\n      tag_226\n      swap1\n      tag_173\n      jump\t// in\n    tag_226:\n      mload(0x40)\n      dup1\n      swap2\n      sub\n      swap1\n      revert\n    tag_225:\n        /* \"DePay.sol\":2679:2689  msg.sender */\n      caller\n        /* \"DePay.sol\":2672:2689  _to != msg.sender */\n      0xffffffffffffffffffffffffffffffffffffffff\n      and\n        /* \"DePay.sol\":2672:2675  _to */\n      dup2\n        /* \"DePay.sol\":2672:2689  _to != msg.sender */\n      0xffffffffffffffffffffffffffffffffffffffff\n      and\n      sub\n        /* \"DePay.sol\":2664:2727  require(_to != msg.sender, \"You cannot lend money to yourself\") */\n      tag_227\n      jumpi\n      mload(0x40)\n      0x08c379a000000000000000000000000000000000000000000000000000000000\n      dup2\n      mstore\n      0x04\n      add\n      tag_228\n      swap1\n      tag_229\n      jump\t// in\n    tag_228:\n      mload(0x40)\n      dup1\n      swap2\n      sub\n      swap1\n      revert\n    tag_227:\n        /* \"DePay.sol\":2761:2767  amount */\n      dup2\n        /* \"DePay.sol\":2738:2745  balance */\n      0x01\n        /* \"DePay.sol\":2738:2757  balance[msg.sender] */\n      0x00\n        /* \"DePay.sol\":2746:2756  msg.sender */\n      caller\n        /* \"DePay.sol\":2738:2757  balance[msg.sender] */\n      0xffffffffffffffffffffffffffffffffffffffff\n      and\n      0xffffffffffffffffffffffffffffffffffffffff\n      and\n      dup2\n      mstore\n      0x20\n      add\n      swap1\n      dup2\n      mstore\n      0x20\n      add\n      0x00\n      keccak256\n      0x00\n        /* \"DePay.sol\":2738:2767  balance[msg.sender] -= amount */\n      dup3\n      dup3\n      sload\n      tag_230\n      swap2\n      swap1\n      tag_177\n      jump\t// in\n    tag_230:\n      swap3\n      pop\n      pop\n      dup2\n      swap1\n      sstore\n      pop\n        /* \"DePay.sol\":2804:2810  amount */\n      dup2\n        /* \"DePay.sol\":2778:2783  given */\n      0x02\n        /* \"DePay.sol\":2778:2795  given[msg.sender] */\n      0x00\n        /* \"DePay.sol\":2784:2794  msg.sender */\n      caller\n        /* \"DePay.sol\":2778:2795  given[msg.sender] */\n      0xffffffffffffffffffffffffffffffffffffffff\n      and\n      0xffffffffffffffffffffffffffffffffffffffff\n      and\n      dup2\n      mstore\n      0x20\n      add\n      swap1\n      dup2\n      mstore\n      0x20\n      add\n      0x00\n      keccak256\n        /* \"DePay.sol\":2778:2800  given[msg.sender][_to] */\n      0x00\n        /* \"DePay.sol\":2796:2799  _to */\n      dup4\n        /* \"DePay.sol\":2778:2800  given[msg.sender][_to] */\n      0xffffffffffffffffffffffffffffffffffffffff\n      and\n      0xffffffffffffffffffffffffffffffffffffffff\n      and\n      dup2\n      mstore\n      0x20\n      add\n      swap1\n      dup2\n      mstore\n      0x20\n      add\n      0x00\n      keccak256\n      0x00\n        /* \"DePay.sol\":2778:2810  given[msg.sender][_to] += amount */\n      dup3\n      dup3\n      sload\n      tag_231\n      swap2\n      swap1\n      tag_203\n      jump\t// in\n    tag_231:\n      swap3\n      pop\n      pop\n      dup2\n      swap1\n      sstore\n      pop\n        /* \"DePay.sol\":2850:2856  amount */\n      dup2\n        /* \"DePay.sol\":2821:2829  borrowed */\n      0x04\n        /* \"DePay.sol\":2821:2834  borrowed[_to] */\n      0x00\n        /* \"DePay.sol\":2830:2833  _to */\n      dup4\n        /* \"DePay.sol\":2821:2834  borrowed[_to] */\n      0xffffffffffffffffffffffffffffffffffffffff\n      and\n      0xffffffffffffffffffffffffffffffffffffffff\n      and\n      dup2\n      mstore\n      0x20\n      add\n      swap1\n      dup2\n      mstore\n      0x20\n      add\n      0x00\n      keccak256\n        /* \"DePay.sol\":2821:2846  borrowed[_to][msg.sender] */\n      0x00\n        /* \"DePay.sol\":2835:2845  msg.sender */\n      caller\n        /* \"DePay.sol\":2821:2846  borrowed[_to][msg.sender] */\n      0xffffffffffffffffffffffffffffffffffffffff\n      and\n      0xffffffffffffffffffffffffffffffffffffffff\n      and\n      dup2\n      mstore\n      0x20\n      add\n      swap1\n      dup2\n      mstore\n      0x20\n      add\n      0x00\n      keccak256\n      0x00\n        /* \"DePay.sol\":2821:2856  borrowed[_to][msg.sender] += amount */\n      dup3\n      dup3\n      sload\n      tag_232\n      swap2\n      swap1\n      tag_203\n      jump\t// in\n    tag_232:\n      swap3\n      pop\n      pop\n      dup2\n      swap1\n      sstore\n      pop\n        /* \"DePay.sol\":2867:2879  loanGivenArr */\n      0x09\n        /* \"DePay.sol\":2867:2891  loanGivenArr[msg.sender] */\n      0x00\n        /* \"DePay.sol\":2880:2890  msg.sender */\n      caller\n        /* \"DePay.sol\":2867:2891  loanGivenArr[msg.sender] */\n      0xffffffffffffffffffffffffffffffffffffffff\n      and\n      0xffffffffffffffffffffffffffffffffffffffff\n      and\n      dup2\n      mstore\n      0x20\n      add\n      swap1\n      dup2\n      mstore\n      0x20\n      add\n      0x00\n      keccak256\n        /* \"DePay.sol\":2897:2900  _to */\n      dup2\n        /* \"DePay.sol\":2867:2901  loanGivenArr[msg.sender].push(_to) */\n      swap1\n      dup1\n      0x01\n      dup2\n      sload\n      add\n      dup1\n      dup3\n      sstore\n      dup1\n      swap2\n      pop\n      pop\n      0x01\n      swap1\n      sub\n      swap1\n      0x00\n      mstore\n      keccak256(0x00, 0x20)\n      add\n      0x00\n      swap1\n      swap2\n      swap1\n      swap2\n      swap1\n      swap2\n      0x0100\n      exp\n      dup2\n      sload\n      dup2\n      0xffffffffffffffffffffffffffffffffffffffff\n      mul\n      not\n      and\n      swap1\n      dup4\n      0xffffffffffffffffffffffffffffffffffffffff\n      and\n      mul\n      or\n      swap1\n      sstore\n      pop\n        /* \"DePay.sol\":2912:2924  loanTakenArr */\n      0x0a\n        /* \"DePay.sol\":2912:2929  loanTakenArr[_to] */\n      0x00\n        /* \"DePay.sol\":2925:2928  _to */\n      dup3\n        /* \"DePay.sol\":2912:2929  loanTakenArr[_to] */\n      0xffffffffffffffffffffffffffffffffffffffff\n      and\n      0xffffffffffffffffffffffffffffffffffffffff\n      and\n      dup2\n      mstore\n      0x20\n      add\n      swap1\n      dup2\n      mstore\n      0x20\n      add\n      0x00\n      keccak256\n        /* \"DePay.sol\":2935:2945  msg.sender */\n      caller\n        /* \"DePay.sol\":2912:2946  loanTakenArr[_to].push(msg.sender) */\n      swap1\n      dup1\n      0x01\n      dup2\n      sload\n      add\n      dup1\n      dup3\n      sstore\n      dup1\n      swap2\n      pop\n      pop\n      0x01\n      swap1\n      sub\n      swap1\n      0x00\n      mstore\n      keccak256(0x00, 0x20)\n      add\n      0x00\n      swap1\n      swap2\n      swap1\n      swap2\n      swap1\n      swap2\n      0x0100\n      exp\n      dup2\n      sload\n      dup2\n      0xffffffffffffffffffffffffffffffffffffffff\n      mul\n      not\n      and\n      swap1\n      dup4\n      0xffffffffffffffffffffffffffffffffffffffff\n      and\n      mul\n      or\n      swap1\n      sstore\n      pop\n        /* \"DePay.sol\":2445:2954  function lend(uint256 amount, address payable _to) public payable {... */\n      pop\n      pop\n      jump\t// out\n        /* \"DePay.sol\":315:375  mapping(address => mapping(address => uint256)) public given */\n    tag_123:\n      mstore(0x20, 0x02)\n      dup2\n      0x00\n      mstore\n      mstore(0x20, keccak256(0x00, 0x40))\n      dup1\n      0x00\n      mstore\n      keccak256(0x00, 0x40)\n      0x00\n      swap2\n      pop\n      swap2\n      pop\n      pop\n      sload\n      dup2\n      jump\t// out\n        /* \"DePay.sol\":1362:2142  function pay(... */\n    tag_128:\n        /* \"DePay.sol\":1558:1565  balance */\n      0x01\n        /* \"DePay.sol\":1558:1577  balance[msg.sender] */\n      0x00\n        /* \"DePay.sol\":1566:1576  msg.sender */\n      caller\n        /* \"DePay.sol\":1558:1577  balance[msg.sender] */\n      0xffffffffffffffffffffffffffffffffffffffff\n      and\n      0xffffffffffffffffffffffffffffffffffffffff\n      and\n      dup2\n      mstore\n      0x20\n      add\n      swap1\n      dup2\n      mstore\n      0x20\n      add\n      0x00\n      keccak256\n      sload\n        /* \"DePay.sol\":1549:1555  amount */\n      dup5\n        /* \"DePay.sol\":1549:1577  amount < balance[msg.sender] */\n      lt\n        /* \"DePay.sol\":1541:1600  require(amount < balance[msg.sender], \"Insufficient funds\") */\n      tag_236\n      jumpi\n      mload(0x40)\n      0x08c379a000000000000000000000000000000000000000000000000000000000\n      dup2\n      mstore\n      0x04\n      add\n      tag_237\n      swap1\n      tag_170\n      jump\t// in\n    tag_237:\n      mload(0x40)\n      dup1\n      swap2\n      sub\n      swap1\n      revert\n    tag_236:\n        /* \"DePay.sol\":1628:1629  0 */\n      0x00\n        /* \"DePay.sol\":1619:1625  amount */\n      dup5\n        /* \"DePay.sol\":1619:1629  amount > 0 */\n      gt\n        /* \"DePay.sol\":1611:1671  require(amount > 0, \"transaction with 0 eth is not allowed\") */\n      tag_238\n      jumpi\n      mload(0x40)\n      0x08c379a000000000000000000000000000000000000000000000000000000000\n      dup2\n      mstore\n      0x04\n      add\n      tag_239\n      swap1\n      tag_173\n      jump\t// in\n    tag_239:\n      mload(0x40)\n      dup1\n      swap2\n      sub\n      swap1\n      revert\n    tag_238:\n        /* \"DePay.sol\":1697:1707  msg.sender */\n      caller\n        /* \"DePay.sol\":1690:1707  _to != msg.sender */\n      0xffffffffffffffffffffffffffffffffffffffff\n      and\n        /* \"DePay.sol\":1690:1693  _to */\n      dup6\n        /* \"DePay.sol\":1690:1707  _to != msg.sender */\n      0xffffffffffffffffffffffffffffffffffffffff\n      and\n      sub\n        /* \"DePay.sol\":1682:1744  require(_to != msg.sender, \"You cannot pay money to yourself\") */\n      tag_240\n      jumpi\n      mload(0x40)\n      0x08c379a000000000000000000000000000000000000000000000000000000000\n      dup2\n      mstore\n      0x04\n      add\n      tag_241\n      swap1\n      tag_242\n      jump\t// in\n    tag_241:\n      mload(0x40)\n      dup1\n      swap2\n      sub\n      swap1\n      revert\n    tag_240:\n        /* \"DePay.sol\":1755:1758  _to */\n      dup5\n        /* \"DePay.sol\":1755:1767  _to.transfer */\n      0xffffffffffffffffffffffffffffffffffffffff\n      and\n        /* \"DePay.sol\":1755:1775  _to.transfer(amount) */\n      0x08fc\n        /* \"DePay.sol\":1768:1774  amount */\n      dup6\n        /* \"DePay.sol\":1755:1775  _to.transfer(amount) */\n      swap1\n      dup2\n      iszero\n      mul\n      swap1\n      mload(0x40)\n      0x00\n      mload(0x40)\n      dup1\n      dup4\n      sub\n      dup2\n      dup6\n      dup9\n      dup9\n      call\n      swap4\n      pop\n      pop\n      pop\n      pop\n      iszero\n      dup1\n      iszero\n      tag_244\n      jumpi\n      returndatasize\n      0x00\n      dup1\n      returndatacopy\n      revert(0x00, returndatasize)\n    tag_244:\n      pop\n        /* \"DePay.sol\":1809:1815  amount */\n      dup4\n        /* \"DePay.sol\":1786:1793  balance */\n      0x01\n        /* \"DePay.sol\":1786:1805  balance[msg.sender] */\n      0x00\n        /* \"DePay.sol\":1794:1804  msg.sender */\n      caller\n        /* \"DePay.sol\":1786:1805  balance[msg.sender] */\n      0xffffffffffffffffffffffffffffffffffffffff\n      and\n      0xffffffffffffffffffffffffffffffffffffffff\n      and\n      dup2\n      mstore\n      0x20\n      add\n      swap1\n      dup2\n      mstore\n      0x20\n      add\n      0x00\n      keccak256\n      0x00\n        /* \"DePay.sol\":1786:1815  balance[msg.sender] -= amount */\n      dup3\n      dup3\n      sload\n      tag_245\n      swap2\n      swap1\n      tag_177\n      jump\t// in\n    tag_245:\n      swap3\n      pop\n      pop\n      dup2\n      swap1\n      sstore\n      pop\n        /* \"DePay.sol\":1857:1858  0 */\n      0x00\n        /* \"DePay.sol\":1830:1836  paidTo */\n      0x05\n        /* \"DePay.sol\":1830:1848  paidTo[msg.sender] */\n      0x00\n        /* \"DePay.sol\":1837:1847  msg.sender */\n      caller\n        /* \"DePay.sol\":1830:1848  paidTo[msg.sender] */\n      0xffffffffffffffffffffffffffffffffffffffff\n      and\n      0xffffffffffffffffffffffffffffffffffffffff\n      and\n      dup2\n      mstore\n      0x20\n      add\n      swap1\n      dup2\n      mstore\n      0x20\n      add\n      0x00\n      keccak256\n        /* \"DePay.sol\":1830:1853  paidTo[msg.sender][_to] */\n      0x00\n        /* \"DePay.sol\":1849:1852  _to */\n      dup8\n        /* \"DePay.sol\":1830:1853  paidTo[msg.sender][_to] */\n      0xffffffffffffffffffffffffffffffffffffffff\n      and\n      0xffffffffffffffffffffffffffffffffffffffff\n      and\n      dup2\n      mstore\n      0x20\n      add\n      swap1\n      dup2\n      mstore\n      0x20\n      add\n      0x00\n      keccak256\n      sload\n        /* \"DePay.sol\":1830:1858  paidTo[msg.sender][_to] == 0 */\n      sub\n        /* \"DePay.sol\":1826:1964  if (paidTo[msg.sender][_to] == 0) {... */\n      tag_246\n      jumpi\n        /* \"DePay.sol\":1875:1882  paidArr */\n      0x07\n        /* \"DePay.sol\":1875:1894  paidArr[msg.sender] */\n      0x00\n        /* \"DePay.sol\":1883:1893  msg.sender */\n      caller\n        /* \"DePay.sol\":1875:1894  paidArr[msg.sender] */\n      0xffffffffffffffffffffffffffffffffffffffff\n      and\n      0xffffffffffffffffffffffffffffffffffffffff\n      and\n      dup2\n      mstore\n      0x20\n      add\n      swap1\n      dup2\n      mstore\n      0x20\n      add\n      0x00\n      keccak256\n        /* \"DePay.sol\":1900:1903  _to */\n      dup6\n        /* \"DePay.sol\":1875:1904  paidArr[msg.sender].push(_to) */\n      swap1\n      dup1\n      0x01\n      dup2\n      sload\n      add\n      dup1\n      dup3\n      sstore\n      dup1\n      swap2\n      pop\n      pop\n      0x01\n      swap1\n      sub\n      swap1\n      0x00\n      mstore\n      keccak256(0x00, 0x20)\n      add\n      0x00\n      swap1\n      swap2\n      swap1\n      swap2\n      swap1\n      swap2\n      0x0100\n      exp\n      dup2\n      sload\n      dup2\n      0xffffffffffffffffffffffffffffffffffffffff\n      mul\n      not\n      and\n      swap1\n      dup4\n      0xffffffffffffffffffffffffffffffffffffffff\n      and\n      mul\n      or\n      swap1\n      sstore\n      pop\n        /* \"DePay.sol\":1919:1930  receivedArr */\n      0x08\n        /* \"DePay.sol\":1919:1935  receivedArr[_to] */\n      0x00\n        /* \"DePay.sol\":1931:1934  _to */\n      dup7\n        /* \"DePay.sol\":1919:1935  receivedArr[_to] */\n      0xffffffffffffffffffffffffffffffffffffffff\n      and\n      0xffffffffffffffffffffffffffffffffffffffff\n      and\n      dup2\n      mstore\n      0x20\n      add\n      swap1\n      dup2\n      mstore\n      0x20\n      add\n      0x00\n      keccak256\n        /* \"DePay.sol\":1941:1951  msg.sender */\n      caller\n        /* \"DePay.sol\":1919:1952  receivedArr[_to].push(msg.sender) */\n      swap1\n      dup1\n      0x01\n      dup2\n      sload\n      add\n      dup1\n      dup3\n      sstore\n      dup1\n      swap2\n      pop\n      pop\n      0x01\n      swap1\n      sub\n      swap1\n      0x00\n      mstore\n      keccak256(0x00, 0x20)\n      add\n      0x00\n      swap1\n      swap2\n      swap1\n      swap2\n      swap1\n      swap2\n      0x0100\n      exp\n      dup2\n      sload\n      dup2\n      0xffffffffffffffffffffffffffffffffffffffff\n      mul\n      not\n      and\n      swap1\n      dup4\n      0xffffffffffffffffffffffffffffffffffffffff\n      and\n      mul\n      or\n      swap1\n      sstore\n      pop\n        /* \"DePay.sol\":1826:1964  if (paidTo[msg.sender][_to] == 0) {... */\n    tag_246:\n        /* \"DePay.sol\":2001:2007  amount */\n      dup4\n        /* \"DePay.sol\":1974:1980  paidTo */\n      0x05\n        /* \"DePay.sol\":1974:1992  paidTo[msg.sender] */\n      0x00\n        /* \"DePay.sol\":1981:1991  msg.sender */\n      caller\n        /* \"DePay.sol\":1974:1992  paidTo[msg.sender] */\n      0xffffffffffffffffffffffffffffffffffffffff\n      and\n      0xffffffffffffffffffffffffffffffffffffffff\n      and\n      dup2\n      mstore\n      0x20\n      add\n      swap1\n      dup2\n      mstore\n      0x20\n      add\n      0x00\n      keccak256\n        /* \"DePay.sol\":1974:1997  paidTo[msg.sender][_to] */\n      0x00\n        /* \"DePay.sol\":1993:1996  _to */\n      dup8\n        /* \"DePay.sol\":1974:1997  paidTo[msg.sender][_to] */\n      0xffffffffffffffffffffffffffffffffffffffff\n      and\n      0xffffffffffffffffffffffffffffffffffffffff\n      and\n      dup2\n      mstore\n      0x20\n      add\n      swap1\n      dup2\n      mstore\n      0x20\n      add\n      0x00\n      keccak256\n      0x00\n        /* \"DePay.sol\":1974:2007  paidTo[msg.sender][_to] += amount */\n      dup3\n      dup3\n      sload\n      tag_249\n      swap2\n      swap1\n      tag_203\n      jump\t// in\n    tag_249:\n      swap3\n      pop\n      pop\n      dup2\n      swap1\n      sstore\n      pop\n        /* \"DePay.sol\":2051:2057  amount */\n      dup4\n        /* \"DePay.sol\":2018:2030  ReceivedFrom */\n      0x06\n        /* \"DePay.sol\":2018:2035  ReceivedFrom[_to] */\n      0x00\n        /* \"DePay.sol\":2031:2034  _to */\n      dup8\n        /* \"DePay.sol\":2018:2035  ReceivedFrom[_to] */\n      0xffffffffffffffffffffffffffffffffffffffff\n      and\n      0xffffffffffffffffffffffffffffffffffffffff\n      and\n      dup2\n      mstore\n      0x20\n      add\n      swap1\n      dup2\n      mstore\n      0x20\n      add\n      0x00\n      keccak256\n        /* \"DePay.sol\":2018:2047  ReceivedFrom[_to][msg.sender] */\n      0x00\n        /* \"DePay.sol\":2036:2046  msg.sender */\n      caller\n        /* \"DePay.sol\":2018:2047  ReceivedFrom[_to][msg.sender] */\n      0xffffffffffffffffffffffffffffffffffffffff\n      and\n      0xffffffffffffffffffffffffffffffffffffffff\n      and\n      dup2\n      mstore\n      0x20\n      add\n      swap1\n      dup2\n      mstore\n      0x20\n      add\n      0x00\n      keccak256\n      0x00\n        /* \"DePay.sol\":2018:2057  ReceivedFrom[_to][msg.sender] += amount */\n      dup3\n      dup3\n      sload\n      tag_250\n      swap2\n      swap1\n      tag_203\n      jump\t// in\n    tag_250:\n      swap3\n      pop\n      pop\n      dup2\n      swap1\n      sstore\n      pop\n        /* \"DePay.sol\":2109:2112  _to */\n      dup5\n        /* \"DePay.sol\":2073:2134  transactionData(msg.sender, amount, _to, date, time, purpose) */\n      0xffffffffffffffffffffffffffffffffffffffff\n      and\n        /* \"DePay.sol\":2089:2099  msg.sender */\n      caller\n        /* \"DePay.sol\":2073:2134  transactionData(msg.sender, amount, _to, date, time, purpose) */\n      0xffffffffffffffffffffffffffffffffffffffff\n      and\n      0xa32c156f4b3b8a11a69a7ce04d9290f328629e9ba578b036df29793cceed6ec9\n        /* \"DePay.sol\":2101:2107  amount */\n      dup7\n        /* \"DePay.sol\":2114:2118  date */\n      dup7\n        /* \"DePay.sol\":2120:2124  time */\n      dup7\n        /* \"DePay.sol\":2126:2133  purpose */\n      dup7\n        /* \"DePay.sol\":2073:2134  transactionData(msg.sender, amount, _to, date, time, purpose) */\n      mload(0x40)\n      tag_251\n      swap5\n      swap4\n      swap3\n      swap2\n      swap1\n      tag_252\n      jump\t// in\n    tag_251:\n      mload(0x40)\n      dup1\n      swap2\n      sub\n      swap1\n      log3\n        /* \"DePay.sol\":1362:2142  function pay(... */\n      pop\n      pop\n      pop\n      pop\n      pop\n      jump\t// out\n        /* \"DePay.sol\":586:653  mapping(address => mapping(address => uint256)) public ReceivedFrom */\n    tag_132:\n      mstore(0x20, 0x06)\n      dup2\n      0x00\n      mstore\n      mstore(0x20, keccak256(0x00, 0x40))\n      dup1\n      0x00\n      mstore\n      keccak256(0x00, 0x40)\n      0x00\n      swap2\n      pop\n      swap2\n      pop\n      pop\n      sload\n      dup2\n      jump\t// out\n        /* \"DePay.sol\":5122:5245  function numberOfPeopleIPaid(address find) external view returns (uint256) {... */\n    tag_137:\n        /* \"DePay.sol\":5188:5195  uint256 */\n      0x00\n        /* \"DePay.sol\":5216:5223  paidArr */\n      0x07\n        /* \"DePay.sol\":5216:5229  paidArr[find] */\n      0x00\n        /* \"DePay.sol\":5224:5228  find */\n      dup4\n        /* \"DePay.sol\":5216:5229  paidArr[find] */\n      0xffffffffffffffffffffffffffffffffffffffff\n      and\n      0xffffffffffffffffffffffffffffffffffffffff\n      and\n      dup2\n      mstore\n      0x20\n      add\n      swap1\n      dup2\n      mstore\n      0x20\n      add\n      0x00\n      keccak256\n        /* \"DePay.sol\":5216:5236  paidArr[find].length */\n      dup1\n      sload\n      swap1\n      pop\n        /* \"DePay.sol\":5208:5237  return (paidArr[find].length) */\n      swap1\n      pop\n        /* \"DePay.sol\":5122:5245  function numberOfPeopleIPaid(address find) external view returns (uint256) {... */\n      swap2\n      swap1\n      pop\n      jump\t// out\n        /* \"DePay.sol\":711:759  mapping(address => address[]) public receivedArr */\n    tag_142:\n      mstore(0x20, 0x08)\n      dup2\n      0x00\n      mstore\n      keccak256(0x00, 0x40)\n      dup2\n      dup2\n      sload\n      dup2\n      lt\n      tag_254\n      jumpi\n      0x00\n      dup1\n      revert\n    tag_254:\n      swap1\n      0x00\n      mstore\n      keccak256(0x00, 0x20)\n      add\n      0x00\n      swap2\n      pop\n      swap2\n      pop\n      swap1\n      sload\n      swap1\n      0x0100\n      exp\n      swap1\n      div\n      0xffffffffffffffffffffffffffffffffffffffff\n      and\n      dup2\n      jump\t// out\n        /* \"DePay.sol\":4071:4707  function approveRequest(uint256 index) public payable {... */\n    tag_146:\n        /* \"DePay.sol\":4136:4159  Request storage request */\n      0x00\n        /* \"DePay.sol\":4162:4170  requests */\n      dup1\n        /* \"DePay.sol\":4162:4182  requests[msg.sender] */\n      0x00\n        /* \"DePay.sol\":4171:4181  msg.sender */\n      caller\n        /* \"DePay.sol\":4162:4182  requests[msg.sender] */\n      0xffffffffffffffffffffffffffffffffffffffff\n      and\n      0xffffffffffffffffffffffffffffffffffffffff\n      and\n      dup2\n      mstore\n      0x20\n      add\n      swap1\n      dup2\n      mstore\n      0x20\n      add\n      0x00\n      keccak256\n        /* \"DePay.sol\":4183:4188  index */\n      dup3\n        /* \"DePay.sol\":4162:4189  requests[msg.sender][index] */\n      dup2\n      sload\n      dup2\n      lt\n      tag_257\n      jumpi\n      tag_258\n      tag_162\n      jump\t// in\n    tag_258:\n    tag_257:\n      swap1\n      0x00\n      mstore\n      keccak256(0x00, 0x20)\n      swap1\n      0x03\n      mul\n      add\n        /* \"DePay.sol\":4136:4189  Request storage request = requests[msg.sender][index] */\n      swap1\n      pop\n        /* \"DePay.sol\":4242:4247  false */\n      0x00\n        /* \"DePay.sol\":4222:4247  request.complete == false */\n      iszero\n      iszero\n        /* \"DePay.sol\":4222:4229  request */\n      dup2\n        /* \"DePay.sol\":4222:4238  request.complete */\n      0x02\n      add\n      0x00\n      swap1\n      sload\n      swap1\n      0x0100\n      exp\n      swap1\n      div\n      0xff\n      and\n        /* \"DePay.sol\":4222:4247  request.complete == false */\n      iszero\n      iszero\n      eq\n        /* \"DePay.sol\":4200:4309  require(... */\n      tag_260\n      jumpi\n      mload(0x40)\n      0x08c379a000000000000000000000000000000000000000000000000000000000\n      dup2\n      mstore\n      0x04\n      add\n      tag_261\n      swap1\n      tag_166\n      jump\t// in\n    tag_261:\n      mload(0x40)\n      dup1\n      swap2\n      sub\n      swap1\n      revert\n    tag_260:\n        /* \"DePay.sol\":4405:4406  0 */\n      0x00\n        /* \"DePay.sol\":4372:4376  used */\n      0x03\n        /* \"DePay.sol\":4372:4388  used[msg.sender] */\n      0x00\n        /* \"DePay.sol\":4377:4387  msg.sender */\n      caller\n        /* \"DePay.sol\":4372:4388  used[msg.sender] */\n      0xffffffffffffffffffffffffffffffffffffffff\n      and\n      0xffffffffffffffffffffffffffffffffffffffff\n      and\n      dup2\n      mstore\n      0x20\n      add\n      swap1\n      dup2\n      mstore\n      0x20\n      add\n      0x00\n      keccak256\n        /* \"DePay.sol\":4372:4402  used[msg.sender][request.from] */\n      0x00\n        /* \"DePay.sol\":4389:4396  request */\n      dup4\n        /* \"DePay.sol\":4389:4401  request.from */\n      0x02\n      add\n      0x01\n      swap1\n      sload\n      swap1\n      0x0100\n      exp\n      swap1\n      div\n      0xffffffffffffffffffffffffffffffffffffffff\n      and\n        /* \"DePay.sol\":4372:4402  used[msg.sender][request.from] */\n      0xffffffffffffffffffffffffffffffffffffffff\n      and\n      0xffffffffffffffffffffffffffffffffffffffff\n      and\n      dup2\n      mstore\n      0x20\n      add\n      swap1\n      dup2\n      mstore\n      0x20\n      add\n      0x00\n      keccak256\n      sload\n        /* \"DePay.sol\":4338:4343  given */\n      0x02\n        /* \"DePay.sol\":4338:4355  given[msg.sender] */\n      0x00\n        /* \"DePay.sol\":4344:4354  msg.sender */\n      caller\n        /* \"DePay.sol\":4338:4355  given[msg.sender] */\n      0xffffffffffffffffffffffffffffffffffffffff\n      and\n      0xffffffffffffffffffffffffffffffffffffffff\n      and\n      dup2\n      mstore\n      0x20\n      add\n      swap1\n      dup2\n      mstore\n      0x20\n      add\n      0x00\n      keccak256\n        /* \"DePay.sol\":4338:4369  given[msg.sender][request.from] */\n      0x00\n        /* \"DePay.sol\":4356:4363  request */\n      dup5\n        /* \"DePay.sol\":4356:4368  request.from */\n      0x02\n      add\n      0x01\n      swap1\n      sload\n      swap1\n      0x0100\n      exp\n      swap1\n      div\n      0xffffffffffffffffffffffffffffffffffffffff\n      and\n        /* \"DePay.sol\":4338:4369  given[msg.sender][request.from] */\n      0xffffffffffffffffffffffffffffffffffffffff\n      and\n      0xffffffffffffffffffffffffffffffffffffffff\n      and\n      dup2\n      mstore\n      0x20\n      add\n      swap1\n      dup2\n      mstore\n      0x20\n      add\n      0x00\n      keccak256\n      sload\n        /* \"DePay.sol\":4338:4402  given[msg.sender][request.from] - used[msg.sender][request.from] */\n      tag_262\n      swap2\n      swap1\n      tag_177\n      jump\t// in\n    tag_262:\n        /* \"DePay.sol\":4338:4406  given[msg.sender][request.from] - used[msg.sender][request.from] > 0 */\n      gt\n        /* \"DePay.sol\":4320:4700  if (... */\n      iszero\n      tag_263\n      jumpi\n        /* \"DePay.sol\":4442:4449  request */\n      dup1\n        /* \"DePay.sol\":4442:4454  request.from */\n      0x02\n      add\n      0x01\n      swap1\n      sload\n      swap1\n      0x0100\n      exp\n      swap1\n      div\n      0xffffffffffffffffffffffffffffffffffffffff\n      and\n        /* \"DePay.sol\":4433:4465  (payable(request.from)).transfer */\n      0xffffffffffffffffffffffffffffffffffffffff\n      and\n        /* \"DePay.sol\":4433:4482  (payable(request.from)).transfer((request.value)) */\n      0x08fc\n        /* \"DePay.sol\":4467:4474  request */\n      dup3\n        /* \"DePay.sol\":4467:4480  request.value */\n      0x01\n      add\n      sload\n        /* \"DePay.sol\":4433:4482  (payable(request.from)).transfer((request.value)) */\n      swap1\n      dup2\n      iszero\n      mul\n      swap1\n      mload(0x40)\n      0x00\n      mload(0x40)\n      dup1\n      dup4\n      sub\n      dup2\n      dup6\n      dup9\n      dup9\n      call\n      swap4\n      pop\n      pop\n      pop\n      pop\n      iszero\n      dup1\n      iszero\n      tag_265\n      jumpi\n      returndatasize\n      0x00\n      dup1\n      returndatacopy\n      revert(0x00, returndatasize)\n    tag_265:\n      pop\n        /* \"DePay.sol\":4516:4520  true */\n      0x01\n        /* \"DePay.sol\":4497:4504  request */\n      dup2\n        /* \"DePay.sol\":4497:4513  request.complete */\n      0x02\n      add\n      0x00\n        /* \"DePay.sol\":4497:4520  request.complete = true */\n      0x0100\n      exp\n      dup2\n      sload\n      dup2\n      0xff\n      mul\n      not\n      and\n      swap1\n      dup4\n      iszero\n      iszero\n      mul\n      or\n      swap1\n      sstore\n      pop\n        /* \"DePay.sol\":4560:4567  request */\n      dup1\n        /* \"DePay.sol\":4560:4573  request.value */\n      0x01\n      add\n      sload\n        /* \"DePay.sol\":4535:4542  balance */\n      0x01\n        /* \"DePay.sol\":4535:4556  balance[request.from] */\n      0x00\n        /* \"DePay.sol\":4543:4550  request */\n      dup4\n        /* \"DePay.sol\":4543:4555  request.from */\n      0x02\n      add\n      0x01\n      swap1\n      sload\n      swap1\n      0x0100\n      exp\n      swap1\n      div\n      0xffffffffffffffffffffffffffffffffffffffff\n      and\n        /* \"DePay.sol\":4535:4556  balance[request.from] */\n      0xffffffffffffffffffffffffffffffffffffffff\n      and\n      0xffffffffffffffffffffffffffffffffffffffff\n      and\n      dup2\n      mstore\n      0x20\n      add\n      swap1\n      dup2\n      mstore\n      0x20\n      add\n      0x00\n      keccak256\n      0x00\n        /* \"DePay.sol\":4535:4573  balance[request.from] += request.value */\n      dup3\n      dup3\n      sload\n      tag_266\n      swap2\n      swap1\n      tag_203\n      jump\t// in\n    tag_266:\n      swap3\n      pop\n      pop\n      dup2\n      swap1\n      sstore\n      pop\n        /* \"DePay.sol\":4622:4629  request */\n      dup1\n        /* \"DePay.sol\":4622:4635  request.value */\n      0x01\n      add\n      sload\n        /* \"DePay.sol\":4588:4592  used */\n      0x03\n        /* \"DePay.sol\":4588:4604  used[msg.sender] */\n      0x00\n        /* \"DePay.sol\":4593:4603  msg.sender */\n      caller\n        /* \"DePay.sol\":4588:4604  used[msg.sender] */\n      0xffffffffffffffffffffffffffffffffffffffff\n      and\n      0xffffffffffffffffffffffffffffffffffffffff\n      and\n      dup2\n      mstore\n      0x20\n      add\n      swap1\n      dup2\n      mstore\n      0x20\n      add\n      0x00\n      keccak256\n        /* \"DePay.sol\":4588:4618  used[msg.sender][request.from] */\n      0x00\n        /* \"DePay.sol\":4605:4612  request */\n      dup4\n        /* \"DePay.sol\":4605:4617  request.from */\n      0x02\n      add\n      0x01\n      swap1\n      sload\n      swap1\n      0x0100\n      exp\n      swap1\n      div\n      0xffffffffffffffffffffffffffffffffffffffff\n      and\n        /* \"DePay.sol\":4588:4618  used[msg.sender][request.from] */\n      0xffffffffffffffffffffffffffffffffffffffff\n      and\n      0xffffffffffffffffffffffffffffffffffffffff\n      and\n      dup2\n      mstore\n      0x20\n      add\n      swap1\n      dup2\n      mstore\n      0x20\n      add\n      0x00\n      keccak256\n      0x00\n        /* \"DePay.sol\":4588:4635  used[msg.sender][request.from] += request.value */\n      dup3\n      dup3\n      sload\n      tag_267\n      swap2\n      swap1\n      tag_203\n      jump\t// in\n    tag_267:\n      swap3\n      pop\n      pop\n      dup2\n      swap1\n      sstore\n      pop\n        /* \"DePay.sol\":4320:4700  if (... */\n      jump(tag_268)\n    tag_263:\n        /* \"DePay.sol\":4668:4688  rejectRequest(index) */\n      tag_269\n        /* \"DePay.sol\":4682:4687  index */\n      dup3\n        /* \"DePay.sol\":4668:4681  rejectRequest */\n      tag_44\n        /* \"DePay.sol\":4668:4688  rejectRequest(index) */\n      jump\t// in\n    tag_269:\n        /* \"DePay.sol\":4320:4700  if (... */\n    tag_268:\n        /* \"DePay.sol\":4125:4707  {... */\n      pop\n        /* \"DePay.sol\":4071:4707  function approveRequest(uint256 index) public payable {... */\n      pop\n      jump\t// out\n        /* \"DePay.sol\":266:308  mapping(address => uint256) public balance */\n    tag_150:\n      mstore(0x20, 0x01)\n      dup1\n      0x00\n      mstore\n      keccak256(0x00, 0x40)\n      0x00\n      swap2\n      pop\n      swap1\n      pop\n      sload\n      dup2\n      jump\t// out\n        /* \"DePay.sol\":5392:5565  function numberOfPeopleWhomIHaveGivenLoan(address find)... */\n    tag_155:\n        /* \"DePay.sol\":5498:5505  uint256 */\n      0x00\n        /* \"DePay.sol\":5531:5543  loanGivenArr */\n      0x09\n        /* \"DePay.sol\":5531:5549  loanGivenArr[find] */\n      0x00\n        /* \"DePay.sol\":5544:5548  find */\n      dup4\n        /* \"DePay.sol\":5531:5549  loanGivenArr[find] */\n      0xffffffffffffffffffffffffffffffffffffffff\n      and\n      0xffffffffffffffffffffffffffffffffffffffff\n      and\n      dup2\n      mstore\n      0x20\n      add\n      swap1\n      dup2\n      mstore\n      0x20\n      add\n      0x00\n      keccak256\n        /* \"DePay.sol\":5531:5556  loanGivenArr[find].length */\n      dup1\n      sload\n      swap1\n      pop\n        /* \"DePay.sol\":5523:5557  return (loanGivenArr[find].length) */\n      swap1\n      pop\n        /* \"DePay.sol\":5392:5565  function numberOfPeopleWhomIHaveGivenLoan(address find)... */\n      swap2\n      swap1\n      pop\n      jump\t// out\n        /* \"#utility.yul\":7:82   */\n    tag_271:\n        /* \"#utility.yul\":40:46   */\n      0x00\n        /* \"#utility.yul\":73:75   */\n      0x40\n        /* \"#utility.yul\":67:76   */\n      mload\n        /* \"#utility.yul\":57:76   */\n      swap1\n      pop\n        /* \"#utility.yul\":7:82   */\n      swap1\n      jump\t// out\n        /* \"#utility.yul\":88:205   */\n    tag_272:\n        /* \"#utility.yul\":197:198   */\n      0x00\n        /* \"#utility.yul\":194:195   */\n      dup1\n        /* \"#utility.yul\":187:199   */\n      revert\n        /* \"#utility.yul\":211:328   */\n    tag_273:\n        /* \"#utility.yul\":320:321   */\n      0x00\n        /* \"#utility.yul\":317:318   */\n      dup1\n        /* \"#utility.yul\":310:322   */\n      revert\n        /* \"#utility.yul\":334:460   */\n    tag_274:\n        /* \"#utility.yul\":371:378   */\n      0x00\n        /* \"#utility.yul\":411:453   */\n      0xffffffffffffffffffffffffffffffffffffffff\n        /* \"#utility.yul\":404:409   */\n      dup3\n        /* \"#utility.yul\":400:454   */\n      and\n        /* \"#utility.yul\":389:454   */\n      swap1\n      pop\n        /* \"#utility.yul\":334:460   */\n      swap2\n      swap1\n      pop\n      jump\t// out\n        /* \"#utility.yul\":466:562   */\n    tag_275:\n        /* \"#utility.yul\":503:510   */\n      0x00\n        /* \"#utility.yul\":532:556   */\n      tag_341\n        /* \"#utility.yul\":550:555   */\n      dup3\n        /* \"#utility.yul\":532:556   */\n      tag_274\n      jump\t// in\n    tag_341:\n        /* \"#utility.yul\":521:556   */\n      swap1\n      pop\n        /* \"#utility.yul\":466:562   */\n      swap2\n      swap1\n      pop\n      jump\t// out\n        /* \"#utility.yul\":568:690   */\n    tag_276:\n        /* \"#utility.yul\":641:665   */\n      tag_343\n        /* \"#utility.yul\":659:664   */\n      dup2\n        /* \"#utility.yul\":641:665   */\n      tag_275\n      jump\t// in\n    tag_343:\n        /* \"#utility.yul\":634:639   */\n      dup2\n        /* \"#utility.yul\":631:666   */\n      eq\n        /* \"#utility.yul\":621:684   */\n      tag_344\n      jumpi\n        /* \"#utility.yul\":680:681   */\n      0x00\n        /* \"#utility.yul\":677:678   */\n      dup1\n        /* \"#utility.yul\":670:682   */\n      revert\n        /* \"#utility.yul\":621:684   */\n    tag_344:\n        /* \"#utility.yul\":568:690   */\n      pop\n      jump\t// out\n        /* \"#utility.yul\":696:835   */\n    tag_277:\n        /* \"#utility.yul\":742:747   */\n      0x00\n        /* \"#utility.yul\":780:786   */\n      dup2\n        /* \"#utility.yul\":767:787   */\n      calldataload\n        /* \"#utility.yul\":758:787   */\n      swap1\n      pop\n        /* \"#utility.yul\":796:829   */\n      tag_346\n        /* \"#utility.yul\":823:828   */\n      dup2\n        /* \"#utility.yul\":796:829   */\n      tag_276\n      jump\t// in\n    tag_346:\n        /* \"#utility.yul\":696:835   */\n      swap3\n      swap2\n      pop\n      pop\n      jump\t// out\n        /* \"#utility.yul\":841:918   */\n    tag_278:\n        /* \"#utility.yul\":878:885   */\n      0x00\n        /* \"#utility.yul\":907:912   */\n      dup2\n        /* \"#utility.yul\":896:912   */\n      swap1\n      pop\n        /* \"#utility.yul\":841:918   */\n      swap2\n      swap1\n      pop\n      jump\t// out\n        /* \"#utility.yul\":924:1046   */\n    tag_279:\n        /* \"#utility.yul\":997:1021   */\n      tag_349\n        /* \"#utility.yul\":1015:1020   */\n      dup2\n        /* \"#utility.yul\":997:1021   */\n      tag_278\n      jump\t// in\n    tag_349:\n        /* \"#utility.yul\":990:995   */\n      dup2\n        /* \"#utility.yul\":987:1022   */\n      eq\n        /* \"#utility.yul\":977:1040   */\n      tag_350\n      jumpi\n        /* \"#utility.yul\":1036:1037   */\n      0x00\n        /* \"#utility.yul\":1033:1034   */\n      dup1\n        /* \"#utility.yul\":1026:1038   */\n      revert\n        /* \"#utility.yul\":977:1040   */\n    tag_350:\n        /* \"#utility.yul\":924:1046   */\n      pop\n      jump\t// out\n        /* \"#utility.yul\":1052:1191   */\n    tag_280:\n        /* \"#utility.yul\":1098:1103   */\n      0x00\n        /* \"#utility.yul\":1136:1142   */\n      dup2\n        /* \"#utility.yul\":1123:1143   */\n      calldataload\n        /* \"#utility.yul\":1114:1143   */\n      swap1\n      pop\n        /* \"#utility.yul\":1152:1185   */\n      tag_352\n        /* \"#utility.yul\":1179:1184   */\n      dup2\n        /* \"#utility.yul\":1152:1185   */\n      tag_279\n      jump\t// in\n    tag_352:\n        /* \"#utility.yul\":1052:1191   */\n      swap3\n      swap2\n      pop\n      pop\n      jump\t// out\n        /* \"#utility.yul\":1197:1671   */\n    tag_36:\n        /* \"#utility.yul\":1265:1271   */\n      0x00\n        /* \"#utility.yul\":1273:1279   */\n      dup1\n        /* \"#utility.yul\":1322:1324   */\n      0x40\n        /* \"#utility.yul\":1310:1319   */\n      dup4\n        /* \"#utility.yul\":1301:1308   */\n      dup6\n        /* \"#utility.yul\":1297:1320   */\n      sub\n        /* \"#utility.yul\":1293:1325   */\n      slt\n        /* \"#utility.yul\":1290:1409   */\n      iszero\n      tag_354\n      jumpi\n        /* \"#utility.yul\":1328:1407   */\n      tag_355\n      tag_272\n      jump\t// in\n    tag_355:\n        /* \"#utility.yul\":1290:1409   */\n    tag_354:\n        /* \"#utility.yul\":1448:1449   */\n      0x00\n        /* \"#utility.yul\":1473:1526   */\n      tag_356\n        /* \"#utility.yul\":1518:1525   */\n      dup6\n        /* \"#utility.yul\":1509:1515   */\n      dup3\n        /* \"#utility.yul\":1498:1507   */\n      dup7\n        /* \"#utility.yul\":1494:1516   */\n      add\n        /* \"#utility.yul\":1473:1526   */\n      tag_277\n      jump\t// in\n    tag_356:\n        /* \"#utility.yul\":1463:1526   */\n      swap3\n      pop\n        /* \"#utility.yul\":1419:1536   */\n      pop\n        /* \"#utility.yul\":1575:1577   */\n      0x20\n        /* \"#utility.yul\":1601:1654   */\n      tag_357\n        /* \"#utility.yul\":1646:1653   */\n      dup6\n        /* \"#utility.yul\":1637:1643   */\n      dup3\n        /* \"#utility.yul\":1626:1635   */\n      dup7\n        /* \"#utility.yul\":1622:1644   */\n      add\n        /* \"#utility.yul\":1601:1654   */\n      tag_280\n      jump\t// in\n    tag_357:\n        /* \"#utility.yul\":1591:1654   */\n      swap2\n      pop\n        /* \"#utility.yul\":1546:1664   */\n      pop\n        /* \"#utility.yul\":1197:1671   */\n      swap3\n      pop\n      swap3\n      swap1\n      pop\n      jump\t// out\n        /* \"#utility.yul\":1677:1795   */\n    tag_281:\n        /* \"#utility.yul\":1764:1788   */\n      tag_359\n        /* \"#utility.yul\":1782:1787   */\n      dup2\n        /* \"#utility.yul\":1764:1788   */\n      tag_275\n      jump\t// in\n    tag_359:\n        /* \"#utility.yul\":1759:1762   */\n      dup3\n        /* \"#utility.yul\":1752:1789   */\n      mstore\n        /* \"#utility.yul\":1677:1795   */\n      pop\n      pop\n      jump\t// out\n        /* \"#utility.yul\":1801:2023   */\n    tag_39:\n        /* \"#utility.yul\":1894:1898   */\n      0x00\n        /* \"#utility.yul\":1932:1934   */\n      0x20\n        /* \"#utility.yul\":1921:1930   */\n      dup3\n        /* \"#utility.yul\":1917:1935   */\n      add\n        /* \"#utility.yul\":1909:1935   */\n      swap1\n      pop\n        /* \"#utility.yul\":1945:2016   */\n      tag_361\n        /* \"#utility.yul\":2013:2014   */\n      0x00\n        /* \"#utility.yul\":2002:2011   */\n      dup4\n        /* \"#utility.yul\":1998:2015   */\n      add\n        /* \"#utility.yul\":1989:1995   */\n      dup5\n        /* \"#utility.yul\":1945:2016   */\n      tag_281\n      jump\t// in\n    tag_361:\n        /* \"#utility.yul\":1801:2023   */\n      swap3\n      swap2\n      pop\n      pop\n      jump\t// out\n        /* \"#utility.yul\":2029:2358   */\n    tag_43:\n        /* \"#utility.yul\":2088:2094   */\n      0x00\n        /* \"#utility.yul\":2137:2139   */\n      0x20\n        /* \"#utility.yul\":2125:2134   */\n      dup3\n        /* \"#utility.yul\":2116:2123   */\n      dup5\n        /* \"#utility.yul\":2112:2135   */\n      sub\n        /* \"#utility.yul\":2108:2140   */\n      slt\n        /* \"#utility.yul\":2105:2224   */\n      iszero\n      tag_363\n      jumpi\n        /* \"#utility.yul\":2143:2222   */\n      tag_364\n      tag_272\n      jump\t// in\n    tag_364:\n        /* \"#utility.yul\":2105:2224   */\n    tag_363:\n        /* \"#utility.yul\":2263:2264   */\n      0x00\n        /* \"#utility.yul\":2288:2341   */\n      tag_365\n        /* \"#utility.yul\":2333:2340   */\n      dup5\n        /* \"#utility.yul\":2324:2330   */\n      dup3\n        /* \"#utility.yul\":2313:2322   */\n      dup6\n        /* \"#utility.yul\":2309:2331   */\n      add\n        /* \"#utility.yul\":2288:2341   */\n      tag_280\n      jump\t// in\n    tag_365:\n        /* \"#utility.yul\":2278:2341   */\n      swap2\n      pop\n        /* \"#utility.yul\":2234:2351   */\n      pop\n        /* \"#utility.yul\":2029:2358   */\n      swap3\n      swap2\n      pop\n      pop\n      jump\t// out\n        /* \"#utility.yul\":2364:2693   */\n    tag_56:\n        /* \"#utility.yul\":2423:2429   */\n      0x00\n        /* \"#utility.yul\":2472:2474   */\n      0x20\n        /* \"#utility.yul\":2460:2469   */\n      dup3\n        /* \"#utility.yul\":2451:2458   */\n      dup5\n        /* \"#utility.yul\":2447:2470   */\n      sub\n        /* \"#utility.yul\":2443:2475   */\n      slt\n        /* \"#utility.yul\":2440:2559   */\n      iszero\n      tag_367\n      jumpi\n        /* \"#utility.yul\":2478:2557   */\n      tag_368\n      tag_272\n      jump\t// in\n    tag_368:\n        /* \"#utility.yul\":2440:2559   */\n    tag_367:\n        /* \"#utility.yul\":2598:2599   */\n      0x00\n        /* \"#utility.yul\":2623:2676   */\n      tag_369\n        /* \"#utility.yul\":2668:2675   */\n      dup5\n        /* \"#utility.yul\":2659:2665   */\n      dup3\n        /* \"#utility.yul\":2648:2657   */\n      dup6\n        /* \"#utility.yul\":2644:2666   */\n      add\n        /* \"#utility.yul\":2623:2676   */\n      tag_277\n      jump\t// in\n    tag_369:\n        /* \"#utility.yul\":2613:2676   */\n      swap2\n      pop\n        /* \"#utility.yul\":2569:2686   */\n      pop\n        /* \"#utility.yul\":2364:2693   */\n      swap3\n      swap2\n      pop\n      pop\n      jump\t// out\n        /* \"#utility.yul\":2699:2817   */\n    tag_282:\n        /* \"#utility.yul\":2786:2810   */\n      tag_371\n        /* \"#utility.yul\":2804:2809   */\n      dup2\n        /* \"#utility.yul\":2786:2810   */\n      tag_278\n      jump\t// in\n    tag_371:\n        /* \"#utility.yul\":2781:2784   */\n      dup3\n        /* \"#utility.yul\":2774:2811   */\n      mstore\n        /* \"#utility.yul\":2699:2817   */\n      pop\n      pop\n      jump\t// out\n        /* \"#utility.yul\":2823:3045   */\n    tag_59:\n        /* \"#utility.yul\":2916:2920   */\n      0x00\n        /* \"#utility.yul\":2954:2956   */\n      0x20\n        /* \"#utility.yul\":2943:2952   */\n      dup3\n        /* \"#utility.yul\":2939:2957   */\n      add\n        /* \"#utility.yul\":2931:2957   */\n      swap1\n      pop\n        /* \"#utility.yul\":2967:3038   */\n      tag_373\n        /* \"#utility.yul\":3035:3036   */\n      0x00\n        /* \"#utility.yul\":3024:3033   */\n      dup4\n        /* \"#utility.yul\":3020:3037   */\n      add\n        /* \"#utility.yul\":3011:3017   */\n      dup5\n        /* \"#utility.yul\":2967:3038   */\n      tag_282\n      jump\t// in\n    tag_373:\n        /* \"#utility.yul\":2823:3045   */\n      swap3\n      swap2\n      pop\n      pop\n      jump\t// out\n        /* \"#utility.yul\":3051:3525   */\n    tag_72:\n        /* \"#utility.yul\":3119:3125   */\n      0x00\n        /* \"#utility.yul\":3127:3133   */\n      dup1\n        /* \"#utility.yul\":3176:3178   */\n      0x40\n        /* \"#utility.yul\":3164:3173   */\n      dup4\n        /* \"#utility.yul\":3155:3162   */\n      dup6\n        /* \"#utility.yul\":3151:3174   */\n      sub\n        /* \"#utility.yul\":3147:3179   */\n      slt\n        /* \"#utility.yul\":3144:3263   */\n      iszero\n      tag_375\n      jumpi\n        /* \"#utility.yul\":3182:3261   */\n      tag_376\n      tag_272\n      jump\t// in\n    tag_376:\n        /* \"#utility.yul\":3144:3263   */\n    tag_375:\n        /* \"#utility.yul\":3302:3303   */\n      0x00\n        /* \"#utility.yul\":3327:3380   */\n      tag_377\n        /* \"#utility.yul\":3372:3379   */\n      dup6\n        /* \"#utility.yul\":3363:3369   */\n      dup3\n        /* \"#utility.yul\":3352:3361   */\n      dup7\n        /* \"#utility.yul\":3348:3370   */\n      add\n        /* \"#utility.yul\":3327:3380   */\n      tag_277\n      jump\t// in\n    tag_377:\n        /* \"#utility.yul\":3317:3380   */\n      swap3\n      pop\n        /* \"#utility.yul\":3273:3390   */\n      pop\n        /* \"#utility.yul\":3429:3431   */\n      0x20\n        /* \"#utility.yul\":3455:3508   */\n      tag_378\n        /* \"#utility.yul\":3500:3507   */\n      dup6\n        /* \"#utility.yul\":3491:3497   */\n      dup3\n        /* \"#utility.yul\":3480:3489   */\n      dup7\n        /* \"#utility.yul\":3476:3498   */\n      add\n        /* \"#utility.yul\":3455:3508   */\n      tag_277\n      jump\t// in\n    tag_378:\n        /* \"#utility.yul\":3445:3508   */\n      swap2\n      pop\n        /* \"#utility.yul\":3400:3518   */\n      pop\n        /* \"#utility.yul\":3051:3525   */\n      swap3\n      pop\n      swap3\n      swap1\n      pop\n      jump\t// out\n        /* \"#utility.yul\":3531:3648   */\n    tag_283:\n        /* \"#utility.yul\":3640:3641   */\n      0x00\n        /* \"#utility.yul\":3637:3638   */\n      dup1\n        /* \"#utility.yul\":3630:3642   */\n      revert\n        /* \"#utility.yul\":3654:3771   */\n    tag_284:\n        /* \"#utility.yul\":3763:3764   */\n      0x00\n        /* \"#utility.yul\":3760:3761   */\n      dup1\n        /* \"#utility.yul\":3753:3765   */\n      revert\n        /* \"#utility.yul\":3777:3879   */\n    tag_285:\n        /* \"#utility.yul\":3818:3824   */\n      0x00\n        /* \"#utility.yul\":3869:3871   */\n      0x1f\n        /* \"#utility.yul\":3865:3872   */\n      not\n        /* \"#utility.yul\":3860:3862   */\n      0x1f\n        /* \"#utility.yul\":3853:3858   */\n      dup4\n        /* \"#utility.yul\":3849:3863   */\n      add\n        /* \"#utility.yul\":3845:3873   */\n      and\n        /* \"#utility.yul\":3835:3873   */\n      swap1\n      pop\n        /* \"#utility.yul\":3777:3879   */\n      swap2\n      swap1\n      pop\n      jump\t// out\n        /* \"#utility.yul\":3885:4065   */\n    tag_286:\n        /* \"#utility.yul\":3933:4010   */\n      0x4e487b7100000000000000000000000000000000000000000000000000000000\n        /* \"#utility.yul\":3930:3931   */\n      0x00\n        /* \"#utility.yul\":3923:4011   */\n      mstore\n        /* \"#utility.yul\":4030:4034   */\n      0x41\n        /* \"#utility.yul\":4027:4028   */\n      0x04\n        /* \"#utility.yul\":4020:4035   */\n      mstore\n        /* \"#utility.yul\":4054:4058   */\n      0x24\n        /* \"#utility.yul\":4051:4052   */\n      0x00\n        /* \"#utility.yul\":4044:4059   */\n      revert\n        /* \"#utility.yul\":4071:4352   */\n    tag_287:\n        /* \"#utility.yul\":4154:4181   */\n      tag_384\n        /* \"#utility.yul\":4176:4180   */\n      dup3\n        /* \"#utility.yul\":4154:4181   */\n      tag_285\n      jump\t// in\n    tag_384:\n        /* \"#utility.yul\":4146:4152   */\n      dup2\n        /* \"#utility.yul\":4142:4182   */\n      add\n        /* \"#utility.yul\":4284:4290   */\n      dup2\n        /* \"#utility.yul\":4272:4282   */\n      dup2\n        /* \"#utility.yul\":4269:4291   */\n      lt\n        /* \"#utility.yul\":4248:4266   */\n      0xffffffffffffffff\n        /* \"#utility.yul\":4236:4246   */\n      dup3\n        /* \"#utility.yul\":4233:4267   */\n      gt\n        /* \"#utility.yul\":4230:4292   */\n      or\n        /* \"#utility.yul\":4227:4315   */\n      iszero\n      tag_385\n      jumpi\n        /* \"#utility.yul\":4295:4313   */\n      tag_386\n      tag_286\n      jump\t// in\n    tag_386:\n        /* \"#utility.yul\":4227:4315   */\n    tag_385:\n        /* \"#utility.yul\":4335:4345   */\n      dup1\n        /* \"#utility.yul\":4331:4333   */\n      0x40\n        /* \"#utility.yul\":4324:4346   */\n      mstore\n        /* \"#utility.yul\":4114:4352   */\n      pop\n        /* \"#utility.yul\":4071:4352   */\n      pop\n      pop\n      jump\t// out\n        /* \"#utility.yul\":4358:4487   */\n    tag_288:\n        /* \"#utility.yul\":4392:4398   */\n      0x00\n        /* \"#utility.yul\":4419:4439   */\n      tag_388\n      tag_271\n      jump\t// in\n    tag_388:\n        /* \"#utility.yul\":4409:4439   */\n      swap1\n      pop\n        /* \"#utility.yul\":4448:4481   */\n      tag_389\n        /* \"#utility.yul\":4476:4480   */\n      dup3\n        /* \"#utility.yul\":4468:4474   */\n      dup3\n        /* \"#utility.yul\":4448:4481   */\n      tag_287\n      jump\t// in\n    tag_389:\n        /* \"#utility.yul\":4358:4487   */\n      swap2\n      swap1\n      pop\n      jump\t// out\n        /* \"#utility.yul\":4493:4801   */\n    tag_289:\n        /* \"#utility.yul\":4555:4559   */\n      0x00\n        /* \"#utility.yul\":4645:4663   */\n      0xffffffffffffffff\n        /* \"#utility.yul\":4637:4643   */\n      dup3\n        /* \"#utility.yul\":4634:4664   */\n      gt\n        /* \"#utility.yul\":4631:4687   */\n      iszero\n      tag_391\n      jumpi\n        /* \"#utility.yul\":4667:4685   */\n      tag_392\n      tag_286\n      jump\t// in\n    tag_392:\n        /* \"#utility.yul\":4631:4687   */\n    tag_391:\n        /* \"#utility.yul\":4705:4734   */\n      tag_393\n        /* \"#utility.yul\":4727:4733   */\n      dup3\n        /* \"#utility.yul\":4705:4734   */\n      tag_285\n      jump\t// in\n    tag_393:\n        /* \"#utility.yul\":4697:4734   */\n      swap1\n      pop\n        /* \"#utility.yul\":4789:4793   */\n      0x20\n        /* \"#utility.yul\":4783:4787   */\n      dup2\n        /* \"#utility.yul\":4779:4794   */\n      add\n        /* \"#utility.yul\":4771:4794   */\n      swap1\n      pop\n        /* \"#utility.yul\":4493:4801   */\n      swap2\n      swap1\n      pop\n      jump\t// out\n        /* \"#utility.yul\":4807:4953   */\n    tag_290:\n        /* \"#utility.yul\":4904:4910   */\n      dup3\n        /* \"#utility.yul\":4899:4902   */\n      dup2\n        /* \"#utility.yul\":4894:4897   */\n      dup4\n        /* \"#utility.yul\":4881:4911   */\n      calldatacopy\n        /* \"#utility.yul\":4945:4946   */\n      0x00\n        /* \"#utility.yul\":4936:4942   */\n      dup4\n        /* \"#utility.yul\":4931:4934   */\n      dup4\n        /* \"#utility.yul\":4927:4943   */\n      add\n        /* \"#utility.yul\":4920:4947   */\n      mstore\n        /* \"#utility.yul\":4807:4953   */\n      pop\n      pop\n      pop\n      jump\t// out\n        /* \"#utility.yul\":4959:5384   */\n    tag_291:\n        /* \"#utility.yul\":5037:5042   */\n      0x00\n        /* \"#utility.yul\":5062:5128   */\n      tag_396\n        /* \"#utility.yul\":5078:5127   */\n      tag_397\n        /* \"#utility.yul\":5120:5126   */\n      dup5\n        /* \"#utility.yul\":5078:5127   */\n      tag_289\n      jump\t// in\n    tag_397:\n        /* \"#utility.yul\":5062:5128   */\n      tag_288\n      jump\t// in\n    tag_396:\n        /* \"#utility.yul\":5053:5128   */\n      swap1\n      pop\n        /* \"#utility.yul\":5151:5157   */\n      dup3\n        /* \"#utility.yul\":5144:5149   */\n      dup2\n        /* \"#utility.yul\":5137:5158   */\n      mstore\n        /* \"#utility.yul\":5189:5193   */\n      0x20\n        /* \"#utility.yul\":5182:5187   */\n      dup2\n        /* \"#utility.yul\":5178:5194   */\n      add\n        /* \"#utility.yul\":5227:5230   */\n      dup5\n        /* \"#utility.yul\":5218:5224   */\n      dup5\n        /* \"#utility.yul\":5213:5216   */\n      dup5\n        /* \"#utility.yul\":5209:5225   */\n      add\n        /* \"#utility.yul\":5206:5231   */\n      gt\n        /* \"#utility.yul\":5203:5315   */\n      iszero\n      tag_398\n      jumpi\n        /* \"#utility.yul\":5234:5313   */\n      tag_399\n      tag_284\n      jump\t// in\n    tag_399:\n        /* \"#utility.yul\":5203:5315   */\n    tag_398:\n        /* \"#utility.yul\":5324:5378   */\n      tag_400\n        /* \"#utility.yul\":5371:5377   */\n      dup5\n        /* \"#utility.yul\":5366:5369   */\n      dup3\n        /* \"#utility.yul\":5361:5364   */\n      dup6\n        /* \"#utility.yul\":5324:5378   */\n      tag_290\n      jump\t// in\n    tag_400:\n        /* \"#utility.yul\":5043:5384   */\n      pop\n        /* \"#utility.yul\":4959:5384   */\n      swap4\n      swap3\n      pop\n      pop\n      pop\n      jump\t// out\n        /* \"#utility.yul\":5404:5744   */\n    tag_292:\n        /* \"#utility.yul\":5460:5465   */\n      0x00\n        /* \"#utility.yul\":5509:5512   */\n      dup3\n        /* \"#utility.yul\":5502:5506   */\n      0x1f\n        /* \"#utility.yul\":5494:5500   */\n      dup4\n        /* \"#utility.yul\":5490:5507   */\n      add\n        /* \"#utility.yul\":5486:5513   */\n      slt\n        /* \"#utility.yul\":5476:5598   */\n      tag_402\n      jumpi\n        /* \"#utility.yul\":5517:5596   */\n      tag_403\n      tag_283\n      jump\t// in\n    tag_403:\n        /* \"#utility.yul\":5476:5598   */\n    tag_402:\n        /* \"#utility.yul\":5634:5640   */\n      dup2\n        /* \"#utility.yul\":5621:5641   */\n      calldataload\n        /* \"#utility.yul\":5659:5738   */\n      tag_404\n        /* \"#utility.yul\":5734:5737   */\n      dup5\n        /* \"#utility.yul\":5726:5732   */\n      dup3\n        /* \"#utility.yul\":5719:5723   */\n      0x20\n        /* \"#utility.yul\":5711:5717   */\n      dup7\n        /* \"#utility.yul\":5707:5724   */\n      add\n        /* \"#utility.yul\":5659:5738   */\n      tag_291\n      jump\t// in\n    tag_404:\n        /* \"#utility.yul\":5650:5738   */\n      swap2\n      pop\n        /* \"#utility.yul\":5466:5744   */\n      pop\n        /* \"#utility.yul\":5404:5744   */\n      swap3\n      swap2\n      pop\n      pop\n      jump\t// out\n        /* \"#utility.yul\":5750:6549   */\n    tag_88:\n        /* \"#utility.yul\":5837:5843   */\n      0x00\n        /* \"#utility.yul\":5845:5851   */\n      dup1\n        /* \"#utility.yul\":5853:5859   */\n      0x00\n        /* \"#utility.yul\":5902:5904   */\n      0x60\n        /* \"#utility.yul\":5890:5899   */\n      dup5\n        /* \"#utility.yul\":5881:5888   */\n      dup7\n        /* \"#utility.yul\":5877:5900   */\n      sub\n        /* \"#utility.yul\":5873:5905   */\n      slt\n        /* \"#utility.yul\":5870:5989   */\n      iszero\n      tag_406\n      jumpi\n        /* \"#utility.yul\":5908:5987   */\n      tag_407\n      tag_272\n      jump\t// in\n    tag_407:\n        /* \"#utility.yul\":5870:5989   */\n    tag_406:\n        /* \"#utility.yul\":6056:6057   */\n      0x00\n        /* \"#utility.yul\":6045:6054   */\n      dup5\n        /* \"#utility.yul\":6041:6058   */\n      add\n        /* \"#utility.yul\":6028:6059   */\n      calldataload\n        /* \"#utility.yul\":6086:6104   */\n      0xffffffffffffffff\n        /* \"#utility.yul\":6078:6084   */\n      dup2\n        /* \"#utility.yul\":6075:6105   */\n      gt\n        /* \"#utility.yul\":6072:6189   */\n      iszero\n      tag_408\n      jumpi\n        /* \"#utility.yul\":6108:6187   */\n      tag_409\n      tag_273\n      jump\t// in\n    tag_409:\n        /* \"#utility.yul\":6072:6189   */\n    tag_408:\n        /* \"#utility.yul\":6213:6276   */\n      tag_410\n        /* \"#utility.yul\":6268:6275   */\n      dup7\n        /* \"#utility.yul\":6259:6265   */\n      dup3\n        /* \"#utility.yul\":6248:6257   */\n      dup8\n        /* \"#utility.yul\":6244:6266   */\n      add\n        /* \"#utility.yul\":6213:6276   */\n      tag_292\n      jump\t// in\n    tag_410:\n        /* \"#utility.yul\":6203:6276   */\n      swap4\n      pop\n        /* \"#utility.yul\":5999:6286   */\n      pop\n        /* \"#utility.yul\":6325:6327   */\n      0x20\n        /* \"#utility.yul\":6351:6404   */\n      tag_411\n        /* \"#utility.yul\":6396:6403   */\n      dup7\n        /* \"#utility.yul\":6387:6393   */\n      dup3\n        /* \"#utility.yul\":6376:6385   */\n      dup8\n        /* \"#utility.yul\":6372:6394   */\n      add\n        /* \"#utility.yul\":6351:6404   */\n      tag_280\n      jump\t// in\n    tag_411:\n        /* \"#utility.yul\":6341:6404   */\n      swap3\n      pop\n        /* \"#utility.yul\":6296:6414   */\n      pop\n        /* \"#utility.yul\":6453:6455   */\n      0x40\n        /* \"#utility.yul\":6479:6532   */\n      tag_412\n        /* \"#utility.yul\":6524:6531   */\n      dup7\n        /* \"#utility.yul\":6515:6521   */\n      dup3\n        /* \"#utility.yul\":6504:6513   */\n      dup8\n        /* \"#utility.yul\":6500:6522   */\n      add\n        /* \"#utility.yul\":6479:6532   */\n      tag_277\n      jump\t// in\n    tag_412:\n        /* \"#utility.yul\":6469:6532   */\n      swap2\n      pop\n        /* \"#utility.yul\":6424:6542   */\n      pop\n        /* \"#utility.yul\":5750:6549   */\n      swap3\n      pop\n      swap3\n      pop\n      swap3\n      jump\t// out\n        /* \"#utility.yul\":6555:6659   */\n    tag_293:\n        /* \"#utility.yul\":6600:6607   */\n      0x00\n        /* \"#utility.yul\":6629:6653   */\n      tag_414\n        /* \"#utility.yul\":6647:6652   */\n      dup3\n        /* \"#utility.yul\":6629:6653   */\n      tag_274\n      jump\t// in\n    tag_414:\n        /* \"#utility.yul\":6618:6653   */\n      swap1\n      pop\n        /* \"#utility.yul\":6555:6659   */\n      swap2\n      swap1\n      pop\n      jump\t// out\n        /* \"#utility.yul\":6665:6803   */\n    tag_294:\n        /* \"#utility.yul\":6746:6778   */\n      tag_416\n        /* \"#utility.yul\":6772:6777   */\n      dup2\n        /* \"#utility.yul\":6746:6778   */\n      tag_293\n      jump\t// in\n    tag_416:\n        /* \"#utility.yul\":6739:6744   */\n      dup2\n        /* \"#utility.yul\":6736:6779   */\n      eq\n        /* \"#utility.yul\":6726:6797   */\n      tag_417\n      jumpi\n        /* \"#utility.yul\":6793:6794   */\n      0x00\n        /* \"#utility.yul\":6790:6791   */\n      dup1\n        /* \"#utility.yul\":6783:6795   */\n      revert\n        /* \"#utility.yul\":6726:6797   */\n    tag_417:\n        /* \"#utility.yul\":6665:6803   */\n      pop\n      jump\t// out\n        /* \"#utility.yul\":6809:6964   */\n    tag_295:\n        /* \"#utility.yul\":6863:6868   */\n      0x00\n        /* \"#utility.yul\":6901:6907   */\n      dup2\n        /* \"#utility.yul\":6888:6908   */\n      calldataload\n        /* \"#utility.yul\":6879:6908   */\n      swap1\n      pop\n        /* \"#utility.yul\":6917:6958   */\n      tag_419\n        /* \"#utility.yul\":6952:6957   */\n      dup2\n        /* \"#utility.yul\":6917:6958   */\n      tag_294\n      jump\t// in\n    tag_419:\n        /* \"#utility.yul\":6809:6964   */\n      swap3\n      swap2\n      pop\n      pop\n      jump\t// out\n        /* \"#utility.yul\":6970:7460   */\n    tag_97:\n        /* \"#utility.yul\":7046:7052   */\n      0x00\n        /* \"#utility.yul\":7054:7060   */\n      dup1\n        /* \"#utility.yul\":7103:7105   */\n      0x40\n        /* \"#utility.yul\":7091:7100   */\n      dup4\n        /* \"#utility.yul\":7082:7089   */\n      dup6\n        /* \"#utility.yul\":7078:7101   */\n      sub\n        /* \"#utility.yul\":7074:7106   */\n      slt\n        /* \"#utility.yul\":7071:7190   */\n      iszero\n      tag_421\n      jumpi\n        /* \"#utility.yul\":7109:7188   */\n      tag_422\n      tag_272\n      jump\t// in\n    tag_422:\n        /* \"#utility.yul\":7071:7190   */\n    tag_421:\n        /* \"#utility.yul\":7229:7230   */\n      0x00\n        /* \"#utility.yul\":7254:7307   */\n      tag_423\n        /* \"#utility.yul\":7299:7306   */\n      dup6\n        /* \"#utility.yul\":7290:7296   */\n      dup3\n        /* \"#utility.yul\":7279:7288   */\n      dup7\n        /* \"#utility.yul\":7275:7297   */\n      add\n        /* \"#utility.yul\":7254:7307   */\n      tag_280\n      jump\t// in\n    tag_423:\n        /* \"#utility.yul\":7244:7307   */\n      swap3\n      pop\n        /* \"#utility.yul\":7200:7317   */\n      pop\n        /* \"#utility.yul\":7356:7358   */\n      0x20\n        /* \"#utility.yul\":7382:7443   */\n      tag_424\n        /* \"#utility.yul\":7435:7442   */\n      dup6\n        /* \"#utility.yul\":7426:7432   */\n      dup3\n        /* \"#utility.yul\":7415:7424   */\n      dup7\n        /* \"#utility.yul\":7411:7433   */\n      add\n        /* \"#utility.yul\":7382:7443   */\n      tag_295\n      jump\t// in\n    tag_424:\n        /* \"#utility.yul\":7372:7443   */\n      swap2\n      pop\n        /* \"#utility.yul\":7327:7453   */\n      pop\n        /* \"#utility.yul\":6970:7460   */\n      swap3\n      pop\n      swap3\n      swap1\n      pop\n      jump\t// out\n        /* \"#utility.yul\":7466:7565   */\n    tag_296:\n        /* \"#utility.yul\":7518:7524   */\n      0x00\n        /* \"#utility.yul\":7552:7557   */\n      dup2\n        /* \"#utility.yul\":7546:7558   */\n      mload\n        /* \"#utility.yul\":7536:7558   */\n      swap1\n      pop\n        /* \"#utility.yul\":7466:7565   */\n      swap2\n      swap1\n      pop\n      jump\t// out\n        /* \"#utility.yul\":7571:7740   */\n    tag_297:\n        /* \"#utility.yul\":7655:7666   */\n      0x00\n        /* \"#utility.yul\":7689:7695   */\n      dup3\n        /* \"#utility.yul\":7684:7687   */\n      dup3\n        /* \"#utility.yul\":7677:7696   */\n      mstore\n        /* \"#utility.yul\":7729:7733   */\n      0x20\n        /* \"#utility.yul\":7724:7727   */\n      dup3\n        /* \"#utility.yul\":7720:7734   */\n      add\n        /* \"#utility.yul\":7705:7734   */\n      swap1\n      pop\n        /* \"#utility.yul\":7571:7740   */\n      swap3\n      swap2\n      pop\n      pop\n      jump\t// out\n        /* \"#utility.yul\":7746:7992   */\n    tag_298:\n        /* \"#utility.yul\":7827:7828   */\n      0x00\n        /* \"#utility.yul\":7837:7950   */\n    tag_428:\n        /* \"#utility.yul\":7851:7857   */\n      dup4\n        /* \"#utility.yul\":7848:7849   */\n      dup2\n        /* \"#utility.yul\":7845:7858   */\n      lt\n        /* \"#utility.yul\":7837:7950   */\n      iszero\n      tag_430\n      jumpi\n        /* \"#utility.yul\":7936:7937   */\n      dup1\n        /* \"#utility.yul\":7931:7934   */\n      dup3\n        /* \"#utility.yul\":7927:7938   */\n      add\n        /* \"#utility.yul\":7921:7939   */\n      mload\n        /* \"#utility.yul\":7917:7918   */\n      dup2\n        /* \"#utility.yul\":7912:7915   */\n      dup5\n        /* \"#utility.yul\":7908:7919   */\n      add\n        /* \"#utility.yul\":7901:7940   */\n      mstore\n        /* \"#utility.yul\":7873:7875   */\n      0x20\n        /* \"#utility.yul\":7870:7871   */\n      dup2\n        /* \"#utility.yul\":7866:7876   */\n      add\n        /* \"#utility.yul\":7861:7876   */\n      swap1\n      pop\n        /* \"#utility.yul\":7837:7950   */\n      jump(tag_428)\n    tag_430:\n        /* \"#utility.yul\":7984:7985   */\n      0x00\n        /* \"#utility.yul\":7975:7981   */\n      dup5\n        /* \"#utility.yul\":7970:7973   */\n      dup5\n        /* \"#utility.yul\":7966:7982   */\n      add\n        /* \"#utility.yul\":7959:7986   */\n      mstore\n        /* \"#utility.yul\":7808:7992   */\n      pop\n        /* \"#utility.yul\":7746:7992   */\n      pop\n      pop\n      pop\n      jump\t// out\n        /* \"#utility.yul\":7998:8375   */\n    tag_299:\n        /* \"#utility.yul\":8086:8089   */\n      0x00\n        /* \"#utility.yul\":8114:8153   */\n      tag_432\n        /* \"#utility.yul\":8147:8152   */\n      dup3\n        /* \"#utility.yul\":8114:8153   */\n      tag_296\n      jump\t// in\n    tag_432:\n        /* \"#utility.yul\":8169:8240   */\n      tag_433\n        /* \"#utility.yul\":8233:8239   */\n      dup2\n        /* \"#utility.yul\":8228:8231   */\n      dup6\n        /* \"#utility.yul\":8169:8240   */\n      tag_297\n      jump\t// in\n    tag_433:\n        /* \"#utility.yul\":8162:8240   */\n      swap4\n      pop\n        /* \"#utility.yul\":8249:8314   */\n      tag_434\n        /* \"#utility.yul\":8307:8313   */\n      dup2\n        /* \"#utility.yul\":8302:8305   */\n      dup6\n        /* \"#utility.yul\":8295:8299   */\n      0x20\n        /* \"#utility.yul\":8288:8293   */\n      dup7\n        /* \"#utility.yul\":8284:8300   */\n      add\n        /* \"#utility.yul\":8249:8314   */\n      tag_298\n      jump\t// in\n    tag_434:\n        /* \"#utility.yul\":8339:8368   */\n      tag_435\n        /* \"#utility.yul\":8361:8367   */\n      dup2\n        /* \"#utility.yul\":8339:8368   */\n      tag_285\n      jump\t// in\n    tag_435:\n        /* \"#utility.yul\":8334:8337   */\n      dup5\n        /* \"#utility.yul\":8330:8369   */\n      add\n        /* \"#utility.yul\":8323:8369   */\n      swap2\n      pop\n        /* \"#utility.yul\":8090:8375   */\n      pop\n        /* \"#utility.yul\":7998:8375   */\n      swap3\n      swap2\n      pop\n      pop\n      jump\t// out\n        /* \"#utility.yul\":8381:8471   */\n    tag_300:\n        /* \"#utility.yul\":8415:8422   */\n      0x00\n        /* \"#utility.yul\":8458:8463   */\n      dup2\n        /* \"#utility.yul\":8451:8464   */\n      iszero\n        /* \"#utility.yul\":8444:8465   */\n      iszero\n        /* \"#utility.yul\":8433:8465   */\n      swap1\n      pop\n        /* \"#utility.yul\":8381:8471   */\n      swap2\n      swap1\n      pop\n      jump\t// out\n        /* \"#utility.yul\":8477:8586   */\n    tag_301:\n        /* \"#utility.yul\":8558:8579   */\n      tag_438\n        /* \"#utility.yul\":8573:8578   */\n      dup2\n        /* \"#utility.yul\":8558:8579   */\n      tag_300\n      jump\t// in\n    tag_438:\n        /* \"#utility.yul\":8553:8556   */\n      dup3\n        /* \"#utility.yul\":8546:8580   */\n      mstore\n        /* \"#utility.yul\":8477:8586   */\n      pop\n      pop\n      jump\t// out\n        /* \"#utility.yul\":8592:9224   */\n    tag_104:\n        /* \"#utility.yul\":8783:8787   */\n      0x00\n        /* \"#utility.yul\":8821:8824   */\n      0x80\n        /* \"#utility.yul\":8810:8819   */\n      dup3\n        /* \"#utility.yul\":8806:8825   */\n      add\n        /* \"#utility.yul\":8798:8825   */\n      swap1\n      pop\n        /* \"#utility.yul\":8871:8880   */\n      dup2\n        /* \"#utility.yul\":8865:8869   */\n      dup2\n        /* \"#utility.yul\":8861:8881   */\n      sub\n        /* \"#utility.yul\":8857:8858   */\n      0x00\n        /* \"#utility.yul\":8846:8855   */\n      dup4\n        /* \"#utility.yul\":8842:8859   */\n      add\n        /* \"#utility.yul\":8835:8882   */\n      mstore\n        /* \"#utility.yul\":8899:8977   */\n      tag_440\n        /* \"#utility.yul\":8972:8976   */\n      dup2\n        /* \"#utility.yul\":8963:8969   */\n      dup8\n        /* \"#utility.yul\":8899:8977   */\n      tag_299\n      jump\t// in\n    tag_440:\n        /* \"#utility.yul\":8891:8977   */\n      swap1\n      pop\n        /* \"#utility.yul\":8987:9059   */\n      tag_441\n        /* \"#utility.yul\":9055:9057   */\n      0x20\n        /* \"#utility.yul\":9044:9053   */\n      dup4\n        /* \"#utility.yul\":9040:9058   */\n      add\n        /* \"#utility.yul\":9031:9037   */\n      dup7\n        /* \"#utility.yul\":8987:9059   */\n      tag_282\n      jump\t// in\n    tag_441:\n        /* \"#utility.yul\":9069:9135   */\n      tag_442\n        /* \"#utility.yul\":9131:9133   */\n      0x40\n        /* \"#utility.yul\":9120:9129   */\n      dup4\n        /* \"#utility.yul\":9116:9134   */\n      add\n        /* \"#utility.yul\":9107:9113   */\n      dup6\n        /* \"#utility.yul\":9069:9135   */\n      tag_301\n      jump\t// in\n    tag_442:\n        /* \"#utility.yul\":9145:9217   */\n      tag_443\n        /* \"#utility.yul\":9213:9215   */\n      0x60\n        /* \"#utility.yul\":9202:9211   */\n      dup4\n        /* \"#utility.yul\":9198:9216   */\n      add\n        /* \"#utility.yul\":9189:9195   */\n      dup5\n        /* \"#utility.yul\":9145:9217   */\n      tag_281\n      jump\t// in\n    tag_443:\n        /* \"#utility.yul\":8592:9224   */\n      swap6\n      swap5\n      pop\n      pop\n      pop\n      pop\n      pop\n      jump\t// out\n        /* \"#utility.yul\":9230:10337   */\n    tag_127:\n        /* \"#utility.yul\":9343:9349   */\n      0x00\n        /* \"#utility.yul\":9351:9357   */\n      dup1\n        /* \"#utility.yul\":9359:9365   */\n      0x00\n        /* \"#utility.yul\":9367:9373   */\n      dup1\n        /* \"#utility.yul\":9375:9381   */\n      0x00\n        /* \"#utility.yul\":9424:9427   */\n      0xa0\n        /* \"#utility.yul\":9412:9421   */\n      dup7\n        /* \"#utility.yul\":9403:9410   */\n      dup9\n        /* \"#utility.yul\":9399:9422   */\n      sub\n        /* \"#utility.yul\":9395:9428   */\n      slt\n        /* \"#utility.yul\":9392:9512   */\n      iszero\n      tag_445\n      jumpi\n        /* \"#utility.yul\":9431:9510   */\n      tag_446\n      tag_272\n      jump\t// in\n    tag_446:\n        /* \"#utility.yul\":9392:9512   */\n    tag_445:\n        /* \"#utility.yul\":9551:9552   */\n      0x00\n        /* \"#utility.yul\":9576:9637   */\n      tag_447\n        /* \"#utility.yul\":9629:9636   */\n      dup9\n        /* \"#utility.yul\":9620:9626   */\n      dup3\n        /* \"#utility.yul\":9609:9618   */\n      dup10\n        /* \"#utility.yul\":9605:9627   */\n      add\n        /* \"#utility.yul\":9576:9637   */\n      tag_295\n      jump\t// in\n    tag_447:\n        /* \"#utility.yul\":9566:9637   */\n      swap6\n      pop\n        /* \"#utility.yul\":9522:9647   */\n      pop\n        /* \"#utility.yul\":9686:9688   */\n      0x20\n        /* \"#utility.yul\":9712:9765   */\n      tag_448\n        /* \"#utility.yul\":9757:9764   */\n      dup9\n        /* \"#utility.yul\":9748:9754   */\n      dup3\n        /* \"#utility.yul\":9737:9746   */\n      dup10\n        /* \"#utility.yul\":9733:9755   */\n      add\n        /* \"#utility.yul\":9712:9765   */\n      tag_280\n      jump\t// in\n    tag_448:\n        /* \"#utility.yul\":9702:9765   */\n      swap5\n      pop\n        /* \"#utility.yul\":9657:9775   */\n      pop\n        /* \"#utility.yul\":9814:9816   */\n      0x40\n        /* \"#utility.yul\":9840:9893   */\n      tag_449\n        /* \"#utility.yul\":9885:9892   */\n      dup9\n        /* \"#utility.yul\":9876:9882   */\n      dup3\n        /* \"#utility.yul\":9865:9874   */\n      dup10\n        /* \"#utility.yul\":9861:9883   */\n      add\n        /* \"#utility.yul\":9840:9893   */\n      tag_280\n      jump\t// in\n    tag_449:\n        /* \"#utility.yul\":9830:9893   */\n      swap4\n      pop\n        /* \"#utility.yul\":9785:9903   */\n      pop\n        /* \"#utility.yul\":9942:9944   */\n      0x60\n        /* \"#utility.yul\":9968:10021   */\n      tag_450\n        /* \"#utility.yul\":10013:10020   */\n      dup9\n        /* \"#utility.yul\":10004:10010   */\n      dup3\n        /* \"#utility.yul\":9993:10002   */\n      dup10\n        /* \"#utility.yul\":9989:10011   */\n      add\n        /* \"#utility.yul\":9968:10021   */\n      tag_280\n      jump\t// in\n    tag_450:\n        /* \"#utility.yul\":9958:10021   */\n      swap3\n      pop\n        /* \"#utility.yul\":9913:10031   */\n      pop\n        /* \"#utility.yul\":10098:10101   */\n      0x80\n        /* \"#utility.yul\":10087:10096   */\n      dup7\n        /* \"#utility.yul\":10083:10102   */\n      add\n        /* \"#utility.yul\":10070:10103   */\n      calldataload\n        /* \"#utility.yul\":10130:10148   */\n      0xffffffffffffffff\n        /* \"#utility.yul\":10122:10128   */\n      dup2\n        /* \"#utility.yul\":10119:10149   */\n      gt\n        /* \"#utility.yul\":10116:10233   */\n      iszero\n      tag_451\n      jumpi\n        /* \"#utility.yul\":10152:10231   */\n      tag_452\n      tag_273\n      jump\t// in\n    tag_452:\n        /* \"#utility.yul\":10116:10233   */\n    tag_451:\n        /* \"#utility.yul\":10257:10320   */\n      tag_453\n        /* \"#utility.yul\":10312:10319   */\n      dup9\n        /* \"#utility.yul\":10303:10309   */\n      dup3\n        /* \"#utility.yul\":10292:10301   */\n      dup10\n        /* \"#utility.yul\":10288:10310   */\n      add\n        /* \"#utility.yul\":10257:10320   */\n      tag_292\n      jump\t// in\n    tag_453:\n        /* \"#utility.yul\":10247:10320   */\n      swap2\n      pop\n        /* \"#utility.yul\":10041:10330   */\n      pop\n        /* \"#utility.yul\":9230:10337   */\n      swap3\n      swap6\n      pop\n      swap3\n      swap6\n      swap1\n      swap4\n      pop\n      jump\t// out\n        /* \"#utility.yul\":10343:10523   */\n    tag_162:\n        /* \"#utility.yul\":10391:10468   */\n      0x4e487b7100000000000000000000000000000000000000000000000000000000\n        /* \"#utility.yul\":10388:10389   */\n      0x00\n        /* \"#utility.yul\":10381:10469   */\n      mstore\n        /* \"#utility.yul\":10488:10492   */\n      0x32\n        /* \"#utility.yul\":10485:10486   */\n      0x04\n        /* \"#utility.yul\":10478:10493   */\n      mstore\n        /* \"#utility.yul\":10512:10516   */\n      0x24\n        /* \"#utility.yul\":10509:10510   */\n      0x00\n        /* \"#utility.yul\":10502:10517   */\n      revert\n        /* \"#utility.yul\":10529:10750   */\n    tag_302:\n        /* \"#utility.yul\":10669:10703   */\n      0x726571756573742068617320616c7265616479206265656e2066696e616c6973\n        /* \"#utility.yul\":10665:10666   */\n      0x00\n        /* \"#utility.yul\":10657:10663   */\n      dup3\n        /* \"#utility.yul\":10653:10667   */\n      add\n        /* \"#utility.yul\":10646:10704   */\n      mstore\n        /* \"#utility.yul\":10738:10742   */\n      0x6564000000000000000000000000000000000000000000000000000000000000\n        /* \"#utility.yul\":10733:10735   */\n      0x20\n        /* \"#utility.yul\":10725:10731   */\n      dup3\n        /* \"#utility.yul\":10721:10736   */\n      add\n        /* \"#utility.yul\":10714:10743   */\n      mstore\n        /* \"#utility.yul\":10529:10750   */\n      pop\n      jump\t// out\n        /* \"#utility.yul\":10756:11122   */\n    tag_303:\n        /* \"#utility.yul\":10898:10901   */\n      0x00\n        /* \"#utility.yul\":10919:10986   */\n      tag_457\n        /* \"#utility.yul\":10983:10985   */\n      0x22\n        /* \"#utility.yul\":10978:10981   */\n      dup4\n        /* \"#utility.yul\":10919:10986   */\n      tag_297\n      jump\t// in\n    tag_457:\n        /* \"#utility.yul\":10912:10986   */\n      swap2\n      pop\n        /* \"#utility.yul\":10995:11088   */\n      tag_458\n        /* \"#utility.yul\":11084:11087   */\n      dup3\n        /* \"#utility.yul\":10995:11088   */\n      tag_302\n      jump\t// in\n    tag_458:\n        /* \"#utility.yul\":11113:11115   */\n      0x40\n        /* \"#utility.yul\":11108:11111   */\n      dup3\n        /* \"#utility.yul\":11104:11116   */\n      add\n        /* \"#utility.yul\":11097:11116   */\n      swap1\n      pop\n        /* \"#utility.yul\":10756:11122   */\n      swap2\n      swap1\n      pop\n      jump\t// out\n        /* \"#utility.yul\":11128:11547   */\n    tag_166:\n        /* \"#utility.yul\":11294:11298   */\n      0x00\n        /* \"#utility.yul\":11332:11334   */\n      0x20\n        /* \"#utility.yul\":11321:11330   */\n      dup3\n        /* \"#utility.yul\":11317:11335   */\n      add\n        /* \"#utility.yul\":11309:11335   */\n      swap1\n      pop\n        /* \"#utility.yul\":11381:11390   */\n      dup2\n        /* \"#utility.yul\":11375:11379   */\n      dup2\n        /* \"#utility.yul\":11371:11391   */\n      sub\n        /* \"#utility.yul\":11367:11368   */\n      0x00\n        /* \"#utility.yul\":11356:11365   */\n      dup4\n        /* \"#utility.yul\":11352:11369   */\n      add\n        /* \"#utility.yul\":11345:11392   */\n      mstore\n        /* \"#utility.yul\":11409:11540   */\n      tag_460\n        /* \"#utility.yul\":11535:11539   */\n      dup2\n        /* \"#utility.yul\":11409:11540   */\n      tag_303\n      jump\t// in\n    tag_460:\n        /* \"#utility.yul\":11401:11540   */\n      swap1\n      pop\n        /* \"#utility.yul\":11128:11547   */\n      swap2\n      swap1\n      pop\n      jump\t// out\n        /* \"#utility.yul\":11553:11721   */\n    tag_304:\n        /* \"#utility.yul\":11693:11713   */\n      0x496e73756666696369656e742066756e64730000000000000000000000000000\n        /* \"#utility.yul\":11689:11690   */\n      0x00\n        /* \"#utility.yul\":11681:11687   */\n      dup3\n        /* \"#utility.yul\":11677:11691   */\n      add\n        /* \"#utility.yul\":11670:11714   */\n      mstore\n        /* \"#utility.yul\":11553:11721   */\n      pop\n      jump\t// out\n        /* \"#utility.yul\":11727:12093   */\n    tag_305:\n        /* \"#utility.yul\":11869:11872   */\n      0x00\n        /* \"#utility.yul\":11890:11957   */\n      tag_463\n        /* \"#utility.yul\":11954:11956   */\n      0x12\n        /* \"#utility.yul\":11949:11952   */\n      dup4\n        /* \"#utility.yul\":11890:11957   */\n      tag_297\n      jump\t// in\n    tag_463:\n        /* \"#utility.yul\":11883:11957   */\n      swap2\n      pop\n        /* \"#utility.yul\":11966:12059   */\n      tag_464\n        /* \"#utility.yul\":12055:12058   */\n      dup3\n        /* \"#utility.yul\":11966:12059   */\n      tag_304\n      jump\t// in\n    tag_464:\n        /* \"#utility.yul\":12084:12086   */\n      0x20\n        /* \"#utility.yul\":12079:12082   */\n      dup3\n        /* \"#utility.yul\":12075:12087   */\n      add\n        /* \"#utility.yul\":12068:12087   */\n      swap1\n      pop\n        /* \"#utility.yul\":11727:12093   */\n      swap2\n      swap1\n      pop\n      jump\t// out\n        /* \"#utility.yul\":12099:12518   */\n    tag_170:\n        /* \"#utility.yul\":12265:12269   */\n      0x00\n        /* \"#utility.yul\":12303:12305   */\n      0x20\n        /* \"#utility.yul\":12292:12301   */\n      dup3\n        /* \"#utility.yul\":12288:12306   */\n      add\n        /* \"#utility.yul\":12280:12306   */\n      swap1\n      pop\n        /* \"#utility.yul\":12352:12361   */\n      dup2\n        /* \"#utility.yul\":12346:12350   */\n      dup2\n        /* \"#utility.yul\":12342:12362   */\n      sub\n        /* \"#utility.yul\":12338:12339   */\n      0x00\n        /* \"#utility.yul\":12327:12336   */\n      dup4\n        /* \"#utility.yul\":12323:12340   */\n      add\n        /* \"#utility.yul\":12316:12363   */\n      mstore\n        /* \"#utility.yul\":12380:12511   */\n      tag_466\n        /* \"#utility.yul\":12506:12510   */\n      dup2\n        /* \"#utility.yul\":12380:12511   */\n      tag_305\n      jump\t// in\n    tag_466:\n        /* \"#utility.yul\":12372:12511   */\n      swap1\n      pop\n        /* \"#utility.yul\":12099:12518   */\n      swap2\n      swap1\n      pop\n      jump\t// out\n        /* \"#utility.yul\":12524:12748   */\n    tag_306:\n        /* \"#utility.yul\":12664:12698   */\n      0x7472616e73616374696f6e2077697468203020657468206973206e6f7420616c\n        /* \"#utility.yul\":12660:12661   */\n      0x00\n        /* \"#utility.yul\":12652:12658   */\n      dup3\n        /* \"#utility.yul\":12648:12662   */\n      add\n        /* \"#utility.yul\":12641:12699   */\n      mstore\n        /* \"#utility.yul\":12733:12740   */\n      0x6c6f776564000000000000000000000000000000000000000000000000000000\n        /* \"#utility.yul\":12728:12730   */\n      0x20\n        /* \"#utility.yul\":12720:12726   */\n      dup3\n        /* \"#utility.yul\":12716:12731   */\n      add\n        /* \"#utility.yul\":12709:12741   */\n      mstore\n        /* \"#utility.yul\":12524:12748   */\n      pop\n      jump\t// out\n        /* \"#utility.yul\":12754:13120   */\n    tag_307:\n        /* \"#utility.yul\":12896:12899   */\n      0x00\n        /* \"#utility.yul\":12917:12984   */\n      tag_469\n        /* \"#utility.yul\":12981:12983   */\n      0x25\n        /* \"#utility.yul\":12976:12979   */\n      dup4\n        /* \"#utility.yul\":12917:12984   */\n      tag_297\n      jump\t// in\n    tag_469:\n        /* \"#utility.yul\":12910:12984   */\n      swap2\n      pop\n        /* \"#utility.yul\":12993:13086   */\n      tag_470\n        /* \"#utility.yul\":13082:13085   */\n      dup3\n        /* \"#utility.yul\":12993:13086   */\n      tag_306\n      jump\t// in\n    tag_470:\n        /* \"#utility.yul\":13111:13113   */\n      0x40\n        /* \"#utility.yul\":13106:13109   */\n      dup3\n        /* \"#utility.yul\":13102:13114   */\n      add\n        /* \"#utility.yul\":13095:13114   */\n      swap1\n      pop\n        /* \"#utility.yul\":12754:13120   */\n      swap2\n      swap1\n      pop\n      jump\t// out\n        /* \"#utility.yul\":13126:13545   */\n    tag_173:\n        /* \"#utility.yul\":13292:13296   */\n      0x00\n        /* \"#utility.yul\":13330:13332   */\n      0x20\n        /* \"#utility.yul\":13319:13328   */\n      dup3\n        /* \"#utility.yul\":13315:13333   */\n      add\n        /* \"#utility.yul\":13307:13333   */\n      swap1\n      pop\n        /* \"#utility.yul\":13379:13388   */\n      dup2\n        /* \"#utility.yul\":13373:13377   */\n      dup2\n        /* \"#utility.yul\":13369:13389   */\n      sub\n        /* \"#utility.yul\":13365:13366   */\n      0x00\n        /* \"#utility.yul\":13354:13363   */\n      dup4\n        /* \"#utility.yul\":13350:13367   */\n      add\n        /* \"#utility.yul\":13343:13390   */\n      mstore\n        /* \"#utility.yul\":13407:13538   */\n      tag_472\n        /* \"#utility.yul\":13533:13537   */\n      dup2\n        /* \"#utility.yul\":13407:13538   */\n      tag_307\n      jump\t// in\n    tag_472:\n        /* \"#utility.yul\":13399:13538   */\n      swap1\n      pop\n        /* \"#utility.yul\":13126:13545   */\n      swap2\n      swap1\n      pop\n      jump\t// out\n        /* \"#utility.yul\":13551:13731   */\n    tag_308:\n        /* \"#utility.yul\":13599:13676   */\n      0x4e487b7100000000000000000000000000000000000000000000000000000000\n        /* \"#utility.yul\":13596:13597   */\n      0x00\n        /* \"#utility.yul\":13589:13677   */\n      mstore\n        /* \"#utility.yul\":13696:13700   */\n      0x11\n        /* \"#utility.yul\":13693:13694   */\n      0x04\n        /* \"#utility.yul\":13686:13701   */\n      mstore\n        /* \"#utility.yul\":13720:13724   */\n      0x24\n        /* \"#utility.yul\":13717:13718   */\n      0x00\n        /* \"#utility.yul\":13710:13725   */\n      revert\n        /* \"#utility.yul\":13737:13931   */\n    tag_177:\n        /* \"#utility.yul\":13777:13781   */\n      0x00\n        /* \"#utility.yul\":13797:13817   */\n      tag_475\n        /* \"#utility.yul\":13815:13816   */\n      dup3\n        /* \"#utility.yul\":13797:13817   */\n      tag_278\n      jump\t// in\n    tag_475:\n        /* \"#utility.yul\":13792:13817   */\n      swap2\n      pop\n        /* \"#utility.yul\":13831:13851   */\n      tag_476\n        /* \"#utility.yul\":13849:13850   */\n      dup4\n        /* \"#utility.yul\":13831:13851   */\n      tag_278\n      jump\t// in\n    tag_476:\n        /* \"#utility.yul\":13826:13851   */\n      swap3\n      pop\n        /* \"#utility.yul\":13875:13876   */\n      dup3\n        /* \"#utility.yul\":13872:13873   */\n      dup3\n        /* \"#utility.yul\":13868:13877   */\n      sub\n        /* \"#utility.yul\":13860:13877   */\n      swap1\n      pop\n        /* \"#utility.yul\":13899:13900   */\n      dup2\n        /* \"#utility.yul\":13893:13897   */\n      dup2\n        /* \"#utility.yul\":13890:13901   */\n      gt\n        /* \"#utility.yul\":13887:13924   */\n      iszero\n      tag_477\n      jumpi\n        /* \"#utility.yul\":13904:13922   */\n      tag_478\n      tag_308\n      jump\t// in\n    tag_478:\n        /* \"#utility.yul\":13887:13924   */\n    tag_477:\n        /* \"#utility.yul\":13737:13931   */\n      swap3\n      swap2\n      pop\n      pop\n      jump\t// out\n        /* \"#utility.yul\":13937:14172   */\n    tag_309:\n        /* \"#utility.yul\":14077:14111   */\n      0x596f752068617665207573656420616c6c20746865206d6f6e65792074686174\n        /* \"#utility.yul\":14073:14074   */\n      0x00\n        /* \"#utility.yul\":14065:14071   */\n      dup3\n        /* \"#utility.yul\":14061:14075   */\n      add\n        /* \"#utility.yul\":14054:14112   */\n      mstore\n        /* \"#utility.yul\":14146:14164   */\n      0x20776173206c656e7420746f20796f7500000000000000000000000000000000\n        /* \"#utility.yul\":14141:14143   */\n      0x20\n        /* \"#utility.yul\":14133:14139   */\n      dup3\n        /* \"#utility.yul\":14129:14144   */\n      add\n        /* \"#utility.yul\":14122:14165   */\n      mstore\n        /* \"#utility.yul\":13937:14172   */\n      pop\n      jump\t// out\n        /* \"#utility.yul\":14178:14544   */\n    tag_310:\n        /* \"#utility.yul\":14320:14323   */\n      0x00\n        /* \"#utility.yul\":14341:14408   */\n      tag_481\n        /* \"#utility.yul\":14405:14407   */\n      0x30\n        /* \"#utility.yul\":14400:14403   */\n      dup4\n        /* \"#utility.yul\":14341:14408   */\n      tag_297\n      jump\t// in\n    tag_481:\n        /* \"#utility.yul\":14334:14408   */\n      swap2\n      pop\n        /* \"#utility.yul\":14417:14510   */\n      tag_482\n        /* \"#utility.yul\":14506:14509   */\n      dup3\n        /* \"#utility.yul\":14417:14510   */\n      tag_309\n      jump\t// in\n    tag_482:\n        /* \"#utility.yul\":14535:14537   */\n      0x40\n        /* \"#utility.yul\":14530:14533   */\n      dup3\n        /* \"#utility.yul\":14526:14538   */\n      add\n        /* \"#utility.yul\":14519:14538   */\n      swap1\n      pop\n        /* \"#utility.yul\":14178:14544   */\n      swap2\n      swap1\n      pop\n      jump\t// out\n        /* \"#utility.yul\":14550:14969   */\n    tag_188:\n        /* \"#utility.yul\":14716:14720   */\n      0x00\n        /* \"#utility.yul\":14754:14756   */\n      0x20\n        /* \"#utility.yul\":14743:14752   */\n      dup3\n        /* \"#utility.yul\":14739:14757   */\n      add\n        /* \"#utility.yul\":14731:14757   */\n      swap1\n      pop\n        /* \"#utility.yul\":14803:14812   */\n      dup2\n        /* \"#utility.yul\":14797:14801   */\n      dup2\n        /* \"#utility.yul\":14793:14813   */\n      sub\n        /* \"#utility.yul\":14789:14790   */\n      0x00\n        /* \"#utility.yul\":14778:14787   */\n      dup4\n        /* \"#utility.yul\":14774:14791   */\n      add\n        /* \"#utility.yul\":14767:14814   */\n      mstore\n        /* \"#utility.yul\":14831:14962   */\n      tag_484\n        /* \"#utility.yul\":14957:14961   */\n      dup2\n        /* \"#utility.yul\":14831:14962   */\n      tag_310\n      jump\t// in\n    tag_484:\n        /* \"#utility.yul\":14823:14962   */\n      swap1\n      pop\n        /* \"#utility.yul\":14550:14969   */\n      swap2\n      swap1\n      pop\n      jump\t// out\n        /* \"#utility.yul\":14975:15222   */\n    tag_311:\n        /* \"#utility.yul\":15115:15149   */\n      0x796f75206172652061736b696e6720666f72206d6f7265206d6f6e6579207468\n        /* \"#utility.yul\":15111:15112   */\n      0x00\n        /* \"#utility.yul\":15103:15109   */\n      dup3\n        /* \"#utility.yul\":15099:15113   */\n      add\n        /* \"#utility.yul\":15092:15150   */\n      mstore\n        /* \"#utility.yul\":15184:15214   */\n      0x616e207768617420686173206265656e206c656e7420746f20796f7500000000\n        /* \"#utility.yul\":15179:15181   */\n      0x20\n        /* \"#utility.yul\":15171:15177   */\n      dup3\n        /* \"#utility.yul\":15167:15182   */\n      add\n        /* \"#utility.yul\":15160:15215   */\n      mstore\n        /* \"#utility.yul\":14975:15222   */\n      pop\n      jump\t// out\n        /* \"#utility.yul\":15228:15594   */\n    tag_312:\n        /* \"#utility.yul\":15370:15373   */\n      0x00\n        /* \"#utility.yul\":15391:15458   */\n      tag_487\n        /* \"#utility.yul\":15455:15457   */\n      0x3c\n        /* \"#utility.yul\":15450:15453   */\n      dup4\n        /* \"#utility.yul\":15391:15458   */\n      tag_297\n      jump\t// in\n    tag_487:\n        /* \"#utility.yul\":15384:15458   */\n      swap2\n      pop\n        /* \"#utility.yul\":15467:15560   */\n      tag_488\n        /* \"#utility.yul\":15556:15559   */\n      dup3\n        /* \"#utility.yul\":15467:15560   */\n      tag_311\n      jump\t// in\n    tag_488:\n        /* \"#utility.yul\":15585:15587   */\n      0x40\n        /* \"#utility.yul\":15580:15583   */\n      dup3\n        /* \"#utility.yul\":15576:15588   */\n      add\n        /* \"#utility.yul\":15569:15588   */\n      swap1\n      pop\n        /* \"#utility.yul\":15228:15594   */\n      swap2\n      swap1\n      pop\n      jump\t// out\n        /* \"#utility.yul\":15600:16019   */\n    tag_192:\n        /* \"#utility.yul\":15766:15770   */\n      0x00\n        /* \"#utility.yul\":15804:15806   */\n      0x20\n        /* \"#utility.yul\":15793:15802   */\n      dup3\n        /* \"#utility.yul\":15789:15807   */\n      add\n        /* \"#utility.yul\":15781:15807   */\n      swap1\n      pop\n        /* \"#utility.yul\":15853:15862   */\n      dup2\n        /* \"#utility.yul\":15847:15851   */\n      dup2\n        /* \"#utility.yul\":15843:15863   */\n      sub\n        /* \"#utility.yul\":15839:15840   */\n      0x00\n        /* \"#utility.yul\":15828:15837   */\n      dup4\n        /* \"#utility.yul\":15824:15841   */\n      add\n        /* \"#utility.yul\":15817:15864   */\n      mstore\n        /* \"#utility.yul\":15881:16012   */\n      tag_490\n        /* \"#utility.yul\":16007:16011   */\n      dup2\n        /* \"#utility.yul\":15881:16012   */\n      tag_312\n      jump\t// in\n    tag_490:\n        /* \"#utility.yul\":15873:16012   */\n      swap1\n      pop\n        /* \"#utility.yul\":15600:16019   */\n      swap2\n      swap1\n      pop\n      jump\t// out\n        /* \"#utility.yul\":16025:16205   */\n    tag_313:\n        /* \"#utility.yul\":16073:16150   */\n      0x4e487b7100000000000000000000000000000000000000000000000000000000\n        /* \"#utility.yul\":16070:16071   */\n      0x00\n        /* \"#utility.yul\":16063:16151   */\n      mstore\n        /* \"#utility.yul\":16170:16174   */\n      0x22\n        /* \"#utility.yul\":16167:16168   */\n      0x04\n        /* \"#utility.yul\":16160:16175   */\n      mstore\n        /* \"#utility.yul\":16194:16198   */\n      0x24\n        /* \"#utility.yul\":16191:16192   */\n      0x00\n        /* \"#utility.yul\":16184:16199   */\n      revert\n        /* \"#utility.yul\":16211:16531   */\n    tag_211:\n        /* \"#utility.yul\":16255:16261   */\n      0x00\n        /* \"#utility.yul\":16292:16293   */\n      0x02\n        /* \"#utility.yul\":16286:16290   */\n      dup3\n        /* \"#utility.yul\":16282:16294   */\n      div\n        /* \"#utility.yul\":16272:16294   */\n      swap1\n      pop\n        /* \"#utility.yul\":16339:16340   */\n      0x01\n        /* \"#utility.yul\":16333:16337   */\n      dup3\n        /* \"#utility.yul\":16329:16341   */\n      and\n        /* \"#utility.yul\":16360:16378   */\n      dup1\n        /* \"#utility.yul\":16350:16431   */\n      tag_493\n      jumpi\n        /* \"#utility.yul\":16416:16420   */\n      0x7f\n        /* \"#utility.yul\":16408:16414   */\n      dup3\n        /* \"#utility.yul\":16404:16421   */\n      and\n        /* \"#utility.yul\":16394:16421   */\n      swap2\n      pop\n        /* \"#utility.yul\":16350:16431   */\n    tag_493:\n        /* \"#utility.yul\":16478:16480   */\n      0x20\n        /* \"#utility.yul\":16470:16476   */\n      dup3\n        /* \"#utility.yul\":16467:16481   */\n      lt\n        /* \"#utility.yul\":16447:16465   */\n      dup2\n        /* \"#utility.yul\":16444:16482   */\n      sub\n        /* \"#utility.yul\":16441:16525   */\n      tag_494\n      jumpi\n        /* \"#utility.yul\":16497:16515   */\n      tag_495\n      tag_313\n      jump\t// in\n    tag_495:\n        /* \"#utility.yul\":16441:16525   */\n    tag_494:\n        /* \"#utility.yul\":16262:16531   */\n      pop\n        /* \"#utility.yul\":16211:16531   */\n      swap2\n      swap1\n      pop\n      jump\t// out\n        /* \"#utility.yul\":16537:16678   */\n    tag_314:\n        /* \"#utility.yul\":16586:16590   */\n      0x00\n        /* \"#utility.yul\":16609:16612   */\n      dup2\n        /* \"#utility.yul\":16601:16612   */\n      swap1\n      pop\n        /* \"#utility.yul\":16632:16635   */\n      dup2\n        /* \"#utility.yul\":16629:16630   */\n      0x00\n        /* \"#utility.yul\":16622:16636   */\n      mstore\n        /* \"#utility.yul\":16666:16670   */\n      0x20\n        /* \"#utility.yul\":16663:16664   */\n      0x00\n        /* \"#utility.yul\":16653:16671   */\n      keccak256\n        /* \"#utility.yul\":16645:16671   */\n      swap1\n      pop\n        /* \"#utility.yul\":16537:16678   */\n      swap2\n      swap1\n      pop\n      jump\t// out\n        /* \"#utility.yul\":16684:16777   */\n    tag_315:\n        /* \"#utility.yul\":16721:16727   */\n      0x00\n        /* \"#utility.yul\":16768:16770   */\n      0x20\n        /* \"#utility.yul\":16763:16765   */\n      0x1f\n        /* \"#utility.yul\":16756:16761   */\n      dup4\n        /* \"#utility.yul\":16752:16766   */\n      add\n        /* \"#utility.yul\":16748:16771   */\n      div\n        /* \"#utility.yul\":16738:16771   */\n      swap1\n      pop\n        /* \"#utility.yul\":16684:16777   */\n      swap2\n      swap1\n      pop\n      jump\t// out\n        /* \"#utility.yul\":16783:16890   */\n    tag_316:\n        /* \"#utility.yul\":16827:16835   */\n      0x00\n        /* \"#utility.yul\":16877:16882   */\n      dup3\n        /* \"#utility.yul\":16871:16875   */\n      dup3\n        /* \"#utility.yul\":16867:16883   */\n      shl\n        /* \"#utility.yul\":16846:16883   */\n      swap1\n      pop\n        /* \"#utility.yul\":16783:16890   */\n      swap3\n      swap2\n      pop\n      pop\n      jump\t// out\n        /* \"#utility.yul\":16896:17289   */\n    tag_317:\n        /* \"#utility.yul\":16965:16971   */\n      0x00\n        /* \"#utility.yul\":17015:17016   */\n      0x08\n        /* \"#utility.yul\":17003:17013   */\n      dup4\n        /* \"#utility.yul\":16999:17017   */\n      mul\n        /* \"#utility.yul\":17038:17135   */\n      tag_500\n        /* \"#utility.yul\":17068:17134   */\n      0xffffffffffffffffffffffffffffffffffffffffffffffffffffffffffffffff\n        /* \"#utility.yul\":17057:17066   */\n      dup3\n        /* \"#utility.yul\":17038:17135   */\n      tag_316\n      jump\t// in\n    tag_500:\n        /* \"#utility.yul\":17156:17195   */\n      tag_501\n        /* \"#utility.yul\":17186:17194   */\n      dup7\n        /* \"#utility.yul\":17175:17184   */\n      dup4\n        /* \"#utility.yul\":17156:17195   */\n      tag_316\n      jump\t// in\n    tag_501:\n        /* \"#utility.yul\":17144:17195   */\n      swap6\n      pop\n        /* \"#utility.yul\":17228:17232   */\n      dup1\n        /* \"#utility.yul\":17224:17233   */\n      not\n        /* \"#utility.yul\":17217:17222   */\n      dup5\n        /* \"#utility.yul\":17213:17234   */\n      and\n        /* \"#utility.yul\":17204:17234   */\n      swap4\n      pop\n        /* \"#utility.yul\":17277:17281   */\n      dup1\n        /* \"#utility.yul\":17267:17275   */\n      dup7\n        /* \"#utility.yul\":17263:17282   */\n      and\n        /* \"#utility.yul\":17256:17261   */\n      dup5\n        /* \"#utility.yul\":17253:17283   */\n      or\n        /* \"#utility.yul\":17243:17283   */\n      swap3\n      pop\n        /* \"#utility.yul\":16972:17289   */\n      pop\n      pop\n        /* \"#utility.yul\":16896:17289   */\n      swap4\n      swap3\n      pop\n      pop\n      pop\n      jump\t// out\n        /* \"#utility.yul\":17295:17355   */\n    tag_318:\n        /* \"#utility.yul\":17323:17326   */\n      0x00\n        /* \"#utility.yul\":17344:17349   */\n      dup2\n        /* \"#utility.yul\":17337:17349   */\n      swap1\n      pop\n        /* \"#utility.yul\":17295:17355   */\n      swap2\n      swap1\n      pop\n      jump\t// out\n        /* \"#utility.yul\":17361:17503   */\n    tag_319:\n        /* \"#utility.yul\":17411:17420   */\n      0x00\n        /* \"#utility.yul\":17444:17497   */\n      tag_504\n        /* \"#utility.yul\":17462:17496   */\n      tag_505\n        /* \"#utility.yul\":17471:17495   */\n      tag_506\n        /* \"#utility.yul\":17489:17494   */\n      dup5\n        /* \"#utility.yul\":17471:17495   */\n      tag_278\n      jump\t// in\n    tag_506:\n        /* \"#utility.yul\":17462:17496   */\n      tag_318\n      jump\t// in\n    tag_505:\n        /* \"#utility.yul\":17444:17497   */\n      tag_278\n      jump\t// in\n    tag_504:\n        /* \"#utility.yul\":17431:17497   */\n      swap1\n      pop\n        /* \"#utility.yul\":17361:17503   */\n      swap2\n      swap1\n      pop\n      jump\t// out\n        /* \"#utility.yul\":17509:17584   */\n    tag_320:\n        /* \"#utility.yul\":17552:17555   */\n      0x00\n        /* \"#utility.yul\":17573:17578   */\n      dup2\n        /* \"#utility.yul\":17566:17578   */\n      swap1\n      pop\n        /* \"#utility.yul\":17509:17584   */\n      swap2\n      swap1\n      pop\n      jump\t// out\n        /* \"#utility.yul\":17590:17859   */\n    tag_321:\n        /* \"#utility.yul\":17700:17739   */\n      tag_509\n        /* \"#utility.yul\":17731:17738   */\n      dup4\n        /* \"#utility.yul\":17700:17739   */\n      tag_319\n      jump\t// in\n    tag_509:\n        /* \"#utility.yul\":17761:17852   */\n      tag_510\n        /* \"#utility.yul\":17810:17851   */\n      tag_511\n        /* \"#utility.yul\":17834:17850   */\n      dup3\n        /* \"#utility.yul\":17810:17851   */\n      tag_320\n      jump\t// in\n    tag_511:\n        /* \"#utility.yul\":17802:17808   */\n      dup5\n        /* \"#utility.yul\":17795:17799   */\n      dup5\n        /* \"#utility.yul\":17789:17800   */\n      sload\n        /* \"#utility.yul\":17761:17852   */\n      tag_317\n      jump\t// in\n    tag_510:\n        /* \"#utility.yul\":17755:17759   */\n      dup3\n        /* \"#utility.yul\":17748:17853   */\n      sstore\n        /* \"#utility.yul\":17666:17859   */\n      pop\n        /* \"#utility.yul\":17590:17859   */\n      pop\n      pop\n      pop\n      jump\t// out\n        /* \"#utility.yul\":17865:17938   */\n    tag_322:\n        /* \"#utility.yul\":17910:17913   */\n      0x00\n        /* \"#utility.yul\":17865:17938   */\n      swap1\n      jump\t// out\n        /* \"#utility.yul\":17944:18133   */\n    tag_323:\n        /* \"#utility.yul\":18021:18053   */\n      tag_514\n      tag_322\n      jump\t// in\n    tag_514:\n        /* \"#utility.yul\":18062:18127   */\n      tag_515\n        /* \"#utility.yul\":18120:18126   */\n      dup2\n        /* \"#utility.yul\":18112:18118   */\n      dup5\n        /* \"#utility.yul\":18106:18110   */\n      dup5\n        /* \"#utility.yul\":18062:18127   */\n      tag_321\n      jump\t// in\n    tag_515:\n        /* \"#utility.yul\":17997:18133   */\n      pop\n        /* \"#utility.yul\":17944:18133   */\n      pop\n      pop\n      jump\t// out\n        /* \"#utility.yul\":18139:18325   */\n    tag_324:\n        /* \"#utility.yul\":18199:18319   */\n    tag_517:\n        /* \"#utility.yul\":18216:18219   */\n      dup2\n        /* \"#utility.yul\":18209:18214   */\n      dup2\n        /* \"#utility.yul\":18206:18220   */\n      lt\n        /* \"#utility.yul\":18199:18319   */\n      iszero\n      tag_519\n      jumpi\n        /* \"#utility.yul\":18270:18309   */\n      tag_520\n        /* \"#utility.yul\":18307:18308   */\n      0x00\n        /* \"#utility.yul\":18300:18305   */\n      dup3\n        /* \"#utility.yul\":18270:18309   */\n      tag_323\n      jump\t// in\n    tag_520:\n        /* \"#utility.yul\":18243:18244   */\n      0x01\n        /* \"#utility.yul\":18236:18241   */\n      dup2\n        /* \"#utility.yul\":18232:18245   */\n      add\n        /* \"#utility.yul\":18223:18245   */\n      swap1\n      pop\n        /* \"#utility.yul\":18199:18319   */\n      jump(tag_517)\n    tag_519:\n        /* \"#utility.yul\":18139:18325   */\n      pop\n      pop\n      jump\t// out\n        /* \"#utility.yul\":18331:18874   */\n    tag_325:\n        /* \"#utility.yul\":18432:18434   */\n      0x1f\n        /* \"#utility.yul\":18427:18430   */\n      dup3\n        /* \"#utility.yul\":18424:18435   */\n      gt\n        /* \"#utility.yul\":18421:18867   */\n      iszero\n      tag_522\n      jumpi\n        /* \"#utility.yul\":18466:18504   */\n      tag_523\n        /* \"#utility.yul\":18498:18503   */\n      dup2\n        /* \"#utility.yul\":18466:18504   */\n      tag_314\n      jump\t// in\n    tag_523:\n        /* \"#utility.yul\":18550:18579   */\n      tag_524\n        /* \"#utility.yul\":18568:18578   */\n      dup5\n        /* \"#utility.yul\":18550:18579   */\n      tag_315\n      jump\t// in\n    tag_524:\n        /* \"#utility.yul\":18540:18548   */\n      dup2\n        /* \"#utility.yul\":18536:18580   */\n      add\n        /* \"#utility.yul\":18733:18735   */\n      0x20\n        /* \"#utility.yul\":18721:18731   */\n      dup6\n        /* \"#utility.yul\":18718:18736   */\n      lt\n        /* \"#utility.yul\":18715:18764   */\n      iszero\n      tag_525\n      jumpi\n        /* \"#utility.yul\":18754:18762   */\n      dup2\n        /* \"#utility.yul\":18739:18762   */\n      swap1\n      pop\n        /* \"#utility.yul\":18715:18764   */\n    tag_525:\n        /* \"#utility.yul\":18777:18857   */\n      tag_526\n        /* \"#utility.yul\":18833:18855   */\n      tag_527\n        /* \"#utility.yul\":18851:18854   */\n      dup6\n        /* \"#utility.yul\":18833:18855   */\n      tag_315\n      jump\t// in\n    tag_527:\n        /* \"#utility.yul\":18823:18831   */\n      dup4\n        /* \"#utility.yul\":18819:18856   */\n      add\n        /* \"#utility.yul\":18806:18817   */\n      dup3\n        /* \"#utility.yul\":18777:18857   */\n      tag_324\n      jump\t// in\n    tag_526:\n        /* \"#utility.yul\":18436:18867   */\n      pop\n      pop\n        /* \"#utility.yul\":18421:18867   */\n    tag_522:\n        /* \"#utility.yul\":18331:18874   */\n      pop\n      pop\n      pop\n      jump\t// out\n        /* \"#utility.yul\":18880:18997   */\n    tag_326:\n        /* \"#utility.yul\":18934:18942   */\n      0x00\n        /* \"#utility.yul\":18984:18989   */\n      dup3\n        /* \"#utility.yul\":18978:18982   */\n      dup3\n        /* \"#utility.yul\":18974:18990   */\n      shr\n        /* \"#utility.yul\":18953:18990   */\n      swap1\n      pop\n        /* \"#utility.yul\":18880:18997   */\n      swap3\n      swap2\n      pop\n      pop\n      jump\t// out\n        /* \"#utility.yul\":19003:19172   */\n    tag_327:\n        /* \"#utility.yul\":19047:19053   */\n      0x00\n        /* \"#utility.yul\":19080:19131   */\n      tag_530\n        /* \"#utility.yul\":19128:19129   */\n      0x00\n        /* \"#utility.yul\":19124:19130   */\n      not\n        /* \"#utility.yul\":19116:19121   */\n      dup5\n        /* \"#utility.yul\":19113:19114   */\n      0x08\n        /* \"#utility.yul\":19109:19122   */\n      mul\n        /* \"#utility.yul\":19080:19131   */\n      tag_326\n      jump\t// in\n    tag_530:\n        /* \"#utility.yul\":19076:19132   */\n      not\n        /* \"#utility.yul\":19161:19165   */\n      dup1\n        /* \"#utility.yul\":19155:19159   */\n      dup4\n        /* \"#utility.yul\":19151:19166   */\n      and\n        /* \"#utility.yul\":19141:19166   */\n      swap2\n      pop\n        /* \"#utility.yul\":19054:19172   */\n      pop\n        /* \"#utility.yul\":19003:19172   */\n      swap3\n      swap2\n      pop\n      pop\n      jump\t// out\n        /* \"#utility.yul\":19177:19472   */\n    tag_328:\n        /* \"#utility.yul\":19253:19257   */\n      0x00\n        /* \"#utility.yul\":19399:19428   */\n      tag_532\n        /* \"#utility.yul\":19424:19427   */\n      dup4\n        /* \"#utility.yul\":19418:19422   */\n      dup4\n        /* \"#utility.yul\":19399:19428   */\n      tag_327\n      jump\t// in\n    tag_532:\n        /* \"#utility.yul\":19391:19428   */\n      swap2\n      pop\n        /* \"#utility.yul\":19461:19464   */\n      dup3\n        /* \"#utility.yul\":19458:19459   */\n      0x02\n        /* \"#utility.yul\":19454:19465   */\n      mul\n        /* \"#utility.yul\":19448:19452   */\n      dup3\n        /* \"#utility.yul\":19445:19466   */\n      or\n        /* \"#utility.yul\":19437:19466   */\n      swap1\n      pop\n        /* \"#utility.yul\":19177:19472   */\n      swap3\n      swap2\n      pop\n      pop\n      jump\t// out\n        /* \"#utility.yul\":19477:20872   */\n    tag_195:\n        /* \"#utility.yul\":19594:19631   */\n      tag_534\n        /* \"#utility.yul\":19627:19630   */\n      dup3\n        /* \"#utility.yul\":19594:19631   */\n      tag_296\n      jump\t// in\n    tag_534:\n        /* \"#utility.yul\":19696:19714   */\n      0xffffffffffffffff\n        /* \"#utility.yul\":19688:19694   */\n      dup2\n        /* \"#utility.yul\":19685:19715   */\n      gt\n        /* \"#utility.yul\":19682:19738   */\n      iszero\n      tag_535\n      jumpi\n        /* \"#utility.yul\":19718:19736   */\n      tag_536\n      tag_286\n      jump\t// in\n    tag_536:\n        /* \"#utility.yul\":19682:19738   */\n    tag_535:\n        /* \"#utility.yul\":19762:19800   */\n      tag_537\n        /* \"#utility.yul\":19794:19798   */\n      dup3\n        /* \"#utility.yul\":19788:19799   */\n      sload\n        /* \"#utility.yul\":19762:19800   */\n      tag_211\n      jump\t// in\n    tag_537:\n        /* \"#utility.yul\":19847:19914   */\n      tag_538\n        /* \"#utility.yul\":19907:19913   */\n      dup3\n        /* \"#utility.yul\":19899:19905   */\n      dup3\n        /* \"#utility.yul\":19893:19897   */\n      dup6\n        /* \"#utility.yul\":19847:19914   */\n      tag_325\n      jump\t// in\n    tag_538:\n        /* \"#utility.yul\":19941:19942   */\n      0x00\n        /* \"#utility.yul\":19965:19969   */\n      0x20\n        /* \"#utility.yul\":19952:19969   */\n      swap1\n      pop\n        /* \"#utility.yul\":19997:19999   */\n      0x1f\n        /* \"#utility.yul\":19989:19995   */\n      dup4\n        /* \"#utility.yul\":19986:20000   */\n      gt\n        /* \"#utility.yul\":20014:20015   */\n      0x01\n        /* \"#utility.yul\":20009:20627   */\n      dup2\n      eq\n      tag_540\n      jumpi\n        /* \"#utility.yul\":20671:20672   */\n      0x00\n        /* \"#utility.yul\":20688:20694   */\n      dup5\n        /* \"#utility.yul\":20685:20762   */\n      iszero\n      tag_541\n      jumpi\n        /* \"#utility.yul\":20737:20746   */\n      dup3\n        /* \"#utility.yul\":20732:20735   */\n      dup8\n        /* \"#utility.yul\":20728:20747   */\n      add\n        /* \"#utility.yul\":20722:20748   */\n      mload\n        /* \"#utility.yul\":20713:20748   */\n      swap1\n      pop\n        /* \"#utility.yul\":20685:20762   */\n    tag_541:\n        /* \"#utility.yul\":20788:20855   */\n      tag_542\n        /* \"#utility.yul\":20848:20854   */\n      dup6\n        /* \"#utility.yul\":20841:20846   */\n      dup3\n        /* \"#utility.yul\":20788:20855   */\n      tag_328\n      jump\t// in\n    tag_542:\n        /* \"#utility.yul\":20782:20786   */\n      dup7\n        /* \"#utility.yul\":20775:20856   */\n      sstore\n        /* \"#utility.yul\":20644:20866   */\n      pop\n        /* \"#utility.yul\":19979:20866   */\n      jump(tag_539)\n        /* \"#utility.yul\":20009:20627   */\n    tag_540:\n        /* \"#utility.yul\":20061:20065   */\n      0x1f\n        /* \"#utility.yul\":20057:20066   */\n      not\n        /* \"#utility.yul\":20049:20055   */\n      dup5\n        /* \"#utility.yul\":20045:20067   */\n      and\n        /* \"#utility.yul\":20095:20132   */\n      tag_543\n        /* \"#utility.yul\":20127:20131   */\n      dup7\n        /* \"#utility.yul\":20095:20132   */\n      tag_314\n      jump\t// in\n    tag_543:\n        /* \"#utility.yul\":20154:20155   */\n      0x00\n        /* \"#utility.yul\":20168:20376   */\n    tag_544:\n        /* \"#utility.yul\":20182:20189   */\n      dup3\n        /* \"#utility.yul\":20179:20180   */\n      dup2\n        /* \"#utility.yul\":20176:20190   */\n      lt\n        /* \"#utility.yul\":20168:20376   */\n      iszero\n      tag_546\n      jumpi\n        /* \"#utility.yul\":20261:20270   */\n      dup5\n        /* \"#utility.yul\":20256:20259   */\n      dup10\n        /* \"#utility.yul\":20252:20271   */\n      add\n        /* \"#utility.yul\":20246:20272   */\n      mload\n        /* \"#utility.yul\":20238:20244   */\n      dup3\n        /* \"#utility.yul\":20231:20273   */\n      sstore\n        /* \"#utility.yul\":20312:20313   */\n      0x01\n        /* \"#utility.yul\":20304:20310   */\n      dup3\n        /* \"#utility.yul\":20300:20314   */\n      add\n        /* \"#utility.yul\":20290:20314   */\n      swap2\n      pop\n        /* \"#utility.yul\":20359:20361   */\n      0x20\n        /* \"#utility.yul\":20348:20357   */\n      dup6\n        /* \"#utility.yul\":20344:20362   */\n      add\n        /* \"#utility.yul\":20331:20362   */\n      swap5\n      pop\n        /* \"#utility.yul\":20205:20209   */\n      0x20\n        /* \"#utility.yul\":20202:20203   */\n      dup2\n        /* \"#utility.yul\":20198:20210   */\n      add\n        /* \"#utility.yul\":20193:20210   */\n      swap1\n      pop\n        /* \"#utility.yul\":20168:20376   */\n      jump(tag_544)\n    tag_546:\n        /* \"#utility.yul\":20404:20410   */\n      dup7\n        /* \"#utility.yul\":20395:20402   */\n      dup4\n        /* \"#utility.yul\":20392:20411   */\n      lt\n        /* \"#utility.yul\":20389:20568   */\n      iszero\n      tag_547\n      jumpi\n        /* \"#utility.yul\":20462:20471   */\n      dup5\n        /* \"#utility.yul\":20457:20460   */\n      dup10\n        /* \"#utility.yul\":20453:20472   */\n      add\n        /* \"#utility.yul\":20447:20473   */\n      mload\n        /* \"#utility.yul\":20505:20553   */\n      tag_548\n        /* \"#utility.yul\":20547:20551   */\n      0x1f\n        /* \"#utility.yul\":20539:20545   */\n      dup10\n        /* \"#utility.yul\":20535:20552   */\n      and\n        /* \"#utility.yul\":20524:20533   */\n      dup3\n        /* \"#utility.yul\":20505:20553   */\n      tag_327\n      jump\t// in\n    tag_548:\n        /* \"#utility.yul\":20497:20503   */\n      dup4\n        /* \"#utility.yul\":20490:20554   */\n      sstore\n        /* \"#utility.yul\":20412:20568   */\n      pop\n        /* \"#utility.yul\":20389:20568   */\n    tag_547:\n        /* \"#utility.yul\":20614:20615   */\n      0x01\n        /* \"#utility.yul\":20610:20611   */\n      0x02\n        /* \"#utility.yul\":20602:20608   */\n      dup9\n        /* \"#utility.yul\":20598:20612   */\n      mul\n        /* \"#utility.yul\":20594:20616   */\n      add\n        /* \"#utility.yul\":20588:20592   */\n      dup9\n        /* \"#utility.yul\":20581:20617   */\n      sstore\n        /* \"#utility.yul\":20016:20627   */\n      pop\n      pop\n      pop\n        /* \"#utility.yul\":19979:20866   */\n    tag_539:\n      pop\n        /* \"#utility.yul\":19569:20872   */\n      pop\n      pop\n      pop\n        /* \"#utility.yul\":19477:20872   */\n      pop\n      pop\n      jump\t// out\n        /* \"#utility.yul\":20878:21104   */\n    tag_329:\n        /* \"#utility.yul\":21018:21052   */\n      0x546865206164647265737320646f65736e7420686176652074686174206d7563\n        /* \"#utility.yul\":21014:21015   */\n      0x00\n        /* \"#utility.yul\":21006:21012   */\n      dup3\n        /* \"#utility.yul\":21002:21016   */\n      add\n        /* \"#utility.yul\":20995:21053   */\n      mstore\n        /* \"#utility.yul\":21087:21096   */\n      0x682066756e647300000000000000000000000000000000000000000000000000\n        /* \"#utility.yul\":21082:21084   */\n      0x20\n        /* \"#utility.yul\":21074:21080   */\n      dup3\n        /* \"#utility.yul\":21070:21085   */\n      add\n        /* \"#utility.yul\":21063:21097   */\n      mstore\n        /* \"#utility.yul\":20878:21104   */\n      pop\n      jump\t// out\n        /* \"#utility.yul\":21110:21476   */\n    tag_330:\n        /* \"#utility.yul\":21252:21255   */\n      0x00\n        /* \"#utility.yul\":21273:21340   */\n      tag_551\n        /* \"#utility.yul\":21337:21339   */\n      0x27\n        /* \"#utility.yul\":21332:21335   */\n      dup4\n        /* \"#utility.yul\":21273:21340   */\n      tag_297\n      jump\t// in\n    tag_551:\n        /* \"#utility.yul\":21266:21340   */\n      swap2\n      pop\n        /* \"#utility.yul\":21349:21442   */\n      tag_552\n        /* \"#utility.yul\":21438:21441   */\n      dup3\n        /* \"#utility.yul\":21349:21442   */\n      tag_329\n      jump\t// in\n    tag_552:\n        /* \"#utility.yul\":21467:21469   */\n      0x40\n        /* \"#utility.yul\":21462:21465   */\n      dup3\n        /* \"#utility.yul\":21458:21470   */\n      add\n        /* \"#utility.yul\":21451:21470   */\n      swap1\n      pop\n        /* \"#utility.yul\":21110:21476   */\n      swap2\n      swap1\n      pop\n      jump\t// out\n        /* \"#utility.yul\":21482:21901   */\n    tag_201:\n        /* \"#utility.yul\":21648:21652   */\n      0x00\n        /* \"#utility.yul\":21686:21688   */\n      0x20\n        /* \"#utility.yul\":21675:21684   */\n      dup3\n        /* \"#utility.yul\":21671:21689   */\n      add\n        /* \"#utility.yul\":21663:21689   */\n      swap1\n      pop\n        /* \"#utility.yul\":21735:21744   */\n      dup2\n        /* \"#utility.yul\":21729:21733   */\n      dup2\n        /* \"#utility.yul\":21725:21745   */\n      sub\n        /* \"#utility.yul\":21721:21722   */\n      0x00\n        /* \"#utility.yul\":21710:21719   */\n      dup4\n        /* \"#utility.yul\":21706:21723   */\n      add\n        /* \"#utility.yul\":21699:21746   */\n      mstore\n        /* \"#utility.yul\":21763:21894   */\n      tag_554\n        /* \"#utility.yul\":21889:21893   */\n      dup2\n        /* \"#utility.yul\":21763:21894   */\n      tag_330\n      jump\t// in\n    tag_554:\n        /* \"#utility.yul\":21755:21894   */\n      swap1\n      pop\n        /* \"#utility.yul\":21482:21901   */\n      swap2\n      swap1\n      pop\n      jump\t// out\n        /* \"#utility.yul\":21907:22098   */\n    tag_203:\n        /* \"#utility.yul\":21947:21950   */\n      0x00\n        /* \"#utility.yul\":21966:21986   */\n      tag_556\n        /* \"#utility.yul\":21984:21985   */\n      dup3\n        /* \"#utility.yul\":21966:21986   */\n      tag_278\n      jump\t// in\n    tag_556:\n        /* \"#utility.yul\":21961:21986   */\n      swap2\n      pop\n        /* \"#utility.yul\":22000:22020   */\n      tag_557\n        /* \"#utility.yul\":22018:22019   */\n      dup4\n        /* \"#utility.yul\":22000:22020   */\n      tag_278\n      jump\t// in\n    tag_557:\n        /* \"#utility.yul\":21995:22020   */\n      swap3\n      pop\n        /* \"#utility.yul\":22043:22044   */\n      dup3\n        /* \"#utility.yul\":22040:22041   */\n      dup3\n        /* \"#utility.yul\":22036:22045   */\n      add\n        /* \"#utility.yul\":22029:22045   */\n      swap1\n      pop\n        /* \"#utility.yul\":22064:22067   */\n      dup1\n        /* \"#utility.yul\":22061:22062   */\n      dup3\n        /* \"#utility.yul\":22058:22068   */\n      gt\n        /* \"#utility.yul\":22055:22091   */\n      iszero\n      tag_558\n      jumpi\n        /* \"#utility.yul\":22071:22089   */\n      tag_559\n      tag_308\n      jump\t// in\n    tag_559:\n        /* \"#utility.yul\":22055:22091   */\n    tag_558:\n        /* \"#utility.yul\":21907:22098   */\n      swap3\n      swap2\n      pop\n      pop\n      jump\t// out\n        /* \"#utility.yul\":22104:22324   */\n    tag_331:\n        /* \"#utility.yul\":22244:22278   */\n      0x596f752063616e6e6f74206c656e64206d6f6e657920746f20796f757273656c\n        /* \"#utility.yul\":22240:22241   */\n      0x00\n        /* \"#utility.yul\":22232:22238   */\n      dup3\n        /* \"#utility.yul\":22228:22242   */\n      add\n        /* \"#utility.yul\":22221:22279   */\n      mstore\n        /* \"#utility.yul\":22313:22316   */\n      0x6600000000000000000000000000000000000000000000000000000000000000\n        /* \"#utility.yul\":22308:22310   */\n      0x20\n        /* \"#utility.yul\":22300:22306   */\n      dup3\n        /* \"#utility.yul\":22296:22311   */\n      add\n        /* \"#utility.yul\":22289:22317   */\n      mstore\n        /* \"#utility.yul\":22104:22324   */\n      pop\n      jump\t// out\n        /* \"#utility.yul\":22330:22696   */\n    tag_332:\n        /* \"#utility.yul\":22472:22475   */\n      0x00\n        /* \"#utility.yul\":22493:22560   */\n      tag_562\n        /* \"#utility.yul\":22557:22559   */\n      0x21\n        /* \"#utility.yul\":22552:22555   */\n      dup4\n        /* \"#utility.yul\":22493:22560   */\n      tag_297\n      jump\t// in\n    tag_562:\n        /* \"#utility.yul\":22486:22560   */\n      swap2\n      pop\n        /* \"#utility.yul\":22569:22662   */\n      tag_563\n        /* \"#utility.yul\":22658:22661   */\n      dup3\n        /* \"#utility.yul\":22569:22662   */\n      tag_331\n      jump\t// in\n    tag_563:\n        /* \"#utility.yul\":22687:22689   */\n      0x40\n        /* \"#utility.yul\":22682:22685   */\n      dup3\n        /* \"#utility.yul\":22678:22690   */\n      add\n        /* \"#utility.yul\":22671:22690   */\n      swap1\n      pop\n        /* \"#utility.yul\":22330:22696   */\n      swap2\n      swap1\n      pop\n      jump\t// out\n        /* \"#utility.yul\":22702:23121   */\n    tag_229:\n        /* \"#utility.yul\":22868:22872   */\n      0x00\n        /* \"#utility.yul\":22906:22908   */\n      0x20\n        /* \"#utility.yul\":22895:22904   */\n      dup3\n        /* \"#utility.yul\":22891:22909   */\n      add\n        /* \"#utility.yul\":22883:22909   */\n      swap1\n      pop\n        /* \"#utility.yul\":22955:22964   */\n      dup2\n        /* \"#utility.yul\":22949:22953   */\n      dup2\n        /* \"#utility.yul\":22945:22965   */\n      sub\n        /* \"#utility.yul\":22941:22942   */\n      0x00\n        /* \"#utility.yul\":22930:22939   */\n      dup4\n        /* \"#utility.yul\":22926:22943   */\n      add\n        /* \"#utility.yul\":22919:22966   */\n      mstore\n        /* \"#utility.yul\":22983:23114   */\n      tag_565\n        /* \"#utility.yul\":23109:23113   */\n      dup2\n        /* \"#utility.yul\":22983:23114   */\n      tag_332\n      jump\t// in\n    tag_565:\n        /* \"#utility.yul\":22975:23114   */\n      swap1\n      pop\n        /* \"#utility.yul\":22702:23121   */\n      swap2\n      swap1\n      pop\n      jump\t// out\n        /* \"#utility.yul\":23127:23309   */\n    tag_333:\n        /* \"#utility.yul\":23267:23301   */\n      0x596f752063616e6e6f7420706179206d6f6e657920746f20796f757273656c66\n        /* \"#utility.yul\":23263:23264   */\n      0x00\n        /* \"#utility.yul\":23255:23261   */\n      dup3\n        /* \"#utility.yul\":23251:23265   */\n      add\n        /* \"#utility.yul\":23244:23302   */\n      mstore\n        /* \"#utility.yul\":23127:23309   */\n      pop\n      jump\t// out\n        /* \"#utility.yul\":23315:23681   */\n    tag_334:\n        /* \"#utility.yul\":23457:23460   */\n      0x00\n        /* \"#utility.yul\":23478:23545   */\n      tag_568\n        /* \"#utility.yul\":23542:23544   */\n      0x20\n        /* \"#utility.yul\":23537:23540   */\n      dup4\n        /* \"#utility.yul\":23478:23545   */\n      tag_297\n      jump\t// in\n    tag_568:\n        /* \"#utility.yul\":23471:23545   */\n      swap2\n      pop\n        /* \"#utility.yul\":23554:23647   */\n      tag_569\n        /* \"#utility.yul\":23643:23646   */\n      dup3\n        /* \"#utility.yul\":23554:23647   */\n      tag_333\n      jump\t// in\n    tag_569:\n        /* \"#utility.yul\":23672:23674   */\n      0x20\n        /* \"#utility.yul\":23667:23670   */\n      dup3\n        /* \"#utility.yul\":23663:23675   */\n      add\n        /* \"#utility.yul\":23656:23675   */\n      swap1\n      pop\n        /* \"#utility.yul\":23315:23681   */\n      swap2\n      swap1\n      pop\n      jump\t// out\n        /* \"#utility.yul\":23687:24106   */\n    tag_242:\n        /* \"#utility.yul\":23853:23857   */\n      0x00\n        /* \"#utility.yul\":23891:23893   */\n      0x20\n        /* \"#utility.yul\":23880:23889   */\n      dup3\n        /* \"#utility.yul\":23876:23894   */\n      add\n        /* \"#utility.yul\":23868:23894   */\n      swap1\n      pop\n        /* \"#utility.yul\":23940:23949   */\n      dup2\n        /* \"#utility.yul\":23934:23938   */\n      dup2\n        /* \"#utility.yul\":23930:23950   */\n      sub\n        /* \"#utility.yul\":23926:23927   */\n      0x00\n        /* \"#utility.yul\":23915:23924   */\n      dup4\n        /* \"#utility.yul\":23911:23928   */\n      add\n        /* \"#utility.yul\":23904:23951   */\n      mstore\n        /* \"#utility.yul\":23968:24099   */\n      tag_571\n        /* \"#utility.yul\":24094:24098   */\n      dup2\n        /* \"#utility.yul\":23968:24099   */\n      tag_334\n      jump\t// in\n    tag_571:\n        /* \"#utility.yul\":23960:24099   */\n      swap1\n      pop\n        /* \"#utility.yul\":23687:24106   */\n      swap2\n      swap1\n      pop\n      jump\t// out\n        /* \"#utility.yul\":24112:24756   */\n    tag_252:\n        /* \"#utility.yul\":24309:24313   */\n      0x00\n        /* \"#utility.yul\":24347:24350   */\n      0x80\n        /* \"#utility.yul\":24336:24345   */\n      dup3\n        /* \"#utility.yul\":24332:24351   */\n      add\n        /* \"#utility.yul\":24324:24351   */\n      swap1\n      pop\n        /* \"#utility.yul\":24361:24432   */\n      tag_573\n        /* \"#utility.yul\":24429:24430   */\n      0x00\n        /* \"#utility.yul\":24418:24427   */\n      dup4\n        /* \"#utility.yul\":24414:24431   */\n      add\n        /* \"#utility.yul\":24405:24411   */\n      dup8\n        /* \"#utility.yul\":24361:24432   */\n      tag_282\n      jump\t// in\n    tag_573:\n        /* \"#utility.yul\":24442:24514   */\n      tag_574\n        /* \"#utility.yul\":24510:24512   */\n      0x20\n        /* \"#utility.yul\":24499:24508   */\n      dup4\n        /* \"#utility.yul\":24495:24513   */\n      add\n        /* \"#utility.yul\":24486:24492   */\n      dup7\n        /* \"#utility.yul\":24442:24514   */\n      tag_282\n      jump\t// in\n    tag_574:\n        /* \"#utility.yul\":24524:24596   */\n      tag_575\n        /* \"#utility.yul\":24592:24594   */\n      0x40\n        /* \"#utility.yul\":24581:24590   */\n      dup4\n        /* \"#utility.yul\":24577:24595   */\n      add\n        /* \"#utility.yul\":24568:24574   */\n      dup6\n        /* \"#utility.yul\":24524:24596   */\n      tag_282\n      jump\t// in\n    tag_575:\n        /* \"#utility.yul\":24643:24652   */\n      dup2\n        /* \"#utility.yul\":24637:24641   */\n      dup2\n        /* \"#utility.yul\":24633:24653   */\n      sub\n        /* \"#utility.yul\":24628:24630   */\n      0x60\n        /* \"#utility.yul\":24617:24626   */\n      dup4\n        /* \"#utility.yul\":24613:24631   */\n      add\n        /* \"#utility.yul\":24606:24654   */\n      mstore\n        /* \"#utility.yul\":24671:24749   */\n      tag_576\n        /* \"#utility.yul\":24744:24748   */\n      dup2\n        /* \"#utility.yul\":24735:24741   */\n      dup5\n        /* \"#utility.yul\":24671:24749   */\n      tag_299\n      jump\t// in\n    tag_576:\n        /* \"#utility.yul\":24663:24749   */\n      swap1\n      pop\n        /* \"#utility.yul\":24112:24756   */\n      swap6\n      swap5\n      pop\n      pop\n      pop\n      pop\n      pop\n      jump\t// out\n\n    auxdata: 0xa2646970667358221220c858cba8360a70fe714bb1567626c12c0582833cb78cfbdf26f417ce1d2848f064736f6c63430008110033\n}\n","bytecode":{"linkReferences":{},"object":"608060405234801561001057600080fd5b50613069806100206000396000f3fe6080604052600436106101815760003560e01c80639ecebe2a116100d1578063d14d7ae81161008a578063d7b6e15e11610064578063d7b6e15e146105d4578063d7d1bbdb14610611578063e3d670d71461062d578063f06102971461066a57610181565b8063d14d7ae81461053e578063d2713bcf1461055a578063d522ac8f1461059757610181565b80639ecebe2a14610421578063a2f09dfa14610461578063ad1ac14c1461046b578063b0a02abe146104a8578063b1884744146104e5578063b331ea631461050157610181565b80634fd490441161013e57806388811f8d1161011857806388811f8d146103625780638a9cfd551461039f5780638ead837b146103c857806395f4513a1461040557610181565b80634fd49044146102ab5780635195afa5146102e857806371929c511461032557610181565b8063092a0a8a146101865780632d7788db146101c35780632e1a7d4d146101ec57806331287c3114610208578063334e3de21461024557806343999ac214610282575b600080fd5b34801561019257600080fd5b506101ad60048036038101906101a89190612321565b6106a7565b6040516101ba9190612370565b60405180910390f35b3480156101cf57600080fd5b506101ea60048036038101906101e5919061238b565b6106f5565b005b6102066004803603810190610201919061238b565b6107d0565b005b34801561021457600080fd5b5061022f600480360381019061022a9190612321565b610934565b60405161023c9190612370565b60405180910390f35b34801561025157600080fd5b5061026c600480360381019061026791906123b8565b610982565b60405161027991906123f4565b60405180910390f35b34801561028e57600080fd5b506102a960048036038101906102a491906123b8565b6109ce565b005b3480156102b757600080fd5b506102d260048036038101906102cd9190612321565b610a53565b6040516102df9190612370565b60405180910390f35b3480156102f457600080fd5b5061030f600480360381019061030a919061240f565b610aa1565b60405161031c91906123f4565b60405180910390f35b34801561033157600080fd5b5061034c600480360381019061034791906123b8565b610ac6565b60405161035991906123f4565b60405180910390f35b34801561036e57600080fd5b506103896004803603810190610384919061240f565b610ade565b60405161039691906123f4565b60405180910390f35b3480156103ab57600080fd5b506103c660048036038101906103c19190612595565b610b03565b005b3480156103d457600080fd5b506103ef60048036038101906103ea91906123b8565b610e70565b6040516103fc91906123f4565b60405180910390f35b61041f600480360381019061041a9190612642565b610ebb565b005b34801561042d57600080fd5b5061044860048036038101906104439190612321565b6111c8565b604051610458949392919061271c565b60405180910390f35b6104696112ca565b005b34801561047757600080fd5b50610492600480360381019061048d91906123b8565b6113bb565b60405161049f91906123f4565b60405180910390f35b3480156104b457600080fd5b506104cf60048036038101906104ca919061240f565b611407565b6040516104dc91906123f4565b60405180910390f35b6104ff60048036038101906104fa9190612642565b61142c565b005b34801561050d57600080fd5b506105286004803603810190610523919061240f565b61181f565b60405161053591906123f4565b60405180910390f35b61055860048036038101906105539190612768565b611844565b005b34801561056657600080fd5b50610581600480360381019061057c919061240f565b611d70565b60405161058e91906123f4565b60405180910390f35b3480156105a357600080fd5b506105be60048036038101906105b991906123b8565b611d95565b6040516105cb91906123f4565b60405180910390f35b3480156105e057600080fd5b506105fb60048036038101906105f69190612321565b611de1565b6040516106089190612370565b60405180910390f35b61062b6004803603810190610626919061238b565b611e2f565b005b34801561063957600080fd5b50610654600480360381019061064f91906123b8565b612215565b60405161066191906123f4565b60405180910390f35b34801561067657600080fd5b50610691600480360381019061068c91906123b8565b61222d565b60405161069e91906123f4565b60405180910390f35b600960205281600052604060002081815481106106c357600080fd5b906000526020600020016000915091509054906101000a900473ffffffffffffffffffffffffffffffffffffffff1681565b60008060003373ffffffffffffffffffffffffffffffffffffffff1673ffffffffffffffffffffffffffffffffffffffff1681526020019081526020016000208281548110610747576107466127ff565b5b90600052602060002090600302019050600015158160020160009054906101000a900460ff161515146107af576040517f08c379a00000000000000000000000000000000000000000000000000000000081526004016107a6906128a0565b60405180910390fd5b60018160020160006101000a81548160ff0219169083151502179055505050565b600160003373ffffffffffffffffffffffffffffffffffffffff1673ffffffffffffffffffffffffffffffffffffffff168152602001908152602001600020548110610851576040517f08c379a00000000000000000000000000000000000000000000000000000000081526004016108489061290c565b60405180910390fd5b60008111610894576040517f08c379a000000000000000000000000000000000000000000000000000000000815260040161088b9061299e565b60405180910390fd5b3373ffffffffffffffffffffffffffffffffffffffff166108fc829081150290604051600060405180830381858888f193505050501580156108da573d6000803e3d6000fd5b5080600160003373ffffffffffffffffffffffffffffffffffffffff1673ffffffffffffffffffffffffffffffffffffffff168152602001908152602001600020600082825461092a91906129ed565b9250508190555050565b600a602052816000526040600020818154811061095057600080fd5b906000526020600020016000915091509054906101000a900473ffffffffffffffffffffffffffffffffffffffff1681565b6000600a60008373ffffffffffffffffffffffffffffffffffffffff1673ffffffffffffffffffffffffffffffffffffffff168152602001908152602001600020805490509050919050565b6000600360003373ffffffffffffffffffffffffffffffffffffffff1673ffffffffffffffffffffffffffffffffffffffff16815260200190815260200160002060008373ffffffffffffffffffffffffffffffffffffffff1673ffffffffffffffffffffffffffffffffffffffff1681526020019081526020016000208190555050565b60076020528160005260406000208181548110610a6f57600080fd5b906000526020600020016000915091509054906101000a900473ffffffffffffffffffffffffffffffffffffffff1681565b6003602052816000526040600020602052806000526040600020600091509150505481565b600b6020528060005260406000206000915090505481565b6005602052816000526040600020602052806000526040600020600091509150505481565b6000600360003373ffffffffffffffffffffffffffffffffffffffff1673ffffffffffffffffffffffffffffffffffffffff16815260200190815260200160002060008373ffffffffffffffffffffffffffffffffffffffff1673ffffffffffffffffffffffffffffffffffffffff16815260200190815260200160002054600260008473ffffffffffffffffffffffffffffffffffffffff1673ffffffffffffffffffffffffffffffffffffffff16815260200190815260200160002060003373ffffffffffffffffffffffffffffffffffffffff1673ffffffffffffffffffffffffffffffffffffffff16815260200190815260200160002054610c0991906129ed565b11610c49576040517f08c379a0000000000000000000000000000000000000000000000000000000008152600401610c4090612a93565b60405180910390fd5b81600360003373ffffffffffffffffffffffffffffffffffffffff1673ffffffffffffffffffffffffffffffffffffffff16815260200190815260200160002060008373ffffffffffffffffffffffffffffffffffffffff1673ffffffffffffffffffffffffffffffffffffffff16815260200190815260200160002054600260008473ffffffffffffffffffffffffffffffffffffffff1673ffffffffffffffffffffffffffffffffffffffff16815260200190815260200160002060003373ffffffffffffffffffffffffffffffffffffffff1673ffffffffffffffffffffffffffffffffffffffff16815260200190815260200160002054610d4e91906129ed565b1015610d8f576040517f08c379a0000000000000000000000000000000000000000000000000000000008152600401610d8690612b25565b60405180910390fd5b60008060008373ffffffffffffffffffffffffffffffffffffffff1673ffffffffffffffffffffffffffffffffffffffff168152602001908152602001600020600181600181540180825580915050039060005260206000209060030201905083816000019081610e009190612d51565b5082816001018190555060008160020160006101000a81548160ff021916908315150217905550338160020160016101000a81548173ffffffffffffffffffffffffffffffffffffffff021916908373ffffffffffffffffffffffffffffffffffffffff16021790555050505050565b60008060008373ffffffffffffffffffffffffffffffffffffffff1673ffffffffffffffffffffffffffffffffffffffff168152602001908152602001600020805490509050919050565b81600360003373ffffffffffffffffffffffffffffffffffffffff1673ffffffffffffffffffffffffffffffffffffffff16815260200190815260200160002060008373ffffffffffffffffffffffffffffffffffffffff1673ffffffffffffffffffffffffffffffffffffffff16815260200190815260200160002054600260003373ffffffffffffffffffffffffffffffffffffffff1673ffffffffffffffffffffffffffffffffffffffff16815260200190815260200160002060008473ffffffffffffffffffffffffffffffffffffffff1673ffffffffffffffffffffffffffffffffffffffff16815260200190815260200160002054610fc091906129ed565b1015611001576040517f08c379a0000000000000000000000000000000000000000000000000000000008152600401610ff890612e95565b60405180910390fd5b81600160003373ffffffffffffffffffffffffffffffffffffffff1673ffffffffffffffffffffffffffffffffffffffff16815260200190815260200160002060008282546110509190612eb5565b9250508190555081600260003373ffffffffffffffffffffffffffffffffffffffff1673ffffffffffffffffffffffffffffffffffffffff16815260200190815260200160002060008373ffffffffffffffffffffffffffffffffffffffff1673ffffffffffffffffffffffffffffffffffffffff16815260200190815260200160002060008282546110e391906129ed565b9250508190555081600460008373ffffffffffffffffffffffffffffffffffffffff1673ffffffffffffffffffffffffffffffffffffffff16815260200190815260200160002060003373ffffffffffffffffffffffffffffffffffffffff1673ffffffffffffffffffffffffffffffffffffffff168152602001908152602001600020600082825461117691906129ed565b925050819055503373ffffffffffffffffffffffffffffffffffffffff166108fc839081150290604051600060405180830381858888f193505050501580156111c3573d6000803e3d6000fd5b505050565b600060205281600052604060002081815481106111e457600080fd5b90600052602060002090600302016000915091505080600001805461120890612b74565b80601f016020809104026020016040519081016040528092919081815260200182805461123490612b74565b80156112815780601f1061125657610100808354040283529160200191611281565b820191906000526020600020905b81548152906001019060200180831161126457829003601f168201915b5050505050908060010154908060020160009054906101000a900460ff16908060020160019054906101000a900473ffffffffffffffffffffffffffffffffffffffff16905084565b6000341161130d576040517f08c379a00000000000000000000000000000000000000000000000000000000081526004016113049061299e565b60405180910390fd5b34600160003373ffffffffffffffffffffffffffffffffffffffff1673ffffffffffffffffffffffffffffffffffffffff168152602001908152602001600020600082825461135c9190612eb5565b9250508190555034600b60003373ffffffffffffffffffffffffffffffffffffffff1673ffffffffffffffffffffffffffffffffffffffff16815260200190815260200160002060008282546113b29190612eb5565b92505081905550565b6000600860008373ffffffffffffffffffffffffffffffffffffffff1673ffffffffffffffffffffffffffffffffffffffff168152602001908152602001600020805490509050919050565b6004602052816000526040600020602052806000526040600020600091509150505481565b600160003373ffffffffffffffffffffffffffffffffffffffff1673ffffffffffffffffffffffffffffffffffffffff168152602001908152602001600020548211156114ae576040517f08c379a00000000000000000000000000000000000000000000000000000000081526004016114a59061290c565b60405180910390fd5b600082116114f1576040517f08c379a00000000000000000000000000000000000000000000000000000000081526004016114e89061299e565b60405180910390fd5b3373ffffffffffffffffffffffffffffffffffffffff168173ffffffffffffffffffffffffffffffffffffffff160361155f576040517f08c379a000000000000000000000000000000000000000000000000000000000815260040161155690612f5b565b60405180910390fd5b81600160003373ffffffffffffffffffffffffffffffffffffffff1673ffffffffffffffffffffffffffffffffffffffff16815260200190815260200160002060008282546115ae91906129ed565b9250508190555081600260003373ffffffffffffffffffffffffffffffffffffffff1673ffffffffffffffffffffffffffffffffffffffff16815260200190815260200160002060008373ffffffffffffffffffffffffffffffffffffffff1673ffffffffffffffffffffffffffffffffffffffff16815260200190815260200160002060008282546116419190612eb5565b9250508190555081600460008373ffffffffffffffffffffffffffffffffffffffff1673ffffffffffffffffffffffffffffffffffffffff16815260200190815260200160002060003373ffffffffffffffffffffffffffffffffffffffff1673ffffffffffffffffffffffffffffffffffffffff16815260200190815260200160002060008282546116d49190612eb5565b92505081905550600960003373ffffffffffffffffffffffffffffffffffffffff1673ffffffffffffffffffffffffffffffffffffffff168152602001908152602001600020819080600181540180825580915050600190039060005260206000200160009091909190916101000a81548173ffffffffffffffffffffffffffffffffffffffff021916908373ffffffffffffffffffffffffffffffffffffffff160217905550600a60008273ffffffffffffffffffffffffffffffffffffffff1673ffffffffffffffffffffffffffffffffffffffff168152602001908152602001600020339080600181540180825580915050600190039060005260206000200160009091909190916101000a81548173ffffffffffffffffffffffffffffffffffffffff021916908373ffffffffffffffffffffffffffffffffffffffff1602179055505050565b6002602052816000526040600020602052806000526040600020600091509150505481565b600160003373ffffffffffffffffffffffffffffffffffffffff1673ffffffffffffffffffffffffffffffffffffffff1681526020019081526020016000205484106118c5576040517f08c379a00000000000000000000000000000000000000000000000000000000081526004016118bc9061290c565b60405180910390fd5b60008411611908576040517f08c379a00000000000000000000000000000000000000000000000000000000081526004016118ff9061299e565b60405180910390fd5b3373ffffffffffffffffffffffffffffffffffffffff168573ffffffffffffffffffffffffffffffffffffffff1603611976576040517f08c379a000000000000000000000000000000000000000000000000000000000815260040161196d90612fc7565b60405180910390fd5b8473ffffffffffffffffffffffffffffffffffffffff166108fc859081150290604051600060405180830381858888f193505050501580156119bc573d6000803e3d6000fd5b5083600160003373ffffffffffffffffffffffffffffffffffffffff1673ffffffffffffffffffffffffffffffffffffffff1681526020019081526020016000206000828254611a0c91906129ed565b925050819055506000600560003373ffffffffffffffffffffffffffffffffffffffff1673ffffffffffffffffffffffffffffffffffffffff16815260200190815260200160002060008773ffffffffffffffffffffffffffffffffffffffff1673ffffffffffffffffffffffffffffffffffffffff1681526020019081526020016000205403611bd857600760003373ffffffffffffffffffffffffffffffffffffffff1673ffffffffffffffffffffffffffffffffffffffff168152602001908152602001600020859080600181540180825580915050600190039060005260206000200160009091909190916101000a81548173ffffffffffffffffffffffffffffffffffffffff021916908373ffffffffffffffffffffffffffffffffffffffff160217905550600860008673ffffffffffffffffffffffffffffffffffffffff1673ffffffffffffffffffffffffffffffffffffffff168152602001908152602001600020339080600181540180825580915050600190039060005260206000200160009091909190916101000a81548173ffffffffffffffffffffffffffffffffffffffff021916908373ffffffffffffffffffffffffffffffffffffffff1602179055505b83600560003373ffffffffffffffffffffffffffffffffffffffff1673ffffffffffffffffffffffffffffffffffffffff16815260200190815260200160002060008773ffffffffffffffffffffffffffffffffffffffff1673ffffffffffffffffffffffffffffffffffffffff1681526020019081526020016000206000828254611c649190612eb5565b9250508190555083600660008773ffffffffffffffffffffffffffffffffffffffff1673ffffffffffffffffffffffffffffffffffffffff16815260200190815260200160002060003373ffffffffffffffffffffffffffffffffffffffff1673ffffffffffffffffffffffffffffffffffffffff1681526020019081526020016000206000828254611cf79190612eb5565b925050819055508473ffffffffffffffffffffffffffffffffffffffff163373ffffffffffffffffffffffffffffffffffffffff167fa32c156f4b3b8a11a69a7ce04d9290f328629e9ba578b036df29793cceed6ec986868686604051611d619493929190612fe7565b60405180910390a35050505050565b6006602052816000526040600020602052806000526040600020600091509150505481565b6000600760008373ffffffffffffffffffffffffffffffffffffffff1673ffffffffffffffffffffffffffffffffffffffff168152602001908152602001600020805490509050919050565b60086020528160005260406000208181548110611dfd57600080fd5b906000526020600020016000915091509054906101000a900473ffffffffffffffffffffffffffffffffffffffff1681565b60008060003373ffffffffffffffffffffffffffffffffffffffff1673ffffffffffffffffffffffffffffffffffffffff1681526020019081526020016000208281548110611e8157611e806127ff565b5b90600052602060002090600302019050600015158160020160009054906101000a900460ff16151514611ee9576040517f08c379a0000000000000000000000000000000000000000000000000000000008152600401611ee0906128a0565b60405180910390fd5b6000600360003373ffffffffffffffffffffffffffffffffffffffff1673ffffffffffffffffffffffffffffffffffffffff16815260200190815260200160002060008360020160019054906101000a900473ffffffffffffffffffffffffffffffffffffffff1673ffffffffffffffffffffffffffffffffffffffff1673ffffffffffffffffffffffffffffffffffffffff16815260200190815260200160002054600260003373ffffffffffffffffffffffffffffffffffffffff1673ffffffffffffffffffffffffffffffffffffffff16815260200190815260200160002060008460020160019054906101000a900473ffffffffffffffffffffffffffffffffffffffff1673ffffffffffffffffffffffffffffffffffffffff1673ffffffffffffffffffffffffffffffffffffffff1681526020019081526020016000205461203791906129ed565b1115612207578060020160019054906101000a900473ffffffffffffffffffffffffffffffffffffffff1673ffffffffffffffffffffffffffffffffffffffff166108fc82600101549081150290604051600060405180830381858888f193505050501580156120ab573d6000803e3d6000fd5b5060018160020160006101000a81548160ff0219169083151502179055508060010154600160008360020160019054906101000a900473ffffffffffffffffffffffffffffffffffffffff1673ffffffffffffffffffffffffffffffffffffffff1673ffffffffffffffffffffffffffffffffffffffff16815260200190815260200160002060008282546121409190612eb5565b925050819055508060010154600360003373ffffffffffffffffffffffffffffffffffffffff1673ffffffffffffffffffffffffffffffffffffffff16815260200190815260200160002060008360020160019054906101000a900473ffffffffffffffffffffffffffffffffffffffff1673ffffffffffffffffffffffffffffffffffffffff1673ffffffffffffffffffffffffffffffffffffffff16815260200190815260200160002060008282546121fb9190612eb5565b92505081905550612211565b612210826106f5565b5b5050565b60016020528060005260406000206000915090505481565b6000600960008373ffffffffffffffffffffffffffffffffffffffff1673ffffffffffffffffffffffffffffffffffffffff168152602001908152602001600020805490509050919050565b6000604051905090565b600080fd5b600080fd5b600073ffffffffffffffffffffffffffffffffffffffff82169050919050565b60006122b88261228d565b9050919050565b6122c8816122ad565b81146122d357600080fd5b50565b6000813590506122e5816122bf565b92915050565b6000819050919050565b6122fe816122eb565b811461230957600080fd5b50565b60008135905061231b816122f5565b92915050565b6000806040838503121561233857612337612283565b5b6000612346858286016122d6565b92505060206123578582860161230c565b9150509250929050565b61236a816122ad565b82525050565b60006020820190506123856000830184612361565b92915050565b6000602082840312156123a1576123a0612283565b5b60006123af8482850161230c565b91505092915050565b6000602082840312156123ce576123cd612283565b5b60006123dc848285016122d6565b91505092915050565b6123ee816122eb565b82525050565b600060208201905061240960008301846123e5565b92915050565b6000806040838503121561242657612425612283565b5b6000612434858286016122d6565b9250506020612445858286016122d6565b9150509250929050565b600080fd5b600080fd5b6000601f19601f8301169050919050565b7f4e487b7100000000000000000000000000000000000000000000000000000000600052604160045260246000fd5b6124a282612459565b810181811067ffffffffffffffff821117156124c1576124c061246a565b5b80604052505050565b60006124d4612279565b90506124e08282612499565b919050565b600067ffffffffffffffff821115612500576124ff61246a565b5b61250982612459565b9050602081019050919050565b82818337600083830152505050565b6000612538612533846124e5565b6124ca565b90508281526020810184848401111561255457612553612454565b5b61255f848285612516565b509392505050565b600082601f83011261257c5761257b61244f565b5b813561258c848260208601612525565b91505092915050565b6000806000606084860312156125ae576125ad612283565b5b600084013567ffffffffffffffff8111156125cc576125cb612288565b5b6125d886828701612567565b93505060206125e98682870161230c565b92505060406125fa868287016122d6565b9150509250925092565b600061260f8261228d565b9050919050565b61261f81612604565b811461262a57600080fd5b50565b60008135905061263c81612616565b92915050565b6000806040838503121561265957612658612283565b5b60006126678582860161230c565b92505060206126788582860161262d565b9150509250929050565b600081519050919050565b600082825260208201905092915050565b60005b838110156126bc5780820151818401526020810190506126a1565b60008484015250505050565b60006126d382612682565b6126dd818561268d565b93506126ed81856020860161269e565b6126f681612459565b840191505092915050565b60008115159050919050565b61271681612701565b82525050565b6000608082019050818103600083015261273681876126c8565b905061274560208301866123e5565b612752604083018561270d565b61275f6060830184612361565b95945050505050565b600080600080600060a0868803121561278457612783612283565b5b60006127928882890161262d565b95505060206127a38882890161230c565b94505060406127b48882890161230c565b93505060606127c58882890161230c565b925050608086013567ffffffffffffffff8111156127e6576127e5612288565b5b6127f288828901612567565b9150509295509295909350565b7f4e487b7100000000000000000000000000000000000000000000000000000000600052603260045260246000fd5b7f726571756573742068617320616c7265616479206265656e2066696e616c697360008201527f6564000000000000000000000000000000000000000000000000000000000000602082015250565b600061288a60228361268d565b91506128958261282e565b604082019050919050565b600060208201905081810360008301526128b98161287d565b9050919050565b7f496e73756666696369656e742066756e64730000000000000000000000000000600082015250565b60006128f660128361268d565b9150612901826128c0565b602082019050919050565b60006020820190508181036000830152612925816128e9565b9050919050565b7f7472616e73616374696f6e2077697468203020657468206973206e6f7420616c60008201527f6c6f776564000000000000000000000000000000000000000000000000000000602082015250565b600061298860258361268d565b91506129938261292c565b604082019050919050565b600060208201905081810360008301526129b78161297b565b9050919050565b7f4e487b7100000000000000000000000000000000000000000000000000000000600052601160045260246000fd5b60006129f8826122eb565b9150612a03836122eb565b9250828203905081811115612a1b57612a1a6129be565b5b92915050565b7f596f752068617665207573656420616c6c20746865206d6f6e6579207468617460008201527f20776173206c656e7420746f20796f7500000000000000000000000000000000602082015250565b6000612a7d60308361268d565b9150612a8882612a21565b604082019050919050565b60006020820190508181036000830152612aac81612a70565b9050919050565b7f796f75206172652061736b696e6720666f72206d6f7265206d6f6e657920746860008201527f616e207768617420686173206265656e206c656e7420746f20796f7500000000602082015250565b6000612b0f603c8361268d565b9150612b1a82612ab3565b604082019050919050565b60006020820190508181036000830152612b3e81612b02565b9050919050565b7f4e487b7100000000000000000000000000000000000000000000000000000000600052602260045260246000fd5b60006002820490506001821680612b8c57607f821691505b602082108103612b9f57612b9e612b45565b5b50919050565b60008190508160005260206000209050919050565b60006020601f8301049050919050565b600082821b905092915050565b600060088302612c077fffffffffffffffffffffffffffffffffffffffffffffffffffffffffffffffff82612bca565b612c118683612bca565b95508019841693508086168417925050509392505050565b6000819050919050565b6000612c4e612c49612c44846122eb565b612c29565b6122eb565b9050919050565b6000819050919050565b612c6883612c33565b612c7c612c7482612c55565b848454612bd7565b825550505050565b600090565b612c91612c84565b612c9c818484612c5f565b505050565b5b81811015612cc057612cb5600082612c89565b600181019050612ca2565b5050565b601f821115612d0557612cd681612ba5565b612cdf84612bba565b81016020851015612cee578190505b612d02612cfa85612bba565b830182612ca1565b50505b505050565b600082821c905092915050565b6000612d2860001984600802612d0a565b1980831691505092915050565b6000612d418383612d17565b9150826002028217905092915050565b612d5a82612682565b67ffffffffffffffff811115612d7357612d7261246a565b5b612d7d8254612b74565b612d88828285612cc4565b600060209050601f831160018114612dbb5760008415612da9578287015190505b612db38582612d35565b865550612e1b565b601f198416612dc986612ba5565b60005b82811015612df157848901518255600182019150602085019450602081019050612dcc565b86831015612e0e5784890151612e0a601f891682612d17565b8355505b6001600288020188555050505b505050505050565b7f546865206164647265737320646f65736e7420686176652074686174206d756360008201527f682066756e647300000000000000000000000000000000000000000000000000602082015250565b6000612e7f60278361268d565b9150612e8a82612e23565b604082019050919050565b60006020820190508181036000830152612eae81612e72565b9050919050565b6000612ec0826122eb565b9150612ecb836122eb565b9250828201905080821115612ee357612ee26129be565b5b92915050565b7f596f752063616e6e6f74206c656e64206d6f6e657920746f20796f757273656c60008201527f6600000000000000000000000000000000000000000000000000000000000000602082015250565b6000612f4560218361268d565b9150612f5082612ee9565b604082019050919050565b60006020820190508181036000830152612f7481612f38565b9050919050565b7f596f752063616e6e6f7420706179206d6f6e657920746f20796f757273656c66600082015250565b6000612fb160208361268d565b9150612fbc82612f7b565b602082019050919050565b60006020820190508181036000830152612fe081612fa4565b9050919050565b6000608082019050612ffc60008301876123e5565b61300960208301866123e5565b61301660408301856123e5565b818103606083015261302881846126c8565b90509594505050505056fea2646970667358221220c858cba8360a70fe714bb1567626c12c0582833cb78cfbdf26f417ce1d2848f064736f6c63430008110033","opcodes":"PUSH1 0x80 PUSH1 0x40 MSTORE CALLVALUE DUP1 ISZERO PUSH2 0x10 JUMPI PUSH1 0x0 DUP1 REVERT JUMPDEST POP PUSH2 0x3069 DUP1 PUSH2 0x20 PUSH1 0x0 CODECOPY PUSH1 0x0 RETURN INVALID PUSH1 0x80 PUSH1 0x40 MSTORE PUSH1 0x4 CALLDATASIZE LT PUSH2 0x181 JUMPI PUSH1 0x0 CALLDATALOAD PUSH1 0xE0 SHR DUP1 PUSH4 0x9ECEBE2A GT PUSH2 0xD1 JUMPI DUP1 PUSH4 0xD14D7AE8 GT PUSH2 0x8A JUMPI DUP1 PUSH4 0xD7B6E15E GT PUSH2 0x64 JUMPI DUP1 PUSH4 0xD7B6E15E EQ PUSH2 0x5D4 JUMPI DUP1 PUSH4 0xD7D1BBDB EQ PUSH2 0x611 JUMPI DUP1 PUSH4 0xE3D670D7 EQ PUSH2 0x62D JUMPI DUP1 PUSH4 0xF0610297 EQ PUSH2 0x66A JUMPI PUSH2 0x181 JUMP JUMPDEST DUP1 PUSH4 0xD14D7AE8 EQ PUSH2 0x53E JUMPI DUP1 PUSH4 0xD2713BCF EQ PUSH2 0x55A JUMPI DUP1 PUSH4 0xD522AC8F EQ PUSH2 0x597 JUMPI PUSH2 0x181 JUMP JUMPDEST DUP1 PUSH4 0x9ECEBE2A EQ PUSH2 0x421 JUMPI DUP1 PUSH4 0xA2F09DFA EQ PUSH2 0x461 JUMPI DUP1 PUSH4 0xAD1AC14C EQ PUSH2 0x46B JUMPI DUP1 PUSH4 0xB0A02ABE EQ PUSH2 0x4A8 JUMPI DUP1 PUSH4 0xB1884744 EQ PUSH2 0x4E5 JUMPI DUP1 PUSH4 0xB331EA63 EQ PUSH2 0x501 JUMPI PUSH2 0x181 JUMP JUMPDEST DUP1 PUSH4 0x4FD49044 GT PUSH2 0x13E JUMPI DUP1 PUSH4 0x88811F8D GT PUSH2 0x118 JUMPI DUP1 PUSH4 0x88811F8D EQ PUSH2 0x362 JUMPI DUP1 PUSH4 0x8A9CFD55 EQ PUSH2 0x39F JUMPI DUP1 PUSH4 0x8EAD837B EQ PUSH2 0x3C8 JUMPI DUP1 PUSH4 0x95F4513A EQ PUSH2 0x405 JUMPI PUSH2 0x181 JUMP JUMPDEST DUP1 PUSH4 0x4FD49044 EQ PUSH2 0x2AB JUMPI DUP1 PUSH4 0x5195AFA5 EQ PUSH2 0x2E8 JUMPI DUP1 PUSH4 0x71929C51 EQ PUSH2 0x325 JUMPI PUSH2 0x181 JUMP JUMPDEST DUP1 PUSH4 0x92A0A8A EQ PUSH2 0x186 JUMPI DUP1 PUSH4 0x2D7788DB EQ PUSH2 0x1C3 JUMPI DUP1 PUSH4 0x2E1A7D4D EQ PUSH2 0x1EC JUMPI DUP1 PUSH4 0x31287C31 EQ PUSH2 0x208 JUMPI DUP1 PUSH4 0x334E3DE2 EQ PUSH2 0x245 JUMPI DUP1 PUSH4 0x43999AC2 EQ PUSH2 0x282 JUMPI JUMPDEST PUSH1 0x0 DUP1 REVERT JUMPDEST CALLVALUE DUP1 ISZERO PUSH2 0x192 JUMPI PUSH1 0x0 DUP1 REVERT JUMPDEST POP PUSH2 0x1AD PUSH1 0x4 DUP1 CALLDATASIZE SUB DUP2 ADD SWAP1 PUSH2 0x1A8 SWAP2 SWAP1 PUSH2 0x2321 JUMP JUMPDEST PUSH2 0x6A7 JUMP JUMPDEST PUSH1 0x40 MLOAD PUSH2 0x1BA SWAP2 SWAP1 PUSH2 0x2370 JUMP JUMPDEST PUSH1 0x40 MLOAD DUP1 SWAP2 SUB SWAP1 RETURN JUMPDEST CALLVALUE DUP1 ISZERO PUSH2 0x1CF JUMPI PUSH1 0x0 DUP1 REVERT JUMPDEST POP PUSH2 0x1EA PUSH1 0x4 DUP1 CALLDATASIZE SUB DUP2 ADD SWAP1 PUSH2 0x1E5 SWAP2 SWAP1 PUSH2 0x238B JUMP JUMPDEST PUSH2 0x6F5 JUMP JUMPDEST STOP JUMPDEST PUSH2 0x206 PUSH1 0x4 DUP1 CALLDATASIZE SUB DUP2 ADD SWAP1 PUSH2 0x201 SWAP2 SWAP1 PUSH2 0x238B JUMP JUMPDEST PUSH2 0x7D0 JUMP JUMPDEST STOP JUMPDEST CALLVALUE DUP1 ISZERO PUSH2 0x214 JUMPI PUSH1 0x0 DUP1 REVERT JUMPDEST POP PUSH2 0x22F PUSH1 0x4 DUP1 CALLDATASIZE SUB DUP2 ADD SWAP1 PUSH2 0x22A SWAP2 SWAP1 PUSH2 0x2321 JUMP JUMPDEST PUSH2 0x934 JUMP JUMPDEST PUSH1 0x40 MLOAD PUSH2 0x23C SWAP2 SWAP1 PUSH2 0x2370 JUMP JUMPDEST PUSH1 0x40 MLOAD DUP1 SWAP2 SUB SWAP1 RETURN JUMPDEST CALLVALUE DUP1 ISZERO PUSH2 0x251 JUMPI PUSH1 0x0 DUP1 REVERT JUMPDEST POP PUSH2 0x26C PUSH1 0x4 DUP1 CALLDATASIZE SUB DUP2 ADD SWAP1 PUSH2 0x267 SWAP2 SWAP1 PUSH2 0x23B8 JUMP JUMPDEST PUSH2 0x982 JUMP JUMPDEST PUSH1 0x40 MLOAD PUSH2 0x279 SWAP2 SWAP1 PUSH2 0x23F4 JUMP JUMPDEST PUSH1 0x40 MLOAD DUP1 SWAP2 SUB SWAP1 RETURN JUMPDEST CALLVALUE DUP1 ISZERO PUSH2 0x28E JUMPI PUSH1 0x0 DUP1 REVERT JUMPDEST POP PUSH2 0x2A9 PUSH1 0x4 DUP1 CALLDATASIZE SUB DUP2 ADD SWAP1 PUSH2 0x2A4 SWAP2 SWAP1 PUSH2 0x23B8 JUMP JUMPDEST PUSH2 0x9CE JUMP JUMPDEST STOP JUMPDEST CALLVALUE DUP1 ISZERO PUSH2 0x2B7 JUMPI PUSH1 0x0 DUP1 REVERT JUMPDEST POP PUSH2 0x2D2 PUSH1 0x4 DUP1 CALLDATASIZE SUB DUP2 ADD SWAP1 PUSH2 0x2CD SWAP2 SWAP1 PUSH2 0x2321 JUMP JUMPDEST PUSH2 0xA53 JUMP JUMPDEST PUSH1 0x40 MLOAD PUSH2 0x2DF SWAP2 SWAP1 PUSH2 0x2370 JUMP JUMPDEST PUSH1 0x40 MLOAD DUP1 SWAP2 SUB SWAP1 RETURN JUMPDEST CALLVALUE DUP1 ISZERO PUSH2 0x2F4 JUMPI PUSH1 0x0 DUP1 REVERT JUMPDEST POP PUSH2 0x30F PUSH1 0x4 DUP1 CALLDATASIZE SUB DUP2 ADD SWAP1 PUSH2 0x30A SWAP2 SWAP1 PUSH2 0x240F JUMP JUMPDEST PUSH2 0xAA1 JUMP JUMPDEST PUSH1 0x40 MLOAD PUSH2 0x31C SWAP2 SWAP1 PUSH2 0x23F4 JUMP JUMPDEST PUSH1 0x40 MLOAD DUP1 SWAP2 SUB SWAP1 RETURN JUMPDEST CALLVALUE DUP1 ISZERO PUSH2 0x331 JUMPI PUSH1 0x0 DUP1 REVERT JUMPDEST POP PUSH2 0x34C PUSH1 0x4 DUP1 CALLDATASIZE SUB DUP2 ADD SWAP1 PUSH2 0x347 SWAP2 SWAP1 PUSH2 0x23B8 JUMP JUMPDEST PUSH2 0xAC6 JUMP JUMPDEST PUSH1 0x40 MLOAD PUSH2 0x359 SWAP2 SWAP1 PUSH2 0x23F4 JUMP JUMPDEST PUSH1 0x40 MLOAD DUP1 SWAP2 SUB SWAP1 RETURN JUMPDEST CALLVALUE DUP1 ISZERO PUSH2 0x36E JUMPI PUSH1 0x0 DUP1 REVERT JUMPDEST POP PUSH2 0x389 PUSH1 0x4 DUP1 CALLDATASIZE SUB DUP2 ADD SWAP1 PUSH2 0x384 SWAP2 SWAP1 PUSH2 0x240F JUMP JUMPDEST PUSH2 0xADE JUMP JUMPDEST PUSH1 0x40 MLOAD PUSH2 0x396 SWAP2 SWAP1 PUSH2 0x23F4 JUMP JUMPDEST PUSH1 0x40 MLOAD DUP1 SWAP2 SUB SWAP1 RETURN JUMPDEST CALLVALUE DUP1 ISZERO PUSH2 0x3AB JUMPI PUSH1 0x0 DUP1 REVERT JUMPDEST POP PUSH2 0x3C6 PUSH1 0x4 DUP1 CALLDATASIZE SUB DUP2 ADD SWAP1 PUSH2 0x3C1 SWAP2 SWAP1 PUSH2 0x2595 JUMP JUMPDEST PUSH2 0xB03 JUMP JUMPDEST STOP JUMPDEST CALLVALUE DUP1 ISZERO PUSH2 0x3D4 JUMPI PUSH1 0x0 DUP1 REVERT JUMPDEST POP PUSH2 0x3EF PUSH1 0x4 DUP1 CALLDATASIZE SUB DUP2 ADD SWAP1 PUSH2 0x3EA SWAP2 SWAP1 PUSH2 0x23B8 JUMP JUMPDEST PUSH2 0xE70 JUMP JUMPDEST PUSH1 0x40 MLOAD PUSH2 0x3FC SWAP2 SWAP1 PUSH2 0x23F4 JUMP JUMPDEST PUSH1 0x40 MLOAD DUP1 SWAP2 SUB SWAP1 RETURN JUMPDEST PUSH2 0x41F PUSH1 0x4 DUP1 CALLDATASIZE SUB DUP2 ADD SWAP1 PUSH2 0x41A SWAP2 SWAP1 PUSH2 0x2642 JUMP JUMPDEST PUSH2 0xEBB JUMP JUMPDEST STOP JUMPDEST CALLVALUE DUP1 ISZERO PUSH2 0x42D JUMPI PUSH1 0x0 DUP1 REVERT JUMPDEST POP PUSH2 0x448 PUSH1 0x4 DUP1 CALLDATASIZE SUB DUP2 ADD SWAP1 PUSH2 0x443 SWAP2 SWAP1 PUSH2 0x2321 JUMP JUMPDEST PUSH2 0x11C8 JUMP JUMPDEST PUSH1 0x40 MLOAD PUSH2 0x458 SWAP5 SWAP4 SWAP3 SWAP2 SWAP1 PUSH2 0x271C JUMP JUMPDEST PUSH1 0x40 MLOAD DUP1 SWAP2 SUB SWAP1 RETURN JUMPDEST PUSH2 0x469 PUSH2 0x12CA JUMP JUMPDEST STOP JUMPDEST CALLVALUE DUP1 ISZERO PUSH2 0x477 JUMPI PUSH1 0x0 DUP1 REVERT JUMPDEST POP PUSH2 0x492 PUSH1 0x4 DUP1 CALLDATASIZE SUB DUP2 ADD SWAP1 PUSH2 0x48D SWAP2 SWAP1 PUSH2 0x23B8 JUMP JUMPDEST PUSH2 0x13BB JUMP JUMPDEST PUSH1 0x40 MLOAD PUSH2 0x49F SWAP2 SWAP1 PUSH2 0x23F4 JUMP JUMPDEST PUSH1 0x40 MLOAD DUP1 SWAP2 SUB SWAP1 RETURN JUMPDEST CALLVALUE DUP1 ISZERO PUSH2 0x4B4 JUMPI PUSH1 0x0 DUP1 REVERT JUMPDEST POP PUSH2 0x4CF PUSH1 0x4 DUP1 CALLDATASIZE SUB DUP2 ADD SWAP1 PUSH2 0x4CA SWAP2 SWAP1 PUSH2 0x240F JUMP JUMPDEST PUSH2 0x1407 JUMP JUMPDEST PUSH1 0x40 MLOAD PUSH2 0x4DC SWAP2 SWAP1 PUSH2 0x23F4 JUMP JUMPDEST PUSH1 0x40 MLOAD DUP1 SWAP2 SUB SWAP1 RETURN JUMPDEST PUSH2 0x4FF PUSH1 0x4 DUP1 CALLDATASIZE SUB DUP2 ADD SWAP1 PUSH2 0x4FA SWAP2 SWAP1 PUSH2 0x2642 JUMP JUMPDEST PUSH2 0x142C JUMP JUMPDEST STOP JUMPDEST CALLVALUE DUP1 ISZERO PUSH2 0x50D JUMPI PUSH1 0x0 DUP1 REVERT JUMPDEST POP PUSH2 0x528 PUSH1 0x4 DUP1 CALLDATASIZE SUB DUP2 ADD SWAP1 PUSH2 0x523 SWAP2 SWAP1 PUSH2 0x240F JUMP JUMPDEST PUSH2 0x181F JUMP JUMPDEST PUSH1 0x40 MLOAD PUSH2 0x535 SWAP2 SWAP1 PUSH2 0x23F4 JUMP JUMPDEST PUSH1 0x40 MLOAD DUP1 SWAP2 SUB SWAP1 RETURN JUMPDEST PUSH2 0x558 PUSH1 0x4 DUP1 CALLDATASIZE SUB DUP2 ADD SWAP1 PUSH2 0x553 SWAP2 SWAP1 PUSH2 0x2768 JUMP JUMPDEST PUSH2 0x1844 JUMP JUMPDEST STOP JUMPDEST CALLVALUE DUP1 ISZERO PUSH2 0x566 JUMPI PUSH1 0x0 DUP1 REVERT JUMPDEST POP PUSH2 0x581 PUSH1 0x4 DUP1 CALLDATASIZE SUB DUP2 ADD SWAP1 PUSH2 0x57C SWAP2 SWAP1 PUSH2 0x240F JUMP JUMPDEST PUSH2 0x1D70 JUMP JUMPDEST PUSH1 0x40 MLOAD PUSH2 0x58E SWAP2 SWAP1 PUSH2 0x23F4 JUMP JUMPDEST PUSH1 0x40 MLOAD DUP1 SWAP2 SUB SWAP1 RETURN JUMPDEST CALLVALUE DUP1 ISZERO PUSH2 0x5A3 JUMPI PUSH1 0x0 DUP1 REVERT JUMPDEST POP PUSH2 0x5BE PUSH1 0x4 DUP1 CALLDATASIZE SUB DUP2 ADD SWAP1 PUSH2 0x5B9 SWAP2 SWAP1 PUSH2 0x23B8 JUMP JUMPDEST PUSH2 0x1D95 JUMP JUMPDEST PUSH1 0x40 MLOAD PUSH2 0x5CB SWAP2 SWAP1 PUSH2 0x23F4 JUMP JUMPDEST PUSH1 0x40 MLOAD DUP1 SWAP2 SUB SWAP1 RETURN JUMPDEST CALLVALUE DUP1 ISZERO PUSH2 0x5E0 JUMPI PUSH1 0x0 DUP1 REVERT JUMPDEST POP PUSH2 0x5FB PUSH1 0x4 DUP1 CALLDATASIZE SUB DUP2 ADD SWAP1 PUSH2 0x5F6 SWAP2 SWAP1 PUSH2 0x2321 JUMP JUMPDEST PUSH2 0x1DE1 JUMP JUMPDEST PUSH1 0x40 MLOAD PUSH2 0x608 SWAP2 SWAP1 PUSH2 0x2370 JUMP JUMPDEST PUSH1 0x40 MLOAD DUP1 SWAP2 SUB SWAP1 RETURN JUMPDEST PUSH2 0x62B PUSH1 0x4 DUP1 CALLDATASIZE SUB DUP2 ADD SWAP1 PUSH2 0x626 SWAP2 SWAP1 PUSH2 0x238B JUMP JUMPDEST PUSH2 0x1E2F JUMP JUMPDEST STOP JUMPDEST CALLVALUE DUP1 ISZERO PUSH2 0x639 JUMPI PUSH1 0x0 DUP1 REVERT JUMPDEST POP PUSH2 0x654 PUSH1 0x4 DUP1 CALLDATASIZE SUB DUP2 ADD SWAP1 PUSH2 0x64F SWAP2 SWAP1 PUSH2 0x23B8 JUMP JUMPDEST PUSH2 0x2215 JUMP JUMPDEST PUSH1 0x40 MLOAD PUSH2 0x661 SWAP2 SWAP1 PUSH2 0x23F4 JUMP JUMPDEST PUSH1 0x40 MLOAD DUP1 SWAP2 SUB SWAP1 RETURN JUMPDEST CALLVALUE DUP1 ISZERO PUSH2 0x676 JUMPI PUSH1 0x0 DUP1 REVERT JUMPDEST POP PUSH2 0x691 PUSH1 0x4 DUP1 CALLDATASIZE SUB DUP2 ADD SWAP1 PUSH2 0x68C SWAP2 SWAP1 PUSH2 0x23B8 JUMP JUMPDEST PUSH2 0x222D JUMP JUMPDEST PUSH1 0x40 MLOAD PUSH2 0x69E SWAP2 SWAP1 PUSH2 0x23F4 JUMP JUMPDEST PUSH1 0x40 MLOAD DUP1 SWAP2 SUB SWAP1 RETURN JUMPDEST PUSH1 0x9 PUSH1 0x20 MSTORE DUP2 PUSH1 0x0 MSTORE PUSH1 0x40 PUSH1 0x0 KECCAK256 DUP2 DUP2 SLOAD DUP2 LT PUSH2 0x6C3 JUMPI PUSH1 0x0 DUP1 REVERT JUMPDEST SWAP1 PUSH1 0x0 MSTORE PUSH1 0x20 PUSH1 0x0 KECCAK256 ADD PUSH1 0x0 SWAP2 POP SWAP2 POP SWAP1 SLOAD SWAP1 PUSH2 0x100 EXP SWAP1 DIV PUSH20 0xFFFFFFFFFFFFFFFFFFFFFFFFFFFFFFFFFFFFFFFF AND DUP2 JUMP JUMPDEST PUSH1 0x0 DUP1 PUSH1 0x0 CALLER PUSH20 0xFFFFFFFFFFFFFFFFFFFFFFFFFFFFFFFFFFFFFFFF AND PUSH20 0xFFFFFFFFFFFFFFFFFFFFFFFFFFFFFFFFFFFFFFFF AND DUP2 MSTORE PUSH1 0x20 ADD SWAP1 DUP2 MSTORE PUSH1 0x20 ADD PUSH1 0x0 KECCAK256 DUP3 DUP2 SLOAD DUP2 LT PUSH2 0x747 JUMPI PUSH2 0x746 PUSH2 0x27FF JUMP JUMPDEST JUMPDEST SWAP1 PUSH1 0x0 MSTORE PUSH1 0x20 PUSH1 0x0 KECCAK256 SWAP1 PUSH1 0x3 MUL ADD SWAP1 POP PUSH1 0x0 ISZERO ISZERO DUP2 PUSH1 0x2 ADD PUSH1 0x0 SWAP1 SLOAD SWAP1 PUSH2 0x100 EXP SWAP1 DIV PUSH1 0xFF AND ISZERO ISZERO EQ PUSH2 0x7AF JUMPI PUSH1 0x40 MLOAD PUSH32 0x8C379A000000000000000000000000000000000000000000000000000000000 DUP2 MSTORE PUSH1 0x4 ADD PUSH2 0x7A6 SWAP1 PUSH2 0x28A0 JUMP JUMPDEST PUSH1 0x40 MLOAD DUP1 SWAP2 SUB SWAP1 REVERT JUMPDEST PUSH1 0x1 DUP2 PUSH1 0x2 ADD PUSH1 0x0 PUSH2 0x100 EXP DUP2 SLOAD DUP2 PUSH1 0xFF MUL NOT AND SWAP1 DUP4 ISZERO ISZERO MUL OR SWAP1 SSTORE POP POP POP JUMP JUMPDEST PUSH1 0x1 PUSH1 0x0 CALLER PUSH20 0xFFFFFFFFFFFFFFFFFFFFFFFFFFFFFFFFFFFFFFFF AND PUSH20 0xFFFFFFFFFFFFFFFFFFFFFFFFFFFFFFFFFFFFFFFF AND DUP2 MSTORE PUSH1 0x20 ADD SWAP1 DUP2 MSTORE PUSH1 0x20 ADD PUSH1 0x0 KECCAK256 SLOAD DUP2 LT PUSH2 0x851 JUMPI PUSH1 0x40 MLOAD PUSH32 0x8C379A000000000000000000000000000000000000000000000000000000000 DUP2 MSTORE PUSH1 0x4 ADD PUSH2 0x848 SWAP1 PUSH2 0x290C JUMP JUMPDEST PUSH1 0x40 MLOAD DUP1 SWAP2 SUB SWAP1 REVERT JUMPDEST PUSH1 0x0 DUP2 GT PUSH2 0x894 JUMPI PUSH1 0x40 MLOAD PUSH32 0x8C379A000000000000000000000000000000000000000000000000000000000 DUP2 MSTORE PUSH1 0x4 ADD PUSH2 0x88B SWAP1 PUSH2 0x299E JUMP JUMPDEST PUSH1 0x40 MLOAD DUP1 SWAP2 SUB SWAP1 REVERT JUMPDEST CALLER PUSH20 0xFFFFFFFFFFFFFFFFFFFFFFFFFFFFFFFFFFFFFFFF AND PUSH2 0x8FC DUP3 SWAP1 DUP2 ISZERO MUL SWAP1 PUSH1 0x40 MLOAD PUSH1 0x0 PUSH1 0x40 MLOAD DUP1 DUP4 SUB DUP2 DUP6 DUP9 DUP9 CALL SWAP4 POP POP POP POP ISZERO DUP1 ISZERO PUSH2 0x8DA JUMPI RETURNDATASIZE PUSH1 0x0 DUP1 RETURNDATACOPY RETURNDATASIZE PUSH1 0x0 REVERT JUMPDEST POP DUP1 PUSH1 0x1 PUSH1 0x0 CALLER PUSH20 0xFFFFFFFFFFFFFFFFFFFFFFFFFFFFFFFFFFFFFFFF AND PUSH20 0xFFFFFFFFFFFFFFFFFFFFFFFFFFFFFFFFFFFFFFFF AND DUP2 MSTORE PUSH1 0x20 ADD SWAP1 DUP2 MSTORE PUSH1 0x20 ADD PUSH1 0x0 KECCAK256 PUSH1 0x0 DUP3 DUP3 SLOAD PUSH2 0x92A SWAP2 SWAP1 PUSH2 0x29ED JUMP JUMPDEST SWAP3 POP POP DUP2 SWAP1 SSTORE POP POP JUMP JUMPDEST PUSH1 0xA PUSH1 0x20 MSTORE DUP2 PUSH1 0x0 MSTORE PUSH1 0x40 PUSH1 0x0 KECCAK256 DUP2 DUP2 SLOAD DUP2 LT PUSH2 0x950 JUMPI PUSH1 0x0 DUP1 REVERT JUMPDEST SWAP1 PUSH1 0x0 MSTORE PUSH1 0x20 PUSH1 0x0 KECCAK256 ADD PUSH1 0x0 SWAP2 POP SWAP2 POP SWAP1 SLOAD SWAP1 PUSH2 0x100 EXP SWAP1 DIV PUSH20 0xFFFFFFFFFFFFFFFFFFFFFFFFFFFFFFFFFFFFFFFF AND DUP2 JUMP JUMPDEST PUSH1 0x0 PUSH1 0xA PUSH1 0x0 DUP4 PUSH20 0xFFFFFFFFFFFFFFFFFFFFFFFFFFFFFFFFFFFFFFFF AND PUSH20 0xFFFFFFFFFFFFFFFFFFFFFFFFFFFFFFFFFFFFFFFF AND DUP2 MSTORE PUSH1 0x20 ADD SWAP1 DUP2 MSTORE PUSH1 0x20 ADD PUSH1 0x0 KECCAK256 DUP1 SLOAD SWAP1 POP SWAP1 POP SWAP2 SWAP1 POP JUMP JUMPDEST PUSH1 0x0 PUSH1 0x3 PUSH1 0x0 CALLER PUSH20 0xFFFFFFFFFFFFFFFFFFFFFFFFFFFFFFFFFFFFFFFF AND PUSH20 0xFFFFFFFFFFFFFFFFFFFFFFFFFFFFFFFFFFFFFFFF AND DUP2 MSTORE PUSH1 0x20 ADD SWAP1 DUP2 MSTORE PUSH1 0x20 ADD PUSH1 0x0 KECCAK256 PUSH1 0x0 DUP4 PUSH20 0xFFFFFFFFFFFFFFFFFFFFFFFFFFFFFFFFFFFFFFFF AND PUSH20 0xFFFFFFFFFFFFFFFFFFFFFFFFFFFFFFFFFFFFFFFF AND DUP2 MSTORE PUSH1 0x20 ADD SWAP1 DUP2 MSTORE PUSH1 0x20 ADD PUSH1 0x0 KECCAK256 DUP2 SWAP1 SSTORE POP POP JUMP JUMPDEST PUSH1 0x7 PUSH1 0x20 MSTORE DUP2 PUSH1 0x0 MSTORE PUSH1 0x40 PUSH1 0x0 KECCAK256 DUP2 DUP2 SLOAD DUP2 LT PUSH2 0xA6F JUMPI PUSH1 0x0 DUP1 REVERT JUMPDEST SWAP1 PUSH1 0x0 MSTORE PUSH1 0x20 PUSH1 0x0 KECCAK256 ADD PUSH1 0x0 SWAP2 POP SWAP2 POP SWAP1 SLOAD SWAP1 PUSH2 0x100 EXP SWAP1 DIV PUSH20 0xFFFFFFFFFFFFFFFFFFFFFFFFFFFFFFFFFFFFFFFF AND DUP2 JUMP JUMPDEST PUSH1 0x3 PUSH1 0x20 MSTORE DUP2 PUSH1 0x0 MSTORE PUSH1 0x40 PUSH1 0x0 KECCAK256 PUSH1 0x20 MSTORE DUP1 PUSH1 0x0 MSTORE PUSH1 0x40 PUSH1 0x0 KECCAK256 PUSH1 0x0 SWAP2 POP SWAP2 POP POP SLOAD DUP2 JUMP JUMPDEST PUSH1 0xB PUSH1 0x20 MSTORE DUP1 PUSH1 0x0 MSTORE PUSH1 0x40 PUSH1 0x0 KECCAK256 PUSH1 0x0 SWAP2 POP SWAP1 POP SLOAD DUP2 JUMP JUMPDEST PUSH1 0x5 PUSH1 0x20 MSTORE DUP2 PUSH1 0x0 MSTORE PUSH1 0x40 PUSH1 0x0 KECCAK256 PUSH1 0x20 MSTORE DUP1 PUSH1 0x0 MSTORE PUSH1 0x40 PUSH1 0x0 KECCAK256 PUSH1 0x0 SWAP2 POP SWAP2 POP POP SLOAD DUP2 JUMP JUMPDEST PUSH1 0x0 PUSH1 0x3 PUSH1 0x0 CALLER PUSH20 0xFFFFFFFFFFFFFFFFFFFFFFFFFFFFFFFFFFFFFFFF AND PUSH20 0xFFFFFFFFFFFFFFFFFFFFFFFFFFFFFFFFFFFFFFFF AND DUP2 MSTORE PUSH1 0x20 ADD SWAP1 DUP2 MSTORE PUSH1 0x20 ADD PUSH1 0x0 KECCAK256 PUSH1 0x0 DUP4 PUSH20 0xFFFFFFFFFFFFFFFFFFFFFFFFFFFFFFFFFFFFFFFF AND PUSH20 0xFFFFFFFFFFFFFFFFFFFFFFFFFFFFFFFFFFFFFFFF AND DUP2 MSTORE PUSH1 0x20 ADD SWAP1 DUP2 MSTORE PUSH1 0x20 ADD PUSH1 0x0 KECCAK256 SLOAD PUSH1 0x2 PUSH1 0x0 DUP5 PUSH20 0xFFFFFFFFFFFFFFFFFFFFFFFFFFFFFFFFFFFFFFFF AND PUSH20 0xFFFFFFFFFFFFFFFFFFFFFFFFFFFFFFFFFFFFFFFF AND DUP2 MSTORE PUSH1 0x20 ADD SWAP1 DUP2 MSTORE PUSH1 0x20 ADD PUSH1 0x0 KECCAK256 PUSH1 0x0 CALLER PUSH20 0xFFFFFFFFFFFFFFFFFFFFFFFFFFFFFFFFFFFFFFFF AND PUSH20 0xFFFFFFFFFFFFFFFFFFFFFFFFFFFFFFFFFFFFFFFF AND DUP2 MSTORE PUSH1 0x20 ADD SWAP1 DUP2 MSTORE PUSH1 0x20 ADD PUSH1 0x0 KECCAK256 SLOAD PUSH2 0xC09 SWAP2 SWAP1 PUSH2 0x29ED JUMP JUMPDEST GT PUSH2 0xC49 JUMPI PUSH1 0x40 MLOAD PUSH32 0x8C379A000000000000000000000000000000000000000000000000000000000 DUP2 MSTORE PUSH1 0x4 ADD PUSH2 0xC40 SWAP1 PUSH2 0x2A93 JUMP JUMPDEST PUSH1 0x40 MLOAD DUP1 SWAP2 SUB SWAP1 REVERT JUMPDEST DUP2 PUSH1 0x3 PUSH1 0x0 CALLER PUSH20 0xFFFFFFFFFFFFFFFFFFFFFFFFFFFFFFFFFFFFFFFF AND PUSH20 0xFFFFFFFFFFFFFFFFFFFFFFFFFFFFFFFFFFFFFFFF AND DUP2 MSTORE PUSH1 0x20 ADD SWAP1 DUP2 MSTORE PUSH1 0x20 ADD PUSH1 0x0 KECCAK256 PUSH1 0x0 DUP4 PUSH20 0xFFFFFFFFFFFFFFFFFFFFFFFFFFFFFFFFFFFFFFFF AND PUSH20 0xFFFFFFFFFFFFFFFFFFFFFFFFFFFFFFFFFFFFFFFF AND DUP2 MSTORE PUSH1 0x20 ADD SWAP1 DUP2 MSTORE PUSH1 0x20 ADD PUSH1 0x0 KECCAK256 SLOAD PUSH1 0x2 PUSH1 0x0 DUP5 PUSH20 0xFFFFFFFFFFFFFFFFFFFFFFFFFFFFFFFFFFFFFFFF AND PUSH20 0xFFFFFFFFFFFFFFFFFFFFFFFFFFFFFFFFFFFFFFFF AND DUP2 MSTORE PUSH1 0x20 ADD SWAP1 DUP2 MSTORE PUSH1 0x20 ADD PUSH1 0x0 KECCAK256 PUSH1 0x0 CALLER PUSH20 0xFFFFFFFFFFFFFFFFFFFFFFFFFFFFFFFFFFFFFFFF AND PUSH20 0xFFFFFFFFFFFFFFFFFFFFFFFFFFFFFFFFFFFFFFFF AND DUP2 MSTORE PUSH1 0x20 ADD SWAP1 DUP2 MSTORE PUSH1 0x20 ADD PUSH1 0x0 KECCAK256 SLOAD PUSH2 0xD4E SWAP2 SWAP1 PUSH2 0x29ED JUMP JUMPDEST LT ISZERO PUSH2 0xD8F JUMPI PUSH1 0x40 MLOAD PUSH32 0x8C379A000000000000000000000000000000000000000000000000000000000 DUP2 MSTORE PUSH1 0x4 ADD PUSH2 0xD86 SWAP1 PUSH2 0x2B25 JUMP JUMPDEST PUSH1 0x40 MLOAD DUP1 SWAP2 SUB SWAP1 REVERT JUMPDEST PUSH1 0x0 DUP1 PUSH1 0x0 DUP4 PUSH20 0xFFFFFFFFFFFFFFFFFFFFFFFFFFFFFFFFFFFFFFFF AND PUSH20 0xFFFFFFFFFFFFFFFFFFFFFFFFFFFFFFFFFFFFFFFF AND DUP2 MSTORE PUSH1 0x20 ADD SWAP1 DUP2 MSTORE PUSH1 0x20 ADD PUSH1 0x0 KECCAK256 PUSH1 0x1 DUP2 PUSH1 0x1 DUP2 SLOAD ADD DUP1 DUP3 SSTORE DUP1 SWAP2 POP POP SUB SWAP1 PUSH1 0x0 MSTORE PUSH1 0x20 PUSH1 0x0 KECCAK256 SWAP1 PUSH1 0x3 MUL ADD SWAP1 POP DUP4 DUP2 PUSH1 0x0 ADD SWAP1 DUP2 PUSH2 0xE00 SWAP2 SWAP1 PUSH2 0x2D51 JUMP JUMPDEST POP DUP3 DUP2 PUSH1 0x1 ADD DUP2 SWAP1 SSTORE POP PUSH1 0x0 DUP2 PUSH1 0x2 ADD PUSH1 0x0 PUSH2 0x100 EXP DUP2 SLOAD DUP2 PUSH1 0xFF MUL NOT AND SWAP1 DUP4 ISZERO ISZERO MUL OR SWAP1 SSTORE POP CALLER DUP2 PUSH1 0x2 ADD PUSH1 0x1 PUSH2 0x100 EXP DUP2 SLOAD DUP2 PUSH20 0xFFFFFFFFFFFFFFFFFFFFFFFFFFFFFFFFFFFFFFFF MUL NOT AND SWAP1 DUP4 PUSH20 0xFFFFFFFFFFFFFFFFFFFFFFFFFFFFFFFFFFFFFFFF AND MUL OR SWAP1 SSTORE POP POP POP POP POP JUMP JUMPDEST PUSH1 0x0 DUP1 PUSH1 0x0 DUP4 PUSH20 0xFFFFFFFFFFFFFFFFFFFFFFFFFFFFFFFFFFFFFFFF AND PUSH20 0xFFFFFFFFFFFFFFFFFFFFFFFFFFFFFFFFFFFFFFFF AND DUP2 MSTORE PUSH1 0x20 ADD SWAP1 DUP2 MSTORE PUSH1 0x20 ADD PUSH1 0x0 KECCAK256 DUP1 SLOAD SWAP1 POP SWAP1 POP SWAP2 SWAP1 POP JUMP JUMPDEST DUP2 PUSH1 0x3 PUSH1 0x0 CALLER PUSH20 0xFFFFFFFFFFFFFFFFFFFFFFFFFFFFFFFFFFFFFFFF AND PUSH20 0xFFFFFFFFFFFFFFFFFFFFFFFFFFFFFFFFFFFFFFFF AND DUP2 MSTORE PUSH1 0x20 ADD SWAP1 DUP2 MSTORE PUSH1 0x20 ADD PUSH1 0x0 KECCAK256 PUSH1 0x0 DUP4 PUSH20 0xFFFFFFFFFFFFFFFFFFFFFFFFFFFFFFFFFFFFFFFF AND PUSH20 0xFFFFFFFFFFFFFFFFFFFFFFFFFFFFFFFFFFFFFFFF AND DUP2 MSTORE PUSH1 0x20 ADD SWAP1 DUP2 MSTORE PUSH1 0x20 ADD PUSH1 0x0 KECCAK256 SLOAD PUSH1 0x2 PUSH1 0x0 CALLER PUSH20 0xFFFFFFFFFFFFFFFFFFFFFFFFFFFFFFFFFFFFFFFF AND PUSH20 0xFFFFFFFFFFFFFFFFFFFFFFFFFFFFFFFFFFFFFFFF AND DUP2 MSTORE PUSH1 0x20 ADD SWAP1 DUP2 MSTORE PUSH1 0x20 ADD PUSH1 0x0 KECCAK256 PUSH1 0x0 DUP5 PUSH20 0xFFFFFFFFFFFFFFFFFFFFFFFFFFFFFFFFFFFFFFFF AND PUSH20 0xFFFFFFFFFFFFFFFFFFFFFFFFFFFFFFFFFFFFFFFF AND DUP2 MSTORE PUSH1 0x20 ADD SWAP1 DUP2 MSTORE PUSH1 0x20 ADD PUSH1 0x0 KECCAK256 SLOAD PUSH2 0xFC0 SWAP2 SWAP1 PUSH2 0x29ED JUMP JUMPDEST LT ISZERO PUSH2 0x1001 JUMPI PUSH1 0x40 MLOAD PUSH32 0x8C379A000000000000000000000000000000000000000000000000000000000 DUP2 MSTORE PUSH1 0x4 ADD PUSH2 0xFF8 SWAP1 PUSH2 0x2E95 JUMP JUMPDEST PUSH1 0x40 MLOAD DUP1 SWAP2 SUB SWAP1 REVERT JUMPDEST DUP2 PUSH1 0x1 PUSH1 0x0 CALLER PUSH20 0xFFFFFFFFFFFFFFFFFFFFFFFFFFFFFFFFFFFFFFFF AND PUSH20 0xFFFFFFFFFFFFFFFFFFFFFFFFFFFFFFFFFFFFFFFF AND DUP2 MSTORE PUSH1 0x20 ADD SWAP1 DUP2 MSTORE PUSH1 0x20 ADD PUSH1 0x0 KECCAK256 PUSH1 0x0 DUP3 DUP3 SLOAD PUSH2 0x1050 SWAP2 SWAP1 PUSH2 0x2EB5 JUMP JUMPDEST SWAP3 POP POP DUP2 SWAP1 SSTORE POP DUP2 PUSH1 0x2 PUSH1 0x0 CALLER PUSH20 0xFFFFFFFFFFFFFFFFFFFFFFFFFFFFFFFFFFFFFFFF AND PUSH20 0xFFFFFFFFFFFFFFFFFFFFFFFFFFFFFFFFFFFFFFFF AND DUP2 MSTORE PUSH1 0x20 ADD SWAP1 DUP2 MSTORE PUSH1 0x20 ADD PUSH1 0x0 KECCAK256 PUSH1 0x0 DUP4 PUSH20 0xFFFFFFFFFFFFFFFFFFFFFFFFFFFFFFFFFFFFFFFF AND PUSH20 0xFFFFFFFFFFFFFFFFFFFFFFFFFFFFFFFFFFFFFFFF AND DUP2 MSTORE PUSH1 0x20 ADD SWAP1 DUP2 MSTORE PUSH1 0x20 ADD PUSH1 0x0 KECCAK256 PUSH1 0x0 DUP3 DUP3 SLOAD PUSH2 0x10E3 SWAP2 SWAP1 PUSH2 0x29ED JUMP JUMPDEST SWAP3 POP POP DUP2 SWAP1 SSTORE POP DUP2 PUSH1 0x4 PUSH1 0x0 DUP4 PUSH20 0xFFFFFFFFFFFFFFFFFFFFFFFFFFFFFFFFFFFFFFFF AND PUSH20 0xFFFFFFFFFFFFFFFFFFFFFFFFFFFFFFFFFFFFFFFF AND DUP2 MSTORE PUSH1 0x20 ADD SWAP1 DUP2 MSTORE PUSH1 0x20 ADD PUSH1 0x0 KECCAK256 PUSH1 0x0 CALLER PUSH20 0xFFFFFFFFFFFFFFFFFFFFFFFFFFFFFFFFFFFFFFFF AND PUSH20 0xFFFFFFFFFFFFFFFFFFFFFFFFFFFFFFFFFFFFFFFF AND DUP2 MSTORE PUSH1 0x20 ADD SWAP1 DUP2 MSTORE PUSH1 0x20 ADD PUSH1 0x0 KECCAK256 PUSH1 0x0 DUP3 DUP3 SLOAD PUSH2 0x1176 SWAP2 SWAP1 PUSH2 0x29ED JUMP JUMPDEST SWAP3 POP POP DUP2 SWAP1 SSTORE POP CALLER PUSH20 0xFFFFFFFFFFFFFFFFFFFFFFFFFFFFFFFFFFFFFFFF AND PUSH2 0x8FC DUP4 SWAP1 DUP2 ISZERO MUL SWAP1 PUSH1 0x40 MLOAD PUSH1 0x0 PUSH1 0x40 MLOAD DUP1 DUP4 SUB DUP2 DUP6 DUP9 DUP9 CALL SWAP4 POP POP POP POP ISZERO DUP1 ISZERO PUSH2 0x11C3 JUMPI RETURNDATASIZE PUSH1 0x0 DUP1 RETURNDATACOPY RETURNDATASIZE PUSH1 0x0 REVERT JUMPDEST POP POP POP JUMP JUMPDEST PUSH1 0x0 PUSH1 0x20 MSTORE DUP2 PUSH1 0x0 MSTORE PUSH1 0x40 PUSH1 0x0 KECCAK256 DUP2 DUP2 SLOAD DUP2 LT PUSH2 0x11E4 JUMPI PUSH1 0x0 DUP1 REVERT JUMPDEST SWAP1 PUSH1 0x0 MSTORE PUSH1 0x20 PUSH1 0x0 KECCAK256 SWAP1 PUSH1 0x3 MUL ADD PUSH1 0x0 SWAP2 POP SWAP2 POP POP DUP1 PUSH1 0x0 ADD DUP1 SLOAD PUSH2 0x1208 SWAP1 PUSH2 0x2B74 JUMP JUMPDEST DUP1 PUSH1 0x1F ADD PUSH1 0x20 DUP1 SWAP2 DIV MUL PUSH1 0x20 ADD PUSH1 0x40 MLOAD SWAP1 DUP2 ADD PUSH1 0x40 MSTORE DUP1 SWAP3 SWAP2 SWAP1 DUP2 DUP2 MSTORE PUSH1 0x20 ADD DUP3 DUP1 SLOAD PUSH2 0x1234 SWAP1 PUSH2 0x2B74 JUMP JUMPDEST DUP1 ISZERO PUSH2 0x1281 JUMPI DUP1 PUSH1 0x1F LT PUSH2 0x1256 JUMPI PUSH2 0x100 DUP1 DUP4 SLOAD DIV MUL DUP4 MSTORE SWAP2 PUSH1 0x20 ADD SWAP2 PUSH2 0x1281 JUMP JUMPDEST DUP3 ADD SWAP2 SWAP1 PUSH1 0x0 MSTORE PUSH1 0x20 PUSH1 0x0 KECCAK256 SWAP1 JUMPDEST DUP2 SLOAD DUP2 MSTORE SWAP1 PUSH1 0x1 ADD SWAP1 PUSH1 0x20 ADD DUP1 DUP4 GT PUSH2 0x1264 JUMPI DUP3 SWAP1 SUB PUSH1 0x1F AND DUP3 ADD SWAP2 JUMPDEST POP POP POP POP POP SWAP1 DUP1 PUSH1 0x1 ADD SLOAD SWAP1 DUP1 PUSH1 0x2 ADD PUSH1 0x0 SWAP1 SLOAD SWAP1 PUSH2 0x100 EXP SWAP1 DIV PUSH1 0xFF AND SWAP1 DUP1 PUSH1 0x2 ADD PUSH1 0x1 SWAP1 SLOAD SWAP1 PUSH2 0x100 EXP SWAP1 DIV PUSH20 0xFFFFFFFFFFFFFFFFFFFFFFFFFFFFFFFFFFFFFFFF AND SWAP1 POP DUP5 JUMP JUMPDEST PUSH1 0x0 CALLVALUE GT PUSH2 0x130D JUMPI PUSH1 0x40 MLOAD PUSH32 0x8C379A000000000000000000000000000000000000000000000000000000000 DUP2 MSTORE PUSH1 0x4 ADD PUSH2 0x1304 SWAP1 PUSH2 0x299E JUMP JUMPDEST PUSH1 0x40 MLOAD DUP1 SWAP2 SUB SWAP1 REVERT JUMPDEST CALLVALUE PUSH1 0x1 PUSH1 0x0 CALLER PUSH20 0xFFFFFFFFFFFFFFFFFFFFFFFFFFFFFFFFFFFFFFFF AND PUSH20 0xFFFFFFFFFFFFFFFFFFFFFFFFFFFFFFFFFFFFFFFF AND DUP2 MSTORE PUSH1 0x20 ADD SWAP1 DUP2 MSTORE PUSH1 0x20 ADD PUSH1 0x0 KECCAK256 PUSH1 0x0 DUP3 DUP3 SLOAD PUSH2 0x135C SWAP2 SWAP1 PUSH2 0x2EB5 JUMP JUMPDEST SWAP3 POP POP DUP2 SWAP1 SSTORE POP CALLVALUE PUSH1 0xB PUSH1 0x0 CALLER PUSH20 0xFFFFFFFFFFFFFFFFFFFFFFFFFFFFFFFFFFFFFFFF AND PUSH20 0xFFFFFFFFFFFFFFFFFFFFFFFFFFFFFFFFFFFFFFFF AND DUP2 MSTORE PUSH1 0x20 ADD SWAP1 DUP2 MSTORE PUSH1 0x20 ADD PUSH1 0x0 KECCAK256 PUSH1 0x0 DUP3 DUP3 SLOAD PUSH2 0x13B2 SWAP2 SWAP1 PUSH2 0x2EB5 JUMP JUMPDEST SWAP3 POP POP DUP2 SWAP1 SSTORE POP JUMP JUMPDEST PUSH1 0x0 PUSH1 0x8 PUSH1 0x0 DUP4 PUSH20 0xFFFFFFFFFFFFFFFFFFFFFFFFFFFFFFFFFFFFFFFF AND PUSH20 0xFFFFFFFFFFFFFFFFFFFFFFFFFFFFFFFFFFFFFFFF AND DUP2 MSTORE PUSH1 0x20 ADD SWAP1 DUP2 MSTORE PUSH1 0x20 ADD PUSH1 0x0 KECCAK256 DUP1 SLOAD SWAP1 POP SWAP1 POP SWAP2 SWAP1 POP JUMP JUMPDEST PUSH1 0x4 PUSH1 0x20 MSTORE DUP2 PUSH1 0x0 MSTORE PUSH1 0x40 PUSH1 0x0 KECCAK256 PUSH1 0x20 MSTORE DUP1 PUSH1 0x0 MSTORE PUSH1 0x40 PUSH1 0x0 KECCAK256 PUSH1 0x0 SWAP2 POP SWAP2 POP POP SLOAD DUP2 JUMP JUMPDEST PUSH1 0x1 PUSH1 0x0 CALLER PUSH20 0xFFFFFFFFFFFFFFFFFFFFFFFFFFFFFFFFFFFFFFFF AND PUSH20 0xFFFFFFFFFFFFFFFFFFFFFFFFFFFFFFFFFFFFFFFF AND DUP2 MSTORE PUSH1 0x20 ADD SWAP1 DUP2 MSTORE PUSH1 0x20 ADD PUSH1 0x0 KECCAK256 SLOAD DUP3 GT ISZERO PUSH2 0x14AE JUMPI PUSH1 0x40 MLOAD PUSH32 0x8C379A000000000000000000000000000000000000000000000000000000000 DUP2 MSTORE PUSH1 0x4 ADD PUSH2 0x14A5 SWAP1 PUSH2 0x290C JUMP JUMPDEST PUSH1 0x40 MLOAD DUP1 SWAP2 SUB SWAP1 REVERT JUMPDEST PUSH1 0x0 DUP3 GT PUSH2 0x14F1 JUMPI PUSH1 0x40 MLOAD PUSH32 0x8C379A000000000000000000000000000000000000000000000000000000000 DUP2 MSTORE PUSH1 0x4 ADD PUSH2 0x14E8 SWAP1 PUSH2 0x299E JUMP JUMPDEST PUSH1 0x40 MLOAD DUP1 SWAP2 SUB SWAP1 REVERT JUMPDEST CALLER PUSH20 0xFFFFFFFFFFFFFFFFFFFFFFFFFFFFFFFFFFFFFFFF AND DUP2 PUSH20 0xFFFFFFFFFFFFFFFFFFFFFFFFFFFFFFFFFFFFFFFF AND SUB PUSH2 0x155F JUMPI PUSH1 0x40 MLOAD PUSH32 0x8C379A000000000000000000000000000000000000000000000000000000000 DUP2 MSTORE PUSH1 0x4 ADD PUSH2 0x1556 SWAP1 PUSH2 0x2F5B JUMP JUMPDEST PUSH1 0x40 MLOAD DUP1 SWAP2 SUB SWAP1 REVERT JUMPDEST DUP2 PUSH1 0x1 PUSH1 0x0 CALLER PUSH20 0xFFFFFFFFFFFFFFFFFFFFFFFFFFFFFFFFFFFFFFFF AND PUSH20 0xFFFFFFFFFFFFFFFFFFFFFFFFFFFFFFFFFFFFFFFF AND DUP2 MSTORE PUSH1 0x20 ADD SWAP1 DUP2 MSTORE PUSH1 0x20 ADD PUSH1 0x0 KECCAK256 PUSH1 0x0 DUP3 DUP3 SLOAD PUSH2 0x15AE SWAP2 SWAP1 PUSH2 0x29ED JUMP JUMPDEST SWAP3 POP POP DUP2 SWAP1 SSTORE POP DUP2 PUSH1 0x2 PUSH1 0x0 CALLER PUSH20 0xFFFFFFFFFFFFFFFFFFFFFFFFFFFFFFFFFFFFFFFF AND PUSH20 0xFFFFFFFFFFFFFFFFFFFFFFFFFFFFFFFFFFFFFFFF AND DUP2 MSTORE PUSH1 0x20 ADD SWAP1 DUP2 MSTORE PUSH1 0x20 ADD PUSH1 0x0 KECCAK256 PUSH1 0x0 DUP4 PUSH20 0xFFFFFFFFFFFFFFFFFFFFFFFFFFFFFFFFFFFFFFFF AND PUSH20 0xFFFFFFFFFFFFFFFFFFFFFFFFFFFFFFFFFFFFFFFF AND DUP2 MSTORE PUSH1 0x20 ADD SWAP1 DUP2 MSTORE PUSH1 0x20 ADD PUSH1 0x0 KECCAK256 PUSH1 0x0 DUP3 DUP3 SLOAD PUSH2 0x1641 SWAP2 SWAP1 PUSH2 0x2EB5 JUMP JUMPDEST SWAP3 POP POP DUP2 SWAP1 SSTORE POP DUP2 PUSH1 0x4 PUSH1 0x0 DUP4 PUSH20 0xFFFFFFFFFFFFFFFFFFFFFFFFFFFFFFFFFFFFFFFF AND PUSH20 0xFFFFFFFFFFFFFFFFFFFFFFFFFFFFFFFFFFFFFFFF AND DUP2 MSTORE PUSH1 0x20 ADD SWAP1 DUP2 MSTORE PUSH1 0x20 ADD PUSH1 0x0 KECCAK256 PUSH1 0x0 CALLER PUSH20 0xFFFFFFFFFFFFFFFFFFFFFFFFFFFFFFFFFFFFFFFF AND PUSH20 0xFFFFFFFFFFFFFFFFFFFFFFFFFFFFFFFFFFFFFFFF AND DUP2 MSTORE PUSH1 0x20 ADD SWAP1 DUP2 MSTORE PUSH1 0x20 ADD PUSH1 0x0 KECCAK256 PUSH1 0x0 DUP3 DUP3 SLOAD PUSH2 0x16D4 SWAP2 SWAP1 PUSH2 0x2EB5 JUMP JUMPDEST SWAP3 POP POP DUP2 SWAP1 SSTORE POP PUSH1 0x9 PUSH1 0x0 CALLER PUSH20 0xFFFFFFFFFFFFFFFFFFFFFFFFFFFFFFFFFFFFFFFF AND PUSH20 0xFFFFFFFFFFFFFFFFFFFFFFFFFFFFFFFFFFFFFFFF AND DUP2 MSTORE PUSH1 0x20 ADD SWAP1 DUP2 MSTORE PUSH1 0x20 ADD PUSH1 0x0 KECCAK256 DUP2 SWAP1 DUP1 PUSH1 0x1 DUP2 SLOAD ADD DUP1 DUP3 SSTORE DUP1 SWAP2 POP POP PUSH1 0x1 SWAP1 SUB SWAP1 PUSH1 0x0 MSTORE PUSH1 0x20 PUSH1 0x0 KECCAK256 ADD PUSH1 0x0 SWAP1 SWAP2 SWAP1 SWAP2 SWAP1 SWAP2 PUSH2 0x100 EXP DUP2 SLOAD DUP2 PUSH20 0xFFFFFFFFFFFFFFFFFFFFFFFFFFFFFFFFFFFFFFFF MUL NOT AND SWAP1 DUP4 PUSH20 0xFFFFFFFFFFFFFFFFFFFFFFFFFFFFFFFFFFFFFFFF AND MUL OR SWAP1 SSTORE POP PUSH1 0xA PUSH1 0x0 DUP3 PUSH20 0xFFFFFFFFFFFFFFFFFFFFFFFFFFFFFFFFFFFFFFFF AND PUSH20 0xFFFFFFFFFFFFFFFFFFFFFFFFFFFFFFFFFFFFFFFF AND DUP2 MSTORE PUSH1 0x20 ADD SWAP1 DUP2 MSTORE PUSH1 0x20 ADD PUSH1 0x0 KECCAK256 CALLER SWAP1 DUP1 PUSH1 0x1 DUP2 SLOAD ADD DUP1 DUP3 SSTORE DUP1 SWAP2 POP POP PUSH1 0x1 SWAP1 SUB SWAP1 PUSH1 0x0 MSTORE PUSH1 0x20 PUSH1 0x0 KECCAK256 ADD PUSH1 0x0 SWAP1 SWAP2 SWAP1 SWAP2 SWAP1 SWAP2 PUSH2 0x100 EXP DUP2 SLOAD DUP2 PUSH20 0xFFFFFFFFFFFFFFFFFFFFFFFFFFFFFFFFFFFFFFFF MUL NOT AND SWAP1 DUP4 PUSH20 0xFFFFFFFFFFFFFFFFFFFFFFFFFFFFFFFFFFFFFFFF AND MUL OR SWAP1 SSTORE POP POP POP JUMP JUMPDEST PUSH1 0x2 PUSH1 0x20 MSTORE DUP2 PUSH1 0x0 MSTORE PUSH1 0x40 PUSH1 0x0 KECCAK256 PUSH1 0x20 MSTORE DUP1 PUSH1 0x0 MSTORE PUSH1 0x40 PUSH1 0x0 KECCAK256 PUSH1 0x0 SWAP2 POP SWAP2 POP POP SLOAD DUP2 JUMP JUMPDEST PUSH1 0x1 PUSH1 0x0 CALLER PUSH20 0xFFFFFFFFFFFFFFFFFFFFFFFFFFFFFFFFFFFFFFFF AND PUSH20 0xFFFFFFFFFFFFFFFFFFFFFFFFFFFFFFFFFFFFFFFF AND DUP2 MSTORE PUSH1 0x20 ADD SWAP1 DUP2 MSTORE PUSH1 0x20 ADD PUSH1 0x0 KECCAK256 SLOAD DUP5 LT PUSH2 0x18C5 JUMPI PUSH1 0x40 MLOAD PUSH32 0x8C379A000000000000000000000000000000000000000000000000000000000 DUP2 MSTORE PUSH1 0x4 ADD PUSH2 0x18BC SWAP1 PUSH2 0x290C JUMP JUMPDEST PUSH1 0x40 MLOAD DUP1 SWAP2 SUB SWAP1 REVERT JUMPDEST PUSH1 0x0 DUP5 GT PUSH2 0x1908 JUMPI PUSH1 0x40 MLOAD PUSH32 0x8C379A000000000000000000000000000000000000000000000000000000000 DUP2 MSTORE PUSH1 0x4 ADD PUSH2 0x18FF SWAP1 PUSH2 0x299E JUMP JUMPDEST PUSH1 0x40 MLOAD DUP1 SWAP2 SUB SWAP1 REVERT JUMPDEST CALLER PUSH20 0xFFFFFFFFFFFFFFFFFFFFFFFFFFFFFFFFFFFFFFFF AND DUP6 PUSH20 0xFFFFFFFFFFFFFFFFFFFFFFFFFFFFFFFFFFFFFFFF AND SUB PUSH2 0x1976 JUMPI PUSH1 0x40 MLOAD PUSH32 0x8C379A000000000000000000000000000000000000000000000000000000000 DUP2 MSTORE PUSH1 0x4 ADD PUSH2 0x196D SWAP1 PUSH2 0x2FC7 JUMP JUMPDEST PUSH1 0x40 MLOAD DUP1 SWAP2 SUB SWAP1 REVERT JUMPDEST DUP5 PUSH20 0xFFFFFFFFFFFFFFFFFFFFFFFFFFFFFFFFFFFFFFFF AND PUSH2 0x8FC DUP6 SWAP1 DUP2 ISZERO MUL SWAP1 PUSH1 0x40 MLOAD PUSH1 0x0 PUSH1 0x40 MLOAD DUP1 DUP4 SUB DUP2 DUP6 DUP9 DUP9 CALL SWAP4 POP POP POP POP ISZERO DUP1 ISZERO PUSH2 0x19BC JUMPI RETURNDATASIZE PUSH1 0x0 DUP1 RETURNDATACOPY RETURNDATASIZE PUSH1 0x0 REVERT JUMPDEST POP DUP4 PUSH1 0x1 PUSH1 0x0 CALLER PUSH20 0xFFFFFFFFFFFFFFFFFFFFFFFFFFFFFFFFFFFFFFFF AND PUSH20 0xFFFFFFFFFFFFFFFFFFFFFFFFFFFFFFFFFFFFFFFF AND DUP2 MSTORE PUSH1 0x20 ADD SWAP1 DUP2 MSTORE PUSH1 0x20 ADD PUSH1 0x0 KECCAK256 PUSH1 0x0 DUP3 DUP3 SLOAD PUSH2 0x1A0C SWAP2 SWAP1 PUSH2 0x29ED JUMP JUMPDEST SWAP3 POP POP DUP2 SWAP1 SSTORE POP PUSH1 0x0 PUSH1 0x5 PUSH1 0x0 CALLER PUSH20 0xFFFFFFFFFFFFFFFFFFFFFFFFFFFFFFFFFFFFFFFF AND PUSH20 0xFFFFFFFFFFFFFFFFFFFFFFFFFFFFFFFFFFFFFFFF AND DUP2 MSTORE PUSH1 0x20 ADD SWAP1 DUP2 MSTORE PUSH1 0x20 ADD PUSH1 0x0 KECCAK256 PUSH1 0x0 DUP8 PUSH20 0xFFFFFFFFFFFFFFFFFFFFFFFFFFFFFFFFFFFFFFFF AND PUSH20 0xFFFFFFFFFFFFFFFFFFFFFFFFFFFFFFFFFFFFFFFF AND DUP2 MSTORE PUSH1 0x20 ADD SWAP1 DUP2 MSTORE PUSH1 0x20 ADD PUSH1 0x0 KECCAK256 SLOAD SUB PUSH2 0x1BD8 JUMPI PUSH1 0x7 PUSH1 0x0 CALLER PUSH20 0xFFFFFFFFFFFFFFFFFFFFFFFFFFFFFFFFFFFFFFFF AND PUSH20 0xFFFFFFFFFFFFFFFFFFFFFFFFFFFFFFFFFFFFFFFF AND DUP2 MSTORE PUSH1 0x20 ADD SWAP1 DUP2 MSTORE PUSH1 0x20 ADD PUSH1 0x0 KECCAK256 DUP6 SWAP1 DUP1 PUSH1 0x1 DUP2 SLOAD ADD DUP1 DUP3 SSTORE DUP1 SWAP2 POP POP PUSH1 0x1 SWAP1 SUB SWAP1 PUSH1 0x0 MSTORE PUSH1 0x20 PUSH1 0x0 KECCAK256 ADD PUSH1 0x0 SWAP1 SWAP2 SWAP1 SWAP2 SWAP1 SWAP2 PUSH2 0x100 EXP DUP2 SLOAD DUP2 PUSH20 0xFFFFFFFFFFFFFFFFFFFFFFFFFFFFFFFFFFFFFFFF MUL NOT AND SWAP1 DUP4 PUSH20 0xFFFFFFFFFFFFFFFFFFFFFFFFFFFFFFFFFFFFFFFF AND MUL OR SWAP1 SSTORE POP PUSH1 0x8 PUSH1 0x0 DUP7 PUSH20 0xFFFFFFFFFFFFFFFFFFFFFFFFFFFFFFFFFFFFFFFF AND PUSH20 0xFFFFFFFFFFFFFFFFFFFFFFFFFFFFFFFFFFFFFFFF AND DUP2 MSTORE PUSH1 0x20 ADD SWAP1 DUP2 MSTORE PUSH1 0x20 ADD PUSH1 0x0 KECCAK256 CALLER SWAP1 DUP1 PUSH1 0x1 DUP2 SLOAD ADD DUP1 DUP3 SSTORE DUP1 SWAP2 POP POP PUSH1 0x1 SWAP1 SUB SWAP1 PUSH1 0x0 MSTORE PUSH1 0x20 PUSH1 0x0 KECCAK256 ADD PUSH1 0x0 SWAP1 SWAP2 SWAP1 SWAP2 SWAP1 SWAP2 PUSH2 0x100 EXP DUP2 SLOAD DUP2 PUSH20 0xFFFFFFFFFFFFFFFFFFFFFFFFFFFFFFFFFFFFFFFF MUL NOT AND SWAP1 DUP4 PUSH20 0xFFFFFFFFFFFFFFFFFFFFFFFFFFFFFFFFFFFFFFFF AND MUL OR SWAP1 SSTORE POP JUMPDEST DUP4 PUSH1 0x5 PUSH1 0x0 CALLER PUSH20 0xFFFFFFFFFFFFFFFFFFFFFFFFFFFFFFFFFFFFFFFF AND PUSH20 0xFFFFFFFFFFFFFFFFFFFFFFFFFFFFFFFFFFFFFFFF AND DUP2 MSTORE PUSH1 0x20 ADD SWAP1 DUP2 MSTORE PUSH1 0x20 ADD PUSH1 0x0 KECCAK256 PUSH1 0x0 DUP8 PUSH20 0xFFFFFFFFFFFFFFFFFFFFFFFFFFFFFFFFFFFFFFFF AND PUSH20 0xFFFFFFFFFFFFFFFFFFFFFFFFFFFFFFFFFFFFFFFF AND DUP2 MSTORE PUSH1 0x20 ADD SWAP1 DUP2 MSTORE PUSH1 0x20 ADD PUSH1 0x0 KECCAK256 PUSH1 0x0 DUP3 DUP3 SLOAD PUSH2 0x1C64 SWAP2 SWAP1 PUSH2 0x2EB5 JUMP JUMPDEST SWAP3 POP POP DUP2 SWAP1 SSTORE POP DUP4 PUSH1 0x6 PUSH1 0x0 DUP8 PUSH20 0xFFFFFFFFFFFFFFFFFFFFFFFFFFFFFFFFFFFFFFFF AND PUSH20 0xFFFFFFFFFFFFFFFFFFFFFFFFFFFFFFFFFFFFFFFF AND DUP2 MSTORE PUSH1 0x20 ADD SWAP1 DUP2 MSTORE PUSH1 0x20 ADD PUSH1 0x0 KECCAK256 PUSH1 0x0 CALLER PUSH20 0xFFFFFFFFFFFFFFFFFFFFFFFFFFFFFFFFFFFFFFFF AND PUSH20 0xFFFFFFFFFFFFFFFFFFFFFFFFFFFFFFFFFFFFFFFF AND DUP2 MSTORE PUSH1 0x20 ADD SWAP1 DUP2 MSTORE PUSH1 0x20 ADD PUSH1 0x0 KECCAK256 PUSH1 0x0 DUP3 DUP3 SLOAD PUSH2 0x1CF7 SWAP2 SWAP1 PUSH2 0x2EB5 JUMP JUMPDEST SWAP3 POP POP DUP2 SWAP1 SSTORE POP DUP5 PUSH20 0xFFFFFFFFFFFFFFFFFFFFFFFFFFFFFFFFFFFFFFFF AND CALLER PUSH20 0xFFFFFFFFFFFFFFFFFFFFFFFFFFFFFFFFFFFFFFFF AND PUSH32 0xA32C156F4B3B8A11A69A7CE04D9290F328629E9BA578B036DF29793CCEED6EC9 DUP7 DUP7 DUP7 DUP7 PUSH1 0x40 MLOAD PUSH2 0x1D61 SWAP5 SWAP4 SWAP3 SWAP2 SWAP1 PUSH2 0x2FE7 JUMP JUMPDEST PUSH1 0x40 MLOAD DUP1 SWAP2 SUB SWAP1 LOG3 POP POP POP POP POP JUMP JUMPDEST PUSH1 0x6 PUSH1 0x20 MSTORE DUP2 PUSH1 0x0 MSTORE PUSH1 0x40 PUSH1 0x0 KECCAK256 PUSH1 0x20 MSTORE DUP1 PUSH1 0x0 MSTORE PUSH1 0x40 PUSH1 0x0 KECCAK256 PUSH1 0x0 SWAP2 POP SWAP2 POP POP SLOAD DUP2 JUMP JUMPDEST PUSH1 0x0 PUSH1 0x7 PUSH1 0x0 DUP4 PUSH20 0xFFFFFFFFFFFFFFFFFFFFFFFFFFFFFFFFFFFFFFFF AND PUSH20 0xFFFFFFFFFFFFFFFFFFFFFFFFFFFFFFFFFFFFFFFF AND DUP2 MSTORE PUSH1 0x20 ADD SWAP1 DUP2 MSTORE PUSH1 0x20 ADD PUSH1 0x0 KECCAK256 DUP1 SLOAD SWAP1 POP SWAP1 POP SWAP2 SWAP1 POP JUMP JUMPDEST PUSH1 0x8 PUSH1 0x20 MSTORE DUP2 PUSH1 0x0 MSTORE PUSH1 0x40 PUSH1 0x0 KECCAK256 DUP2 DUP2 SLOAD DUP2 LT PUSH2 0x1DFD JUMPI PUSH1 0x0 DUP1 REVERT JUMPDEST SWAP1 PUSH1 0x0 MSTORE PUSH1 0x20 PUSH1 0x0 KECCAK256 ADD PUSH1 0x0 SWAP2 POP SWAP2 POP SWAP1 SLOAD SWAP1 PUSH2 0x100 EXP SWAP1 DIV PUSH20 0xFFFFFFFFFFFFFFFFFFFFFFFFFFFFFFFFFFFFFFFF AND DUP2 JUMP JUMPDEST PUSH1 0x0 DUP1 PUSH1 0x0 CALLER PUSH20 0xFFFFFFFFFFFFFFFFFFFFFFFFFFFFFFFFFFFFFFFF AND PUSH20 0xFFFFFFFFFFFFFFFFFFFFFFFFFFFFFFFFFFFFFFFF AND DUP2 MSTORE PUSH1 0x20 ADD SWAP1 DUP2 MSTORE PUSH1 0x20 ADD PUSH1 0x0 KECCAK256 DUP3 DUP2 SLOAD DUP2 LT PUSH2 0x1E81 JUMPI PUSH2 0x1E80 PUSH2 0x27FF JUMP JUMPDEST JUMPDEST SWAP1 PUSH1 0x0 MSTORE PUSH1 0x20 PUSH1 0x0 KECCAK256 SWAP1 PUSH1 0x3 MUL ADD SWAP1 POP PUSH1 0x0 ISZERO ISZERO DUP2 PUSH1 0x2 ADD PUSH1 0x0 SWAP1 SLOAD SWAP1 PUSH2 0x100 EXP SWAP1 DIV PUSH1 0xFF AND ISZERO ISZERO EQ PUSH2 0x1EE9 JUMPI PUSH1 0x40 MLOAD PUSH32 0x8C379A000000000000000000000000000000000000000000000000000000000 DUP2 MSTORE PUSH1 0x4 ADD PUSH2 0x1EE0 SWAP1 PUSH2 0x28A0 JUMP JUMPDEST PUSH1 0x40 MLOAD DUP1 SWAP2 SUB SWAP1 REVERT JUMPDEST PUSH1 0x0 PUSH1 0x3 PUSH1 0x0 CALLER PUSH20 0xFFFFFFFFFFFFFFFFFFFFFFFFFFFFFFFFFFFFFFFF AND PUSH20 0xFFFFFFFFFFFFFFFFFFFFFFFFFFFFFFFFFFFFFFFF AND DUP2 MSTORE PUSH1 0x20 ADD SWAP1 DUP2 MSTORE PUSH1 0x20 ADD PUSH1 0x0 KECCAK256 PUSH1 0x0 DUP4 PUSH1 0x2 ADD PUSH1 0x1 SWAP1 SLOAD SWAP1 PUSH2 0x100 EXP SWAP1 DIV PUSH20 0xFFFFFFFFFFFFFFFFFFFFFFFFFFFFFFFFFFFFFFFF AND PUSH20 0xFFFFFFFFFFFFFFFFFFFFFFFFFFFFFFFFFFFFFFFF AND PUSH20 0xFFFFFFFFFFFFFFFFFFFFFFFFFFFFFFFFFFFFFFFF AND DUP2 MSTORE PUSH1 0x20 ADD SWAP1 DUP2 MSTORE PUSH1 0x20 ADD PUSH1 0x0 KECCAK256 SLOAD PUSH1 0x2 PUSH1 0x0 CALLER PUSH20 0xFFFFFFFFFFFFFFFFFFFFFFFFFFFFFFFFFFFFFFFF AND PUSH20 0xFFFFFFFFFFFFFFFFFFFFFFFFFFFFFFFFFFFFFFFF AND DUP2 MSTORE PUSH1 0x20 ADD SWAP1 DUP2 MSTORE PUSH1 0x20 ADD PUSH1 0x0 KECCAK256 PUSH1 0x0 DUP5 PUSH1 0x2 ADD PUSH1 0x1 SWAP1 SLOAD SWAP1 PUSH2 0x100 EXP SWAP1 DIV PUSH20 0xFFFFFFFFFFFFFFFFFFFFFFFFFFFFFFFFFFFFFFFF AND PUSH20 0xFFFFFFFFFFFFFFFFFFFFFFFFFFFFFFFFFFFFFFFF AND PUSH20 0xFFFFFFFFFFFFFFFFFFFFFFFFFFFFFFFFFFFFFFFF AND DUP2 MSTORE PUSH1 0x20 ADD SWAP1 DUP2 MSTORE PUSH1 0x20 ADD PUSH1 0x0 KECCAK256 SLOAD PUSH2 0x2037 SWAP2 SWAP1 PUSH2 0x29ED JUMP JUMPDEST GT ISZERO PUSH2 0x2207 JUMPI DUP1 PUSH1 0x2 ADD PUSH1 0x1 SWAP1 SLOAD SWAP1 PUSH2 0x100 EXP SWAP1 DIV PUSH20 0xFFFFFFFFFFFFFFFFFFFFFFFFFFFFFFFFFFFFFFFF AND PUSH20 0xFFFFFFFFFFFFFFFFFFFFFFFFFFFFFFFFFFFFFFFF AND PUSH2 0x8FC DUP3 PUSH1 0x1 ADD SLOAD SWAP1 DUP2 ISZERO MUL SWAP1 PUSH1 0x40 MLOAD PUSH1 0x0 PUSH1 0x40 MLOAD DUP1 DUP4 SUB DUP2 DUP6 DUP9 DUP9 CALL SWAP4 POP POP POP POP ISZERO DUP1 ISZERO PUSH2 0x20AB JUMPI RETURNDATASIZE PUSH1 0x0 DUP1 RETURNDATACOPY RETURNDATASIZE PUSH1 0x0 REVERT JUMPDEST POP PUSH1 0x1 DUP2 PUSH1 0x2 ADD PUSH1 0x0 PUSH2 0x100 EXP DUP2 SLOAD DUP2 PUSH1 0xFF MUL NOT AND SWAP1 DUP4 ISZERO ISZERO MUL OR SWAP1 SSTORE POP DUP1 PUSH1 0x1 ADD SLOAD PUSH1 0x1 PUSH1 0x0 DUP4 PUSH1 0x2 ADD PUSH1 0x1 SWAP1 SLOAD SWAP1 PUSH2 0x100 EXP SWAP1 DIV PUSH20 0xFFFFFFFFFFFFFFFFFFFFFFFFFFFFFFFFFFFFFFFF AND PUSH20 0xFFFFFFFFFFFFFFFFFFFFFFFFFFFFFFFFFFFFFFFF AND PUSH20 0xFFFFFFFFFFFFFFFFFFFFFFFFFFFFFFFFFFFFFFFF AND DUP2 MSTORE PUSH1 0x20 ADD SWAP1 DUP2 MSTORE PUSH1 0x20 ADD PUSH1 0x0 KECCAK256 PUSH1 0x0 DUP3 DUP3 SLOAD PUSH2 0x2140 SWAP2 SWAP1 PUSH2 0x2EB5 JUMP JUMPDEST SWAP3 POP POP DUP2 SWAP1 SSTORE POP DUP1 PUSH1 0x1 ADD SLOAD PUSH1 0x3 PUSH1 0x0 CALLER PUSH20 0xFFFFFFFFFFFFFFFFFFFFFFFFFFFFFFFFFFFFFFFF AND PUSH20 0xFFFFFFFFFFFFFFFFFFFFFFFFFFFFFFFFFFFFFFFF AND DUP2 MSTORE PUSH1 0x20 ADD SWAP1 DUP2 MSTORE PUSH1 0x20 ADD PUSH1 0x0 KECCAK256 PUSH1 0x0 DUP4 PUSH1 0x2 ADD PUSH1 0x1 SWAP1 SLOAD SWAP1 PUSH2 0x100 EXP SWAP1 DIV PUSH20 0xFFFFFFFFFFFFFFFFFFFFFFFFFFFFFFFFFFFFFFFF AND PUSH20 0xFFFFFFFFFFFFFFFFFFFFFFFFFFFFFFFFFFFFFFFF AND PUSH20 0xFFFFFFFFFFFFFFFFFFFFFFFFFFFFFFFFFFFFFFFF AND DUP2 MSTORE PUSH1 0x20 ADD SWAP1 DUP2 MSTORE PUSH1 0x20 ADD PUSH1 0x0 KECCAK256 PUSH1 0x0 DUP3 DUP3 SLOAD PUSH2 0x21FB SWAP2 SWAP1 PUSH2 0x2EB5 JUMP JUMPDEST SWAP3 POP POP DUP2 SWAP1 SSTORE POP PUSH2 0x2211 JUMP JUMPDEST PUSH2 0x2210 DUP3 PUSH2 0x6F5 JUMP JUMPDEST JUMPDEST POP POP JUMP JUMPDEST PUSH1 0x1 PUSH1 0x20 MSTORE DUP1 PUSH1 0x0 MSTORE PUSH1 0x40 PUSH1 0x0 KECCAK256 PUSH1 0x0 SWAP2 POP SWAP1 POP SLOAD DUP2 JUMP JUMPDEST PUSH1 0x0 PUSH1 0x9 PUSH1 0x0 DUP4 PUSH20 0xFFFFFFFFFFFFFFFFFFFFFFFFFFFFFFFFFFFFFFFF AND PUSH20 0xFFFFFFFFFFFFFFFFFFFFFFFFFFFFFFFFFFFFFFFF AND DUP2 MSTORE PUSH1 0x20 ADD SWAP1 DUP2 MSTORE PUSH1 0x20 ADD PUSH1 0x0 KECCAK256 DUP1 SLOAD SWAP1 POP SWAP1 POP SWAP2 SWAP1 POP JUMP JUMPDEST PUSH1 0x0 PUSH1 0x40 MLOAD SWAP1 POP SWAP1 JUMP JUMPDEST PUSH1 0x0 DUP1 REVERT JUMPDEST PUSH1 0x0 DUP1 REVERT JUMPDEST PUSH1 0x0 PUSH20 0xFFFFFFFFFFFFFFFFFFFFFFFFFFFFFFFFFFFFFFFF DUP3 AND SWAP1 POP SWAP2 SWAP1 POP JUMP JUMPDEST PUSH1 0x0 PUSH2 0x22B8 DUP3 PUSH2 0x228D JUMP JUMPDEST SWAP1 POP SWAP2 SWAP1 POP JUMP JUMPDEST PUSH2 0x22C8 DUP2 PUSH2 0x22AD JUMP JUMPDEST DUP2 EQ PUSH2 0x22D3 JUMPI PUSH1 0x0 DUP1 REVERT JUMPDEST POP JUMP JUMPDEST PUSH1 0x0 DUP2 CALLDATALOAD SWAP1 POP PUSH2 0x22E5 DUP2 PUSH2 0x22BF JUMP JUMPDEST SWAP3 SWAP2 POP POP JUMP JUMPDEST PUSH1 0x0 DUP2 SWAP1 POP SWAP2 SWAP1 POP JUMP JUMPDEST PUSH2 0x22FE DUP2 PUSH2 0x22EB JUMP JUMPDEST DUP2 EQ PUSH2 0x2309 JUMPI PUSH1 0x0 DUP1 REVERT JUMPDEST POP JUMP JUMPDEST PUSH1 0x0 DUP2 CALLDATALOAD SWAP1 POP PUSH2 0x231B DUP2 PUSH2 0x22F5 JUMP JUMPDEST SWAP3 SWAP2 POP POP JUMP JUMPDEST PUSH1 0x0 DUP1 PUSH1 0x40 DUP4 DUP6 SUB SLT ISZERO PUSH2 0x2338 JUMPI PUSH2 0x2337 PUSH2 0x2283 JUMP JUMPDEST JUMPDEST PUSH1 0x0 PUSH2 0x2346 DUP6 DUP3 DUP7 ADD PUSH2 0x22D6 JUMP JUMPDEST SWAP3 POP POP PUSH1 0x20 PUSH2 0x2357 DUP6 DUP3 DUP7 ADD PUSH2 0x230C JUMP JUMPDEST SWAP2 POP POP SWAP3 POP SWAP3 SWAP1 POP JUMP JUMPDEST PUSH2 0x236A DUP2 PUSH2 0x22AD JUMP JUMPDEST DUP3 MSTORE POP POP JUMP JUMPDEST PUSH1 0x0 PUSH1 0x20 DUP3 ADD SWAP1 POP PUSH2 0x2385 PUSH1 0x0 DUP4 ADD DUP5 PUSH2 0x2361 JUMP JUMPDEST SWAP3 SWAP2 POP POP JUMP JUMPDEST PUSH1 0x0 PUSH1 0x20 DUP3 DUP5 SUB SLT ISZERO PUSH2 0x23A1 JUMPI PUSH2 0x23A0 PUSH2 0x2283 JUMP JUMPDEST JUMPDEST PUSH1 0x0 PUSH2 0x23AF DUP5 DUP3 DUP6 ADD PUSH2 0x230C JUMP JUMPDEST SWAP2 POP POP SWAP3 SWAP2 POP POP JUMP JUMPDEST PUSH1 0x0 PUSH1 0x20 DUP3 DUP5 SUB SLT ISZERO PUSH2 0x23CE JUMPI PUSH2 0x23CD PUSH2 0x2283 JUMP JUMPDEST JUMPDEST PUSH1 0x0 PUSH2 0x23DC DUP5 DUP3 DUP6 ADD PUSH2 0x22D6 JUMP JUMPDEST SWAP2 POP POP SWAP3 SWAP2 POP POP JUMP JUMPDEST PUSH2 0x23EE DUP2 PUSH2 0x22EB JUMP JUMPDEST DUP3 MSTORE POP POP JUMP JUMPDEST PUSH1 0x0 PUSH1 0x20 DUP3 ADD SWAP1 POP PUSH2 0x2409 PUSH1 0x0 DUP4 ADD DUP5 PUSH2 0x23E5 JUMP JUMPDEST SWAP3 SWAP2 POP POP JUMP JUMPDEST PUSH1 0x0 DUP1 PUSH1 0x40 DUP4 DUP6 SUB SLT ISZERO PUSH2 0x2426 JUMPI PUSH2 0x2425 PUSH2 0x2283 JUMP JUMPDEST JUMPDEST PUSH1 0x0 PUSH2 0x2434 DUP6 DUP3 DUP7 ADD PUSH2 0x22D6 JUMP JUMPDEST SWAP3 POP POP PUSH1 0x20 PUSH2 0x2445 DUP6 DUP3 DUP7 ADD PUSH2 0x22D6 JUMP JUMPDEST SWAP2 POP POP SWAP3 POP SWAP3 SWAP1 POP JUMP JUMPDEST PUSH1 0x0 DUP1 REVERT JUMPDEST PUSH1 0x0 DUP1 REVERT JUMPDEST PUSH1 0x0 PUSH1 0x1F NOT PUSH1 0x1F DUP4 ADD AND SWAP1 POP SWAP2 SWAP1 POP JUMP JUMPDEST PUSH32 0x4E487B7100000000000000000000000000000000000000000000000000000000 PUSH1 0x0 MSTORE PUSH1 0x41 PUSH1 0x4 MSTORE PUSH1 0x24 PUSH1 0x0 REVERT JUMPDEST PUSH2 0x24A2 DUP3 PUSH2 0x2459 JUMP JUMPDEST DUP2 ADD DUP2 DUP2 LT PUSH8 0xFFFFFFFFFFFFFFFF DUP3 GT OR ISZERO PUSH2 0x24C1 JUMPI PUSH2 0x24C0 PUSH2 0x246A JUMP JUMPDEST JUMPDEST DUP1 PUSH1 0x40 MSTORE POP POP POP JUMP JUMPDEST PUSH1 0x0 PUSH2 0x24D4 PUSH2 0x2279 JUMP JUMPDEST SWAP1 POP PUSH2 0x24E0 DUP3 DUP3 PUSH2 0x2499 JUMP JUMPDEST SWAP2 SWAP1 POP JUMP JUMPDEST PUSH1 0x0 PUSH8 0xFFFFFFFFFFFFFFFF DUP3 GT ISZERO PUSH2 0x2500 JUMPI PUSH2 0x24FF PUSH2 0x246A JUMP JUMPDEST JUMPDEST PUSH2 0x2509 DUP3 PUSH2 0x2459 JUMP JUMPDEST SWAP1 POP PUSH1 0x20 DUP2 ADD SWAP1 POP SWAP2 SWAP1 POP JUMP JUMPDEST DUP3 DUP2 DUP4 CALLDATACOPY PUSH1 0x0 DUP4 DUP4 ADD MSTORE POP POP POP JUMP JUMPDEST PUSH1 0x0 PUSH2 0x2538 PUSH2 0x2533 DUP5 PUSH2 0x24E5 JUMP JUMPDEST PUSH2 0x24CA JUMP JUMPDEST SWAP1 POP DUP3 DUP2 MSTORE PUSH1 0x20 DUP2 ADD DUP5 DUP5 DUP5 ADD GT ISZERO PUSH2 0x2554 JUMPI PUSH2 0x2553 PUSH2 0x2454 JUMP JUMPDEST JUMPDEST PUSH2 0x255F DUP5 DUP3 DUP6 PUSH2 0x2516 JUMP JUMPDEST POP SWAP4 SWAP3 POP POP POP JUMP JUMPDEST PUSH1 0x0 DUP3 PUSH1 0x1F DUP4 ADD SLT PUSH2 0x257C JUMPI PUSH2 0x257B PUSH2 0x244F JUMP JUMPDEST JUMPDEST DUP2 CALLDATALOAD PUSH2 0x258C DUP5 DUP3 PUSH1 0x20 DUP7 ADD PUSH2 0x2525 JUMP JUMPDEST SWAP2 POP POP SWAP3 SWAP2 POP POP JUMP JUMPDEST PUSH1 0x0 DUP1 PUSH1 0x0 PUSH1 0x60 DUP5 DUP7 SUB SLT ISZERO PUSH2 0x25AE JUMPI PUSH2 0x25AD PUSH2 0x2283 JUMP JUMPDEST JUMPDEST PUSH1 0x0 DUP5 ADD CALLDATALOAD PUSH8 0xFFFFFFFFFFFFFFFF DUP2 GT ISZERO PUSH2 0x25CC JUMPI PUSH2 0x25CB PUSH2 0x2288 JUMP JUMPDEST JUMPDEST PUSH2 0x25D8 DUP7 DUP3 DUP8 ADD PUSH2 0x2567 JUMP JUMPDEST SWAP4 POP POP PUSH1 0x20 PUSH2 0x25E9 DUP7 DUP3 DUP8 ADD PUSH2 0x230C JUMP JUMPDEST SWAP3 POP POP PUSH1 0x40 PUSH2 0x25FA DUP7 DUP3 DUP8 ADD PUSH2 0x22D6 JUMP JUMPDEST SWAP2 POP POP SWAP3 POP SWAP3 POP SWAP3 JUMP JUMPDEST PUSH1 0x0 PUSH2 0x260F DUP3 PUSH2 0x228D JUMP JUMPDEST SWAP1 POP SWAP2 SWAP1 POP JUMP JUMPDEST PUSH2 0x261F DUP2 PUSH2 0x2604 JUMP JUMPDEST DUP2 EQ PUSH2 0x262A JUMPI PUSH1 0x0 DUP1 REVERT JUMPDEST POP JUMP JUMPDEST PUSH1 0x0 DUP2 CALLDATALOAD SWAP1 POP PUSH2 0x263C DUP2 PUSH2 0x2616 JUMP JUMPDEST SWAP3 SWAP2 POP POP JUMP JUMPDEST PUSH1 0x0 DUP1 PUSH1 0x40 DUP4 DUP6 SUB SLT ISZERO PUSH2 0x2659 JUMPI PUSH2 0x2658 PUSH2 0x2283 JUMP JUMPDEST JUMPDEST PUSH1 0x0 PUSH2 0x2667 DUP6 DUP3 DUP7 ADD PUSH2 0x230C JUMP JUMPDEST SWAP3 POP POP PUSH1 0x20 PUSH2 0x2678 DUP6 DUP3 DUP7 ADD PUSH2 0x262D JUMP JUMPDEST SWAP2 POP POP SWAP3 POP SWAP3 SWAP1 POP JUMP JUMPDEST PUSH1 0x0 DUP2 MLOAD SWAP1 POP SWAP2 SWAP1 POP JUMP JUMPDEST PUSH1 0x0 DUP3 DUP3 MSTORE PUSH1 0x20 DUP3 ADD SWAP1 POP SWAP3 SWAP2 POP POP JUMP JUMPDEST PUSH1 0x0 JUMPDEST DUP4 DUP2 LT ISZERO PUSH2 0x26BC JUMPI DUP1 DUP3 ADD MLOAD DUP2 DUP5 ADD MSTORE PUSH1 0x20 DUP2 ADD SWAP1 POP PUSH2 0x26A1 JUMP JUMPDEST PUSH1 0x0 DUP5 DUP5 ADD MSTORE POP POP POP POP JUMP JUMPDEST PUSH1 0x0 PUSH2 0x26D3 DUP3 PUSH2 0x2682 JUMP JUMPDEST PUSH2 0x26DD DUP2 DUP6 PUSH2 0x268D JUMP JUMPDEST SWAP4 POP PUSH2 0x26ED DUP2 DUP6 PUSH1 0x20 DUP7 ADD PUSH2 0x269E JUMP JUMPDEST PUSH2 0x26F6 DUP2 PUSH2 0x2459 JUMP JUMPDEST DUP5 ADD SWAP2 POP POP SWAP3 SWAP2 POP POP JUMP JUMPDEST PUSH1 0x0 DUP2 ISZERO ISZERO SWAP1 POP SWAP2 SWAP1 POP JUMP JUMPDEST PUSH2 0x2716 DUP2 PUSH2 0x2701 JUMP JUMPDEST DUP3 MSTORE POP POP JUMP JUMPDEST PUSH1 0x0 PUSH1 0x80 DUP3 ADD SWAP1 POP DUP2 DUP2 SUB PUSH1 0x0 DUP4 ADD MSTORE PUSH2 0x2736 DUP2 DUP8 PUSH2 0x26C8 JUMP JUMPDEST SWAP1 POP PUSH2 0x2745 PUSH1 0x20 DUP4 ADD DUP7 PUSH2 0x23E5 JUMP JUMPDEST PUSH2 0x2752 PUSH1 0x40 DUP4 ADD DUP6 PUSH2 0x270D JUMP JUMPDEST PUSH2 0x275F PUSH1 0x60 DUP4 ADD DUP5 PUSH2 0x2361 JUMP JUMPDEST SWAP6 SWAP5 POP POP POP POP POP JUMP JUMPDEST PUSH1 0x0 DUP1 PUSH1 0x0 DUP1 PUSH1 0x0 PUSH1 0xA0 DUP7 DUP9 SUB SLT ISZERO PUSH2 0x2784 JUMPI PUSH2 0x2783 PUSH2 0x2283 JUMP JUMPDEST JUMPDEST PUSH1 0x0 PUSH2 0x2792 DUP9 DUP3 DUP10 ADD PUSH2 0x262D JUMP JUMPDEST SWAP6 POP POP PUSH1 0x20 PUSH2 0x27A3 DUP9 DUP3 DUP10 ADD PUSH2 0x230C JUMP JUMPDEST SWAP5 POP POP PUSH1 0x40 PUSH2 0x27B4 DUP9 DUP3 DUP10 ADD PUSH2 0x230C JUMP JUMPDEST SWAP4 POP POP PUSH1 0x60 PUSH2 0x27C5 DUP9 DUP3 DUP10 ADD PUSH2 0x230C JUMP JUMPDEST SWAP3 POP POP PUSH1 0x80 DUP7 ADD CALLDATALOAD PUSH8 0xFFFFFFFFFFFFFFFF DUP2 GT ISZERO PUSH2 0x27E6 JUMPI PUSH2 0x27E5 PUSH2 0x2288 JUMP JUMPDEST JUMPDEST PUSH2 0x27F2 DUP9 DUP3 DUP10 ADD PUSH2 0x2567 JUMP JUMPDEST SWAP2 POP POP SWAP3 SWAP6 POP SWAP3 SWAP6 SWAP1 SWAP4 POP JUMP JUMPDEST PUSH32 0x4E487B7100000000000000000000000000000000000000000000000000000000 PUSH1 0x0 MSTORE PUSH1 0x32 PUSH1 0x4 MSTORE PUSH1 0x24 PUSH1 0x0 REVERT JUMPDEST PUSH32 0x726571756573742068617320616C7265616479206265656E2066696E616C6973 PUSH1 0x0 DUP3 ADD MSTORE PUSH32 0x6564000000000000000000000000000000000000000000000000000000000000 PUSH1 0x20 DUP3 ADD MSTORE POP JUMP JUMPDEST PUSH1 0x0 PUSH2 0x288A PUSH1 0x22 DUP4 PUSH2 0x268D JUMP JUMPDEST SWAP2 POP PUSH2 0x2895 DUP3 PUSH2 0x282E JUMP JUMPDEST PUSH1 0x40 DUP3 ADD SWAP1 POP SWAP2 SWAP1 POP JUMP JUMPDEST PUSH1 0x0 PUSH1 0x20 DUP3 ADD SWAP1 POP DUP2 DUP2 SUB PUSH1 0x0 DUP4 ADD MSTORE PUSH2 0x28B9 DUP2 PUSH2 0x287D JUMP JUMPDEST SWAP1 POP SWAP2 SWAP1 POP JUMP JUMPDEST PUSH32 0x496E73756666696369656E742066756E64730000000000000000000000000000 PUSH1 0x0 DUP3 ADD MSTORE POP JUMP JUMPDEST PUSH1 0x0 PUSH2 0x28F6 PUSH1 0x12 DUP4 PUSH2 0x268D JUMP JUMPDEST SWAP2 POP PUSH2 0x2901 DUP3 PUSH2 0x28C0 JUMP JUMPDEST PUSH1 0x20 DUP3 ADD SWAP1 POP SWAP2 SWAP1 POP JUMP JUMPDEST PUSH1 0x0 PUSH1 0x20 DUP3 ADD SWAP1 POP DUP2 DUP2 SUB PUSH1 0x0 DUP4 ADD MSTORE PUSH2 0x2925 DUP2 PUSH2 0x28E9 JUMP JUMPDEST SWAP1 POP SWAP2 SWAP1 POP JUMP JUMPDEST PUSH32 0x7472616E73616374696F6E2077697468203020657468206973206E6F7420616C PUSH1 0x0 DUP3 ADD MSTORE PUSH32 0x6C6F776564000000000000000000000000000000000000000000000000000000 PUSH1 0x20 DUP3 ADD MSTORE POP JUMP JUMPDEST PUSH1 0x0 PUSH2 0x2988 PUSH1 0x25 DUP4 PUSH2 0x268D JUMP JUMPDEST SWAP2 POP PUSH2 0x2993 DUP3 PUSH2 0x292C JUMP JUMPDEST PUSH1 0x40 DUP3 ADD SWAP1 POP SWAP2 SWAP1 POP JUMP JUMPDEST PUSH1 0x0 PUSH1 0x20 DUP3 ADD SWAP1 POP DUP2 DUP2 SUB PUSH1 0x0 DUP4 ADD MSTORE PUSH2 0x29B7 DUP2 PUSH2 0x297B JUMP JUMPDEST SWAP1 POP SWAP2 SWAP1 POP JUMP JUMPDEST PUSH32 0x4E487B7100000000000000000000000000000000000000000000000000000000 PUSH1 0x0 MSTORE PUSH1 0x11 PUSH1 0x4 MSTORE PUSH1 0x24 PUSH1 0x0 REVERT JUMPDEST PUSH1 0x0 PUSH2 0x29F8 DUP3 PUSH2 0x22EB JUMP JUMPDEST SWAP2 POP PUSH2 0x2A03 DUP4 PUSH2 0x22EB JUMP JUMPDEST SWAP3 POP DUP3 DUP3 SUB SWAP1 POP DUP2 DUP2 GT ISZERO PUSH2 0x2A1B JUMPI PUSH2 0x2A1A PUSH2 0x29BE JUMP JUMPDEST JUMPDEST SWAP3 SWAP2 POP POP JUMP JUMPDEST PUSH32 0x596F752068617665207573656420616C6C20746865206D6F6E65792074686174 PUSH1 0x0 DUP3 ADD MSTORE PUSH32 0x20776173206C656E7420746F20796F7500000000000000000000000000000000 PUSH1 0x20 DUP3 ADD MSTORE POP JUMP JUMPDEST PUSH1 0x0 PUSH2 0x2A7D PUSH1 0x30 DUP4 PUSH2 0x268D JUMP JUMPDEST SWAP2 POP PUSH2 0x2A88 DUP3 PUSH2 0x2A21 JUMP JUMPDEST PUSH1 0x40 DUP3 ADD SWAP1 POP SWAP2 SWAP1 POP JUMP JUMPDEST PUSH1 0x0 PUSH1 0x20 DUP3 ADD SWAP1 POP DUP2 DUP2 SUB PUSH1 0x0 DUP4 ADD MSTORE PUSH2 0x2AAC DUP2 PUSH2 0x2A70 JUMP JUMPDEST SWAP1 POP SWAP2 SWAP1 POP JUMP JUMPDEST PUSH32 0x796F75206172652061736B696E6720666F72206D6F7265206D6F6E6579207468 PUSH1 0x0 DUP3 ADD MSTORE PUSH32 0x616E207768617420686173206265656E206C656E7420746F20796F7500000000 PUSH1 0x20 DUP3 ADD MSTORE POP JUMP JUMPDEST PUSH1 0x0 PUSH2 0x2B0F PUSH1 0x3C DUP4 PUSH2 0x268D JUMP JUMPDEST SWAP2 POP PUSH2 0x2B1A DUP3 PUSH2 0x2AB3 JUMP JUMPDEST PUSH1 0x40 DUP3 ADD SWAP1 POP SWAP2 SWAP1 POP JUMP JUMPDEST PUSH1 0x0 PUSH1 0x20 DUP3 ADD SWAP1 POP DUP2 DUP2 SUB PUSH1 0x0 DUP4 ADD MSTORE PUSH2 0x2B3E DUP2 PUSH2 0x2B02 JUMP JUMPDEST SWAP1 POP SWAP2 SWAP1 POP JUMP JUMPDEST PUSH32 0x4E487B7100000000000000000000000000000000000000000000000000000000 PUSH1 0x0 MSTORE PUSH1 0x22 PUSH1 0x4 MSTORE PUSH1 0x24 PUSH1 0x0 REVERT JUMPDEST PUSH1 0x0 PUSH1 0x2 DUP3 DIV SWAP1 POP PUSH1 0x1 DUP3 AND DUP1 PUSH2 0x2B8C JUMPI PUSH1 0x7F DUP3 AND SWAP2 POP JUMPDEST PUSH1 0x20 DUP3 LT DUP2 SUB PUSH2 0x2B9F JUMPI PUSH2 0x2B9E PUSH2 0x2B45 JUMP JUMPDEST JUMPDEST POP SWAP2 SWAP1 POP JUMP JUMPDEST PUSH1 0x0 DUP2 SWAP1 POP DUP2 PUSH1 0x0 MSTORE PUSH1 0x20 PUSH1 0x0 KECCAK256 SWAP1 POP SWAP2 SWAP1 POP JUMP JUMPDEST PUSH1 0x0 PUSH1 0x20 PUSH1 0x1F DUP4 ADD DIV SWAP1 POP SWAP2 SWAP1 POP JUMP JUMPDEST PUSH1 0x0 DUP3 DUP3 SHL SWAP1 POP SWAP3 SWAP2 POP POP JUMP JUMPDEST PUSH1 0x0 PUSH1 0x8 DUP4 MUL PUSH2 0x2C07 PUSH32 0xFFFFFFFFFFFFFFFFFFFFFFFFFFFFFFFFFFFFFFFFFFFFFFFFFFFFFFFFFFFFFFFF DUP3 PUSH2 0x2BCA JUMP JUMPDEST PUSH2 0x2C11 DUP7 DUP4 PUSH2 0x2BCA JUMP JUMPDEST SWAP6 POP DUP1 NOT DUP5 AND SWAP4 POP DUP1 DUP7 AND DUP5 OR SWAP3 POP POP POP SWAP4 SWAP3 POP POP POP JUMP JUMPDEST PUSH1 0x0 DUP2 SWAP1 POP SWAP2 SWAP1 POP JUMP JUMPDEST PUSH1 0x0 PUSH2 0x2C4E PUSH2 0x2C49 PUSH2 0x2C44 DUP5 PUSH2 0x22EB JUMP JUMPDEST PUSH2 0x2C29 JUMP JUMPDEST PUSH2 0x22EB JUMP JUMPDEST SWAP1 POP SWAP2 SWAP1 POP JUMP JUMPDEST PUSH1 0x0 DUP2 SWAP1 POP SWAP2 SWAP1 POP JUMP JUMPDEST PUSH2 0x2C68 DUP4 PUSH2 0x2C33 JUMP JUMPDEST PUSH2 0x2C7C PUSH2 0x2C74 DUP3 PUSH2 0x2C55 JUMP JUMPDEST DUP5 DUP5 SLOAD PUSH2 0x2BD7 JUMP JUMPDEST DUP3 SSTORE POP POP POP POP JUMP JUMPDEST PUSH1 0x0 SWAP1 JUMP JUMPDEST PUSH2 0x2C91 PUSH2 0x2C84 JUMP JUMPDEST PUSH2 0x2C9C DUP2 DUP5 DUP5 PUSH2 0x2C5F JUMP JUMPDEST POP POP POP JUMP JUMPDEST JUMPDEST DUP2 DUP2 LT ISZERO PUSH2 0x2CC0 JUMPI PUSH2 0x2CB5 PUSH1 0x0 DUP3 PUSH2 0x2C89 JUMP JUMPDEST PUSH1 0x1 DUP2 ADD SWAP1 POP PUSH2 0x2CA2 JUMP JUMPDEST POP POP JUMP JUMPDEST PUSH1 0x1F DUP3 GT ISZERO PUSH2 0x2D05 JUMPI PUSH2 0x2CD6 DUP2 PUSH2 0x2BA5 JUMP JUMPDEST PUSH2 0x2CDF DUP5 PUSH2 0x2BBA JUMP JUMPDEST DUP2 ADD PUSH1 0x20 DUP6 LT ISZERO PUSH2 0x2CEE JUMPI DUP2 SWAP1 POP JUMPDEST PUSH2 0x2D02 PUSH2 0x2CFA DUP6 PUSH2 0x2BBA JUMP JUMPDEST DUP4 ADD DUP3 PUSH2 0x2CA1 JUMP JUMPDEST POP POP JUMPDEST POP POP POP JUMP JUMPDEST PUSH1 0x0 DUP3 DUP3 SHR SWAP1 POP SWAP3 SWAP2 POP POP JUMP JUMPDEST PUSH1 0x0 PUSH2 0x2D28 PUSH1 0x0 NOT DUP5 PUSH1 0x8 MUL PUSH2 0x2D0A JUMP JUMPDEST NOT DUP1 DUP4 AND SWAP2 POP POP SWAP3 SWAP2 POP POP JUMP JUMPDEST PUSH1 0x0 PUSH2 0x2D41 DUP4 DUP4 PUSH2 0x2D17 JUMP JUMPDEST SWAP2 POP DUP3 PUSH1 0x2 MUL DUP3 OR SWAP1 POP SWAP3 SWAP2 POP POP JUMP JUMPDEST PUSH2 0x2D5A DUP3 PUSH2 0x2682 JUMP JUMPDEST PUSH8 0xFFFFFFFFFFFFFFFF DUP2 GT ISZERO PUSH2 0x2D73 JUMPI PUSH2 0x2D72 PUSH2 0x246A JUMP JUMPDEST JUMPDEST PUSH2 0x2D7D DUP3 SLOAD PUSH2 0x2B74 JUMP JUMPDEST PUSH2 0x2D88 DUP3 DUP3 DUP6 PUSH2 0x2CC4 JUMP JUMPDEST PUSH1 0x0 PUSH1 0x20 SWAP1 POP PUSH1 0x1F DUP4 GT PUSH1 0x1 DUP2 EQ PUSH2 0x2DBB JUMPI PUSH1 0x0 DUP5 ISZERO PUSH2 0x2DA9 JUMPI DUP3 DUP8 ADD MLOAD SWAP1 POP JUMPDEST PUSH2 0x2DB3 DUP6 DUP3 PUSH2 0x2D35 JUMP JUMPDEST DUP7 SSTORE POP PUSH2 0x2E1B JUMP JUMPDEST PUSH1 0x1F NOT DUP5 AND PUSH2 0x2DC9 DUP7 PUSH2 0x2BA5 JUMP JUMPDEST PUSH1 0x0 JUMPDEST DUP3 DUP2 LT ISZERO PUSH2 0x2DF1 JUMPI DUP5 DUP10 ADD MLOAD DUP3 SSTORE PUSH1 0x1 DUP3 ADD SWAP2 POP PUSH1 0x20 DUP6 ADD SWAP5 POP PUSH1 0x20 DUP2 ADD SWAP1 POP PUSH2 0x2DCC JUMP JUMPDEST DUP7 DUP4 LT ISZERO PUSH2 0x2E0E JUMPI DUP5 DUP10 ADD MLOAD PUSH2 0x2E0A PUSH1 0x1F DUP10 AND DUP3 PUSH2 0x2D17 JUMP JUMPDEST DUP4 SSTORE POP JUMPDEST PUSH1 0x1 PUSH1 0x2 DUP9 MUL ADD DUP9 SSTORE POP POP POP JUMPDEST POP POP POP POP POP POP JUMP JUMPDEST PUSH32 0x546865206164647265737320646F65736E7420686176652074686174206D7563 PUSH1 0x0 DUP3 ADD MSTORE PUSH32 0x682066756E647300000000000000000000000000000000000000000000000000 PUSH1 0x20 DUP3 ADD MSTORE POP JUMP JUMPDEST PUSH1 0x0 PUSH2 0x2E7F PUSH1 0x27 DUP4 PUSH2 0x268D JUMP JUMPDEST SWAP2 POP PUSH2 0x2E8A DUP3 PUSH2 0x2E23 JUMP JUMPDEST PUSH1 0x40 DUP3 ADD SWAP1 POP SWAP2 SWAP1 POP JUMP JUMPDEST PUSH1 0x0 PUSH1 0x20 DUP3 ADD SWAP1 POP DUP2 DUP2 SUB PUSH1 0x0 DUP4 ADD MSTORE PUSH2 0x2EAE DUP2 PUSH2 0x2E72 JUMP JUMPDEST SWAP1 POP SWAP2 SWAP1 POP JUMP JUMPDEST PUSH1 0x0 PUSH2 0x2EC0 DUP3 PUSH2 0x22EB JUMP JUMPDEST SWAP2 POP PUSH2 0x2ECB DUP4 PUSH2 0x22EB JUMP JUMPDEST SWAP3 POP DUP3 DUP3 ADD SWAP1 POP DUP1 DUP3 GT ISZERO PUSH2 0x2EE3 JUMPI PUSH2 0x2EE2 PUSH2 0x29BE JUMP JUMPDEST JUMPDEST SWAP3 SWAP2 POP POP JUMP JUMPDEST PUSH32 0x596F752063616E6E6F74206C656E64206D6F6E657920746F20796F757273656C PUSH1 0x0 DUP3 ADD MSTORE PUSH32 0x6600000000000000000000000000000000000000000000000000000000000000 PUSH1 0x20 DUP3 ADD MSTORE POP JUMP JUMPDEST PUSH1 0x0 PUSH2 0x2F45 PUSH1 0x21 DUP4 PUSH2 0x268D JUMP JUMPDEST SWAP2 POP PUSH2 0x2F50 DUP3 PUSH2 0x2EE9 JUMP JUMPDEST PUSH1 0x40 DUP3 ADD SWAP1 POP SWAP2 SWAP1 POP JUMP JUMPDEST PUSH1 0x0 PUSH1 0x20 DUP3 ADD SWAP1 POP DUP2 DUP2 SUB PUSH1 0x0 DUP4 ADD MSTORE PUSH2 0x2F74 DUP2 PUSH2 0x2F38 JUMP JUMPDEST SWAP1 POP SWAP2 SWAP1 POP JUMP JUMPDEST PUSH32 0x596F752063616E6E6F7420706179206D6F6E657920746F20796F757273656C66 PUSH1 0x0 DUP3 ADD MSTORE POP JUMP JUMPDEST PUSH1 0x0 PUSH2 0x2FB1 PUSH1 0x20 DUP4 PUSH2 0x268D JUMP JUMPDEST SWAP2 POP PUSH2 0x2FBC DUP3 PUSH2 0x2F7B JUMP JUMPDEST PUSH1 0x20 DUP3 ADD SWAP1 POP SWAP2 SWAP1 POP JUMP JUMPDEST PUSH1 0x0 PUSH1 0x20 DUP3 ADD SWAP1 POP DUP2 DUP2 SUB PUSH1 0x0 DUP4 ADD MSTORE PUSH2 0x2FE0 DUP2 PUSH2 0x2FA4 JUMP JUMPDEST SWAP1 POP SWAP2 SWAP1 POP JUMP JUMPDEST PUSH1 0x0 PUSH1 0x80 DUP3 ADD SWAP1 POP PUSH2 0x2FFC PUSH1 0x0 DUP4 ADD DUP8 PUSH2 0x23E5 JUMP JUMPDEST PUSH2 0x3009 PUSH1 0x20 DUP4 ADD DUP7 PUSH2 0x23E5 JUMP JUMPDEST PUSH2 0x3016 PUSH1 0x40 DUP4 ADD DUP6 PUSH2 0x23E5 JUMP JUMPDEST DUP2 DUP2 SUB PUSH1 0x60 DUP4 ADD MSTORE PUSH2 0x3028 DUP2 DUP5 PUSH2 0x26C8 JUMP JUMPDEST SWAP1 POP SWAP6 SWAP5 POP POP POP POP POP JUMP INVALID LOG2 PUSH5 0x6970667358 0x22 SLT KECCAK256 0xC8 PC 0xCB 0xA8 CALLDATASIZE EXP PUSH17 0xFE714BB1567626C12C0582833CB78CFBDF 0x26 DELEGATECALL OR 0xCE SAR 0x28 BASEFEE CREATE PUSH5 0x736F6C6343 STOP ADDMOD GT STOP CALLER "},"gasEstimates":{"creation":{"codeDepositCost":"2478600","executionCost":"2673","totalCost":"2481273"},"external":{"ReceivedFrom(address,address)":"infinite","addFund()":"infinite","approveRequest(uint256)":"infinite","balance(address)":"2902","borrowed(address,address)":"infinite","clearedMyDebt(address)":"5782","createRequest(string,uint256,address)":"infinite","given(address,address)":"infinite","lend(uint256,address)":"infinite","loanGivenArr(address,uint256)":"infinite","loanTakenArr(address,uint256)":"infinite","numberOfPeopleIPaid(address)":"2938","numberOfPeopleWhoHaveGivenLoanToMe(address)":"2961","numberOfPeopleWhoPaidMe(address)":"2916","numberOfPeopleWhomIHaveGivenLoan(address)":"2959","numberOfRequets(address)":"2938","paidArr(address,uint256)":"infinite","paidTo(address,address)":"infinite","pay(address,uint256,uint256,uint256,string)":"infinite","receivedArr(address,uint256)":"infinite","rejectRequest(uint256)":"29195","requests(address,uint256)":"infinite","takeBack(uint256,address)":"infinite","totalBalanceIHaveAdded(address)":"2904","used(address,address)":"infinite","withdraw(uint256)":"infinite"}},"methodIdentifiers":{"ReceivedFrom(address,address)":"d2713bcf","addFund()":"a2f09dfa","approveRequest(uint256)":"d7d1bbdb","balance(address)":"e3d670d7","borrowed(address,address)":"b0a02abe","clearedMyDebt(address)":"43999ac2","createRequest(string,uint256,address)":"8a9cfd55","given(address,address)":"b331ea63","lend(uint256,address)":"b1884744","loanGivenArr(address,uint256)":"092a0a8a","loanTakenArr(address,uint256)":"31287c31","numberOfPeopleIPaid(address)":"d522ac8f","numberOfPeopleWhoHaveGivenLoanToMe(address)":"334e3de2","numberOfPeopleWhoPaidMe(address)":"ad1ac14c","numberOfPeopleWhomIHaveGivenLoan(address)":"f0610297","numberOfRequets(address)":"8ead837b","paidArr(address,uint256)":"4fd49044","paidTo(address,address)":"88811f8d","pay(address,uint256,uint256,uint256,string)":"d14d7ae8","receivedArr(address,uint256)":"d7b6e15e","rejectRequest(uint256)":"2d7788db","requests(address,uint256)":"9ecebe2a","takeBack(uint256,address)":"95f4513a","totalBalanceIHaveAdded(address)":"71929c51","used(address,address)":"5195afa5","withdraw(uint256)":"2e1a7d4d"}},"storageLayout":{"storage":[{"astId":16,"contract":"DePay.sol:DePay","label":"requests","offset":0,"slot":"0","type":"t_mapping(t_address,t_array(t_struct(Request)10_storage)dyn_storage)"},{"astId":20,"contract":"DePay.sol:DePay","label":"balance","offset":0,"slot":"1","type":"t_mapping(t_address,t_uint256)"},{"astId":26,"contract":"DePay.sol:DePay","label":"given","offset":0,"slot":"2","type":"t_mapping(t_address,t_mapping(t_address,t_uint256))"},{"astId":32,"contract":"DePay.sol:DePay","label":"used","offset":0,"slot":"3","type":"t_mapping(t_address,t_mapping(t_address,t_uint256))"},{"astId":38,"contract":"DePay.sol:DePay","label":"borrowed","offset":0,"slot":"4","type":"t_mapping(t_address,t_mapping(t_address,t_uint256))"},{"astId":44,"contract":"DePay.sol:DePay","label":"paidTo","offset":0,"slot":"5","type":"t_mapping(t_address,t_mapping(t_address,t_uint256))"},{"astId":50,"contract":"DePay.sol:DePay","label":"ReceivedFrom","offset":0,"slot":"6","type":"t_mapping(t_address,t_mapping(t_address,t_uint256))"},{"astId":55,"contract":"DePay.sol:DePay","label":"paidArr","offset":0,"slot":"7","type":"t_mapping(t_address,t_array(t_address)dyn_storage)"},{"astId":60,"contract":"DePay.sol:DePay","label":"receivedArr","offset":0,"slot":"8","type":"t_mapping(t_address,t_array(t_address)dyn_storage)"},{"astId":65,"contract":"DePay.sol:DePay","label":"loanGivenArr","offset":0,"slot":"9","type":"t_mapping(t_address,t_array(t_address)dyn_storage)"},{"astId":70,"contract":"DePay.sol:DePay","label":"loanTakenArr","offset":0,"slot":"10","type":"t_mapping(t_address,t_array(t_address)dyn_storage)"},{"astId":74,"contract":"DePay.sol:DePay","label":"totalBalanceIHaveAdded","offset":0,"slot":"11","type":"t_mapping(t_address,t_uint256)"}],"types":{"t_address":{"encoding":"inplace","label":"address","numberOfBytes":"20"},"t_array(t_address)dyn_storage":{"base":"t_address","encoding":"dynamic_array","label":"address[]","numberOfBytes":"32"},"t_array(t_struct(Request)10_storage)dyn_storage":{"base":"t_struct(Request)10_storage","encoding":"dynamic_array","label":"struct DePay.Request[]","numberOfBytes":"32"},"t_bool":{"encoding":"inplace","label":"bool","numberOfBytes":"1"},"t_mapping(t_address,t_array(t_address)dyn_storage)":{"encoding":"mapping","key":"t_address","label":"mapping(address => address[])","numberOfBytes":"32","value":"t_array(t_address)dyn_storage"},"t_mapping(t_address,t_array(t_struct(Request)10_storage)dyn_storage)":{"encoding":"mapping","key":"t_address","label":"mapping(address => struct DePay.Request[])","numberOfBytes":"32","value":"t_array(t_struct(Request)10_storage)dyn_storage"},"t_mapping(t_address,t_mapping(t_address,t_uint256))":{"encoding":"mapping","key":"t_address","label":"mapping(address => mapping(address => uint256))","numberOfBytes":"32","value":"t_mapping(t_address,t_uint256)"},"t_mapping(t_address,t_uint256)":{"encoding":"mapping","key":"t_address","label":"mapping(address => uint256)","numberOfBytes":"32","value":"t_uint256"},"t_string_storage":{"encoding":"bytes","label":"string","numberOfBytes":"32"},"t_struct(Request)10_storage":{"encoding":"inplace","label":"struct DePay.Request","members":[{"astId":3,"contract":"DePay.sol:DePay","label":"description","offset":0,"slot":"0","type":"t_string_storage"},{"astId":5,"contract":"DePay.sol:DePay","label":"value","offset":0,"slot":"1","type":"t_uint256"},{"astId":7,"contract":"DePay.sol:DePay","label":"complete","offset":0,"slot":"2","type":"t_bool"},{"astId":9,"contract":"DePay.sol:DePay","label":"from","offset":1,"slot":"2","type":"t_address"}],"numberOfBytes":"96"},"t_uint256":{"encoding":"inplace","label":"uint256","numberOfBytes":"32"}}},"userdoc":{"kind":"user","methods":{},"version":1}}